{
	"contracts/OutsourcingPlatform.sol": {
		"OutsourcingPlatform": {
			"abi": [
				{
					"anonymous": false,
					"inputs": [
						{
							"indexed": true,
							"internalType": "uint256",
							"name": "projectId",
							"type": "uint256"
						},
						{
							"indexed": true,
							"internalType": "address",
							"name": "freelancer",
							"type": "address"
						}
					],
					"name": "FreelancerAssigned",
					"type": "event"
				},
				{
					"anonymous": false,
					"inputs": [
						{
							"indexed": true,
							"internalType": "uint256",
							"name": "projectId",
							"type": "uint256"
						},
						{
							"indexed": true,
							"internalType": "address",
							"name": "freelancer",
							"type": "address"
						},
						{
							"indexed": false,
							"internalType": "uint256",
							"name": "amount",
							"type": "uint256"
						}
					],
					"name": "PaymentTransferred",
					"type": "event"
				},
				{
					"anonymous": false,
					"inputs": [
						{
							"indexed": true,
							"internalType": "uint256",
							"name": "projectId",
							"type": "uint256"
						},
						{
							"indexed": true,
							"internalType": "address",
							"name": "employer",
							"type": "address"
						},
						{
							"indexed": false,
							"internalType": "uint256",
							"name": "budget",
							"type": "uint256"
						},
						{
							"indexed": false,
							"internalType": "string",
							"name": "description",
							"type": "string"
						},
						{
							"indexed": false,
							"internalType": "uint256",
							"name": "deadline",
							"type": "uint256"
						}
					],
					"name": "ProjectCreated",
					"type": "event"
				},
				{
					"inputs": [
						{
							"internalType": "uint256",
							"name": "projectId",
							"type": "uint256"
						},
						{
							"internalType": "address",
							"name": "freelancer",
							"type": "address"
						}
					],
					"name": "assignFreelancer",
					"outputs": [],
					"stateMutability": "nonpayable",
					"type": "function"
				},
				{
					"inputs": [
						{
							"internalType": "uint256",
							"name": "amount",
							"type": "uint256"
						}
					],
					"name": "calculateFee",
					"outputs": [
						{
							"internalType": "uint256",
							"name": "",
							"type": "uint256"
						}
					],
					"stateMutability": "pure",
					"type": "function"
				},
				{
					"inputs": [
						{
							"internalType": "uint256",
							"name": "projectId",
							"type": "uint256"
						}
					],
					"name": "completeProject",
					"outputs": [],
					"stateMutability": "nonpayable",
					"type": "function"
				},
				{
					"inputs": [
						{
							"internalType": "string",
							"name": "description",
							"type": "string"
						},
						{
							"internalType": "uint256",
							"name": "budget",
							"type": "uint256"
						},
						{
							"internalType": "uint256",
							"name": "deadline",
							"type": "uint256"
						}
					],
					"name": "createProject",
					"outputs": [],
					"stateMutability": "payable",
					"type": "function"
				},
				{
					"inputs": [
						{
							"internalType": "uint256",
							"name": "projectId",
							"type": "uint256"
						}
					],
					"name": "getProjectDetails",
					"outputs": [
						{
							"components": [
								{
									"internalType": "address",
									"name": "employer",
									"type": "address"
								},
								{
									"internalType": "uint256",
									"name": "budget",
									"type": "uint256"
								},
								{
									"internalType": "string",
									"name": "description",
									"type": "string"
								},
								{
									"internalType": "address",
									"name": "freelancer",
									"type": "address"
								},
								{
									"internalType": "uint256",
									"name": "deadline",
									"type": "uint256"
								},
								{
									"internalType": "bool",
									"name": "completed",
									"type": "bool"
								}
							],
							"internalType": "struct OutsourcingPlatform.Project",
							"name": "",
							"type": "tuple"
						}
					],
					"stateMutability": "view",
					"type": "function"
				},
				{
					"inputs": [],
					"name": "projectCount",
					"outputs": [
						{
							"internalType": "uint256",
							"name": "",
							"type": "uint256"
						}
					],
					"stateMutability": "view",
					"type": "function"
				},
				{
					"inputs": [
						{
							"internalType": "uint256",
							"name": "",
							"type": "uint256"
						}
					],
					"name": "projects",
					"outputs": [
						{
							"internalType": "address",
							"name": "employer",
							"type": "address"
						},
						{
							"internalType": "uint256",
							"name": "budget",
							"type": "uint256"
						},
						{
							"internalType": "string",
							"name": "description",
							"type": "string"
						},
						{
							"internalType": "address",
							"name": "freelancer",
							"type": "address"
						},
						{
							"internalType": "uint256",
							"name": "deadline",
							"type": "uint256"
						},
						{
							"internalType": "bool",
							"name": "completed",
							"type": "bool"
						}
					],
					"stateMutability": "view",
					"type": "function"
				}
			],
			"devdoc": {
				"kind": "dev",
				"methods": {},
				"version": 1
			},
			"evm": {
				"assembly": "    /* \"contracts/OutsourcingPlatform.sol\":1003:3912  contract OutsourcingPlatform {... */\n  mstore(0x40, 0x80)\n  callvalue\n  dup1\n  iszero\n  tag_1\n  jumpi\n  0x00\n  dup1\n  revert\ntag_1:\n  pop\n  dataSize(sub_0)\n  dup1\n  dataOffset(sub_0)\n  0x00\n  codecopy\n  0x00\n  return\nstop\n\nsub_0: assembly {\n        /* \"contracts/OutsourcingPlatform.sol\":1003:3912  contract OutsourcingPlatform {... */\n      mstore(0x40, 0x80)\n      jumpi(tag_1, lt(calldatasize, 0x04))\n      shr(0xe0, calldataload(0x00))\n      dup1\n      0x5f8439e3\n      gt\n      tag_9\n      jumpi\n      dup1\n      0x5f8439e3\n      eq\n      tag_5\n      jumpi\n      dup1\n      0x99a5d747\n      eq\n      tag_6\n      jumpi\n      dup1\n      0xc949756c\n      eq\n      tag_7\n      jumpi\n      dup1\n      0xf3a6ac5f\n      eq\n      tag_8\n      jumpi\n      jump(tag_1)\n    tag_9:\n      dup1\n      0x107046bd\n      eq\n      tag_2\n      jumpi\n      dup1\n      0x2245f152\n      eq\n      tag_3\n      jumpi\n      dup1\n      0x36fbad26\n      eq\n      tag_4\n      jumpi\n    tag_1:\n      0x00\n      dup1\n      revert\n        /* \"contracts/OutsourcingPlatform.sol\":1344:1384  mapping(uint => Project) public projects */\n    tag_2:\n      callvalue\n      dup1\n      iszero\n      tag_10\n      jumpi\n      0x00\n      dup1\n      revert\n    tag_10:\n      pop\n      tag_11\n      0x04\n      dup1\n      calldatasize\n      sub\n      dup2\n      add\n      swap1\n      tag_12\n      swap2\n      swap1\n      tag_13\n      jump\t// in\n    tag_12:\n      tag_14\n      jump\t// in\n    tag_11:\n      mload(0x40)\n      tag_15\n      swap7\n      swap6\n      swap5\n      swap4\n      swap3\n      swap2\n      swap1\n      tag_16\n      jump\t// in\n    tag_15:\n      mload(0x40)\n      dup1\n      swap2\n      sub\n      swap1\n      return\n        /* \"contracts/OutsourcingPlatform.sol\":3122:3656  function completeProject(uint projectId) external onlyEmployer(projectId) noReentrancy {... */\n    tag_3:\n      callvalue\n      dup1\n      iszero\n      tag_17\n      jumpi\n      0x00\n      dup1\n      revert\n    tag_17:\n      pop\n      tag_18\n      0x04\n      dup1\n      calldatasize\n      sub\n      dup2\n      add\n      swap1\n      tag_19\n      swap2\n      swap1\n      tag_13\n      jump\t// in\n    tag_19:\n      tag_20\n      jump\t// in\n    tag_18:\n      stop\n        /* \"contracts/OutsourcingPlatform.sol\":1314:1338  uint public projectCount */\n    tag_4:\n      callvalue\n      dup1\n      iszero\n      tag_21\n      jumpi\n      0x00\n      dup1\n      revert\n    tag_21:\n      pop\n      tag_22\n      tag_23\n      jump\t// in\n    tag_22:\n      mload(0x40)\n      tag_24\n      swap2\n      swap1\n      tag_25\n      jump\t// in\n    tag_24:\n      mload(0x40)\n      dup1\n      swap2\n      sub\n      swap1\n      return\n        /* \"contracts/OutsourcingPlatform.sol\":3787:3910  function getProjectDetails(uint projectId) public view returns (Project memory) {... */\n    tag_5:\n      callvalue\n      dup1\n      iszero\n      tag_26\n      jumpi\n      0x00\n      dup1\n      revert\n    tag_26:\n      pop\n      tag_27\n      0x04\n      dup1\n      calldatasize\n      sub\n      dup2\n      add\n      swap1\n      tag_28\n      swap2\n      swap1\n      tag_13\n      jump\t// in\n    tag_28:\n      tag_29\n      jump\t// in\n    tag_27:\n      mload(0x40)\n      tag_30\n      swap2\n      swap1\n      tag_31\n      jump\t// in\n    tag_30:\n      mload(0x40)\n      dup1\n      swap2\n      sub\n      swap1\n      return\n        /* \"contracts/OutsourcingPlatform.sol\":3662:3781  function calculateFee(uint amount) public pure returns (uint) {... */\n    tag_6:\n      callvalue\n      dup1\n      iszero\n      tag_32\n      jumpi\n      0x00\n      dup1\n      revert\n    tag_32:\n      pop\n      tag_33\n      0x04\n      dup1\n      calldatasize\n      sub\n      dup2\n      add\n      swap1\n      tag_34\n      swap2\n      swap1\n      tag_13\n      jump\t// in\n    tag_34:\n      tag_35\n      jump\t// in\n    tag_33:\n      mload(0x40)\n      tag_36\n      swap2\n      swap1\n      tag_25\n      jump\t// in\n    tag_36:\n      mload(0x40)\n      dup1\n      swap2\n      sub\n      swap1\n      return\n        /* \"contracts/OutsourcingPlatform.sol\":2699:3116  function assignFreelancer(uint projectId, address freelancer) external onlyEmployer(projectId) {... */\n    tag_7:\n      callvalue\n      dup1\n      iszero\n      tag_37\n      jumpi\n      0x00\n      dup1\n      revert\n    tag_37:\n      pop\n      tag_38\n      0x04\n      dup1\n      calldatasize\n      sub\n      dup2\n      add\n      swap1\n      tag_39\n      swap2\n      swap1\n      tag_40\n      jump\t// in\n    tag_39:\n      tag_41\n      jump\t// in\n    tag_38:\n      stop\n        /* \"contracts/OutsourcingPlatform.sol\":2006:2693  function createProject(string memory description, uint budget, uint deadline) external payable {... */\n    tag_8:\n      tag_42\n      0x04\n      dup1\n      calldatasize\n      sub\n      dup2\n      add\n      swap1\n      tag_43\n      swap2\n      swap1\n      tag_44\n      jump\t// in\n    tag_43:\n      tag_45\n      jump\t// in\n    tag_42:\n      stop\n        /* \"contracts/OutsourcingPlatform.sol\":1344:1384  mapping(uint => Project) public projects */\n    tag_14:\n      mstore(0x20, 0x01)\n      dup1\n      0x00\n      mstore\n      keccak256(0x00, 0x40)\n      0x00\n      swap2\n      pop\n      swap1\n      pop\n      dup1\n      0x00\n      add\n      0x00\n      swap1\n      sload\n      swap1\n      0x0100\n      exp\n      swap1\n      div\n      0xffffffffffffffffffffffffffffffffffffffff\n      and\n      swap1\n      dup1\n      0x01\n      add\n      sload\n      swap1\n      dup1\n      0x02\n      add\n      dup1\n      sload\n      tag_46\n      swap1\n      tag_47\n      jump\t// in\n    tag_46:\n      dup1\n      0x1f\n      add\n      0x20\n      dup1\n      swap2\n      div\n      mul\n      0x20\n      add\n      mload(0x40)\n      swap1\n      dup2\n      add\n      0x40\n      mstore\n      dup1\n      swap3\n      swap2\n      swap1\n      dup2\n      dup2\n      mstore\n      0x20\n      add\n      dup3\n      dup1\n      sload\n      tag_48\n      swap1\n      tag_47\n      jump\t// in\n    tag_48:\n      dup1\n      iszero\n      tag_49\n      jumpi\n      dup1\n      0x1f\n      lt\n      tag_50\n      jumpi\n      0x0100\n      dup1\n      dup4\n      sload\n      div\n      mul\n      dup4\n      mstore\n      swap2\n      0x20\n      add\n      swap2\n      jump(tag_49)\n    tag_50:\n      dup3\n      add\n      swap2\n      swap1\n      0x00\n      mstore\n      keccak256(0x00, 0x20)\n      swap1\n    tag_51:\n      dup2\n      sload\n      dup2\n      mstore\n      swap1\n      0x01\n      add\n      swap1\n      0x20\n      add\n      dup1\n      dup4\n      gt\n      tag_51\n      jumpi\n      dup3\n      swap1\n      sub\n      0x1f\n      and\n      dup3\n      add\n      swap2\n    tag_49:\n      pop\n      pop\n      pop\n      pop\n      pop\n      swap1\n      dup1\n      0x03\n      add\n      0x00\n      swap1\n      sload\n      swap1\n      0x0100\n      exp\n      swap1\n      div\n      0xffffffffffffffffffffffffffffffffffffffff\n      and\n      swap1\n      dup1\n      0x04\n      add\n      sload\n      swap1\n      dup1\n      0x05\n      add\n      0x00\n      swap1\n      sload\n      swap1\n      0x0100\n      exp\n      swap1\n      div\n      0xff\n      and\n      swap1\n      pop\n      dup7\n      jump\t// out\n        /* \"contracts/OutsourcingPlatform.sol\":3122:3656  function completeProject(uint projectId) external onlyEmployer(projectId) noReentrancy {... */\n    tag_20:\n        /* \"contracts/OutsourcingPlatform.sol\":3185:3194  projectId */\n      dup1\n        /* \"contracts/OutsourcingPlatform.sol\":1763:1771  projects */\n      0x01\n        /* \"contracts/OutsourcingPlatform.sol\":1763:1782  projects[projectId] */\n      0x00\n        /* \"contracts/OutsourcingPlatform.sol\":1772:1781  projectId */\n      dup3\n        /* \"contracts/OutsourcingPlatform.sol\":1763:1782  projects[projectId] */\n      dup2\n      mstore\n      0x20\n      add\n      swap1\n      dup2\n      mstore\n      0x20\n      add\n      0x00\n      keccak256\n        /* \"contracts/OutsourcingPlatform.sol\":1763:1791  projects[projectId].employer */\n      0x00\n      add\n      0x00\n      swap1\n      sload\n      swap1\n      0x0100\n      exp\n      swap1\n      div\n      0xffffffffffffffffffffffffffffffffffffffff\n      and\n        /* \"contracts/OutsourcingPlatform.sol\":1749:1791  msg.sender == projects[projectId].employer */\n      0xffffffffffffffffffffffffffffffffffffffff\n      and\n        /* \"contracts/OutsourcingPlatform.sol\":1749:1759  msg.sender */\n      caller\n        /* \"contracts/OutsourcingPlatform.sol\":1749:1791  msg.sender == projects[projectId].employer */\n      0xffffffffffffffffffffffffffffffffffffffff\n      and\n      eq\n        /* \"contracts/OutsourcingPlatform.sol\":1741:1812  require(msg.sender == projects[projectId].employer, \"Not the employer\") */\n      tag_53\n      jumpi\n      mload(0x40)\n      0x08c379a000000000000000000000000000000000000000000000000000000000\n      dup2\n      mstore\n      0x04\n      add\n      tag_54\n      swap1\n      tag_55\n      jump\t// in\n    tag_54:\n      mload(0x40)\n      dup1\n      swap2\n      sub\n      swap1\n      revert\n    tag_53:\n        /* \"contracts/OutsourcingPlatform.sol\":1879:1885  locked */\n      0x02\n      0x00\n      swap1\n      sload\n      swap1\n      0x0100\n      exp\n      swap1\n      div\n      0xff\n      and\n        /* \"contracts/OutsourcingPlatform.sol\":1878:1885  !locked */\n      iszero\n        /* \"contracts/OutsourcingPlatform.sol\":1870:1909  require(!locked, \"Reentrancy detected\") */\n      tag_57\n      jumpi\n      mload(0x40)\n      0x08c379a000000000000000000000000000000000000000000000000000000000\n      dup2\n      mstore\n      0x04\n      add\n      tag_58\n      swap1\n      tag_59\n      jump\t// in\n    tag_58:\n      mload(0x40)\n      dup1\n      swap2\n      sub\n      swap1\n      revert\n    tag_57:\n        /* \"contracts/OutsourcingPlatform.sol\":1928:1932  true */\n      0x01\n        /* \"contracts/OutsourcingPlatform.sol\":1919:1925  locked */\n      0x02\n      0x00\n        /* \"contracts/OutsourcingPlatform.sol\":1919:1932  locked = true */\n      0x0100\n      exp\n      dup2\n      sload\n      dup2\n      0xff\n      mul\n      not\n      and\n      swap1\n      dup4\n      iszero\n      iszero\n      mul\n      or\n      swap1\n      sstore\n      pop\n        /* \"contracts/OutsourcingPlatform.sol\":3219:3242  Project storage project */\n      0x00\n        /* \"contracts/OutsourcingPlatform.sol\":3245:3253  projects */\n      0x01\n        /* \"contracts/OutsourcingPlatform.sol\":3245:3264  projects[projectId] */\n      0x00\n        /* \"contracts/OutsourcingPlatform.sol\":3254:3263  projectId */\n      dup5\n        /* \"contracts/OutsourcingPlatform.sol\":3245:3264  projects[projectId] */\n      dup2\n      mstore\n      0x20\n      add\n      swap1\n      dup2\n      mstore\n      0x20\n      add\n      0x00\n      keccak256\n        /* \"contracts/OutsourcingPlatform.sol\":3219:3264  Project storage project = projects[projectId] */\n      swap1\n      pop\n        /* \"contracts/OutsourcingPlatform.sol\":3283:3290  project */\n      dup1\n        /* \"contracts/OutsourcingPlatform.sol\":3283:3300  project.completed */\n      0x05\n      add\n      0x00\n      swap1\n      sload\n      swap1\n      0x0100\n      exp\n      swap1\n      div\n      0xff\n      and\n        /* \"contracts/OutsourcingPlatform.sol\":3282:3300  !project.completed */\n      iszero\n        /* \"contracts/OutsourcingPlatform.sol\":3274:3330  require(!project.completed, \"Project already completed\") */\n      tag_61\n      jumpi\n      mload(0x40)\n      0x08c379a000000000000000000000000000000000000000000000000000000000\n      dup2\n      mstore\n      0x04\n      add\n      tag_62\n      swap1\n      tag_63\n      jump\t// in\n    tag_62:\n      mload(0x40)\n      dup1\n      swap2\n      sub\n      swap1\n      revert\n    tag_61:\n        /* \"contracts/OutsourcingPlatform.sol\":3378:3379  0 */\n      0x00\n        /* \"contracts/OutsourcingPlatform.sol\":3348:3380  project.freelancer != address(0) */\n      0xffffffffffffffffffffffffffffffffffffffff\n      and\n        /* \"contracts/OutsourcingPlatform.sol\":3348:3355  project */\n      dup2\n        /* \"contracts/OutsourcingPlatform.sol\":3348:3366  project.freelancer */\n      0x03\n      add\n      0x00\n      swap1\n      sload\n      swap1\n      0x0100\n      exp\n      swap1\n      div\n      0xffffffffffffffffffffffffffffffffffffffff\n      and\n        /* \"contracts/OutsourcingPlatform.sol\":3348:3380  project.freelancer != address(0) */\n      0xffffffffffffffffffffffffffffffffffffffff\n      and\n      sub\n        /* \"contracts/OutsourcingPlatform.sol\":3340:3408  require(project.freelancer != address(0), \"Freelancer not assigned\") */\n      tag_64\n      jumpi\n      mload(0x40)\n      0x08c379a000000000000000000000000000000000000000000000000000000000\n      dup2\n      mstore\n      0x04\n      add\n      tag_65\n      swap1\n      tag_66\n      jump\t// in\n    tag_65:\n      mload(0x40)\n      dup1\n      swap2\n      sub\n      swap1\n      revert\n    tag_64:\n        /* \"contracts/OutsourcingPlatform.sol\":3439:3443  true */\n      0x01\n        /* \"contracts/OutsourcingPlatform.sol\":3419:3426  project */\n      dup2\n        /* \"contracts/OutsourcingPlatform.sol\":3419:3436  project.completed */\n      0x05\n      add\n      0x00\n        /* \"contracts/OutsourcingPlatform.sol\":3419:3443  project.completed = true */\n      0x0100\n      exp\n      dup2\n      sload\n      dup2\n      0xff\n      mul\n      not\n      and\n      swap1\n      dup4\n      iszero\n      iszero\n      mul\n      or\n      swap1\n      sstore\n      pop\n        /* \"contracts/OutsourcingPlatform.sol\":3455:3467  bool success */\n      0x00\n        /* \"contracts/OutsourcingPlatform.sol\":3473:3480  project */\n      dup2\n        /* \"contracts/OutsourcingPlatform.sol\":3473:3491  project.freelancer */\n      0x03\n      add\n      0x00\n      swap1\n      sload\n      swap1\n      0x0100\n      exp\n      swap1\n      div\n      0xffffffffffffffffffffffffffffffffffffffff\n      and\n        /* \"contracts/OutsourcingPlatform.sol\":3473:3496  project.freelancer.call */\n      0xffffffffffffffffffffffffffffffffffffffff\n      and\n        /* \"contracts/OutsourcingPlatform.sol\":3504:3511  project */\n      dup3\n        /* \"contracts/OutsourcingPlatform.sol\":3504:3518  project.budget */\n      0x01\n      add\n      sload\n        /* \"contracts/OutsourcingPlatform.sol\":3473:3523  project.freelancer.call{value: project.budget}(\"\") */\n      mload(0x40)\n      tag_67\n      swap1\n      tag_68\n      jump\t// in\n    tag_67:\n      0x00\n      mload(0x40)\n      dup1\n      dup4\n      sub\n      dup2\n      dup6\n      dup8\n      gas\n      call\n      swap3\n      pop\n      pop\n      pop\n      returndatasize\n      dup1\n      0x00\n      dup2\n      eq\n      tag_71\n      jumpi\n      mload(0x40)\n      swap2\n      pop\n      and(add(returndatasize, 0x3f), not(0x1f))\n      dup3\n      add\n      0x40\n      mstore\n      returndatasize\n      dup3\n      mstore\n      returndatasize\n      0x00\n      0x20\n      dup5\n      add\n      returndatacopy\n      jump(tag_70)\n    tag_71:\n      0x60\n      swap2\n      pop\n    tag_70:\n      pop\n        /* \"contracts/OutsourcingPlatform.sol\":3454:3523  (bool success, ) = project.freelancer.call{value: project.budget}(\"\") */\n      pop\n      swap1\n      pop\n        /* \"contracts/OutsourcingPlatform.sol\":3541:3548  success */\n      dup1\n        /* \"contracts/OutsourcingPlatform.sol\":3533:3568  require(success, \"Transfer failed\") */\n      tag_72\n      jumpi\n      mload(0x40)\n      0x08c379a000000000000000000000000000000000000000000000000000000000\n      dup2\n      mstore\n      0x04\n      add\n      tag_73\n      swap1\n      tag_74\n      jump\t// in\n    tag_73:\n      mload(0x40)\n      dup1\n      swap2\n      sub\n      swap1\n      revert\n    tag_72:\n        /* \"contracts/OutsourcingPlatform.sol\":3614:3621  project */\n      dup2\n        /* \"contracts/OutsourcingPlatform.sol\":3614:3632  project.freelancer */\n      0x03\n      add\n      0x00\n      swap1\n      sload\n      swap1\n      0x0100\n      exp\n      swap1\n      div\n      0xffffffffffffffffffffffffffffffffffffffff\n      and\n        /* \"contracts/OutsourcingPlatform.sol\":3584:3649  PaymentTransferred(projectId, project.freelancer, project.budget) */\n      0xffffffffffffffffffffffffffffffffffffffff\n      and\n        /* \"contracts/OutsourcingPlatform.sol\":3603:3612  projectId */\n      dup5\n        /* \"contracts/OutsourcingPlatform.sol\":3584:3649  PaymentTransferred(projectId, project.freelancer, project.budget) */\n      0x64768e2ac08926aed9a23761ef7cf9bb1c7d9971cfab10846bb88ceb9353c593\n        /* \"contracts/OutsourcingPlatform.sol\":3634:3641  project */\n      dup5\n        /* \"contracts/OutsourcingPlatform.sol\":3634:3648  project.budget */\n      0x01\n      add\n      sload\n        /* \"contracts/OutsourcingPlatform.sol\":3584:3649  PaymentTransferred(projectId, project.freelancer, project.budget) */\n      mload(0x40)\n      tag_75\n      swap2\n      swap1\n      tag_25\n      jump\t// in\n    tag_75:\n      mload(0x40)\n      dup1\n      swap2\n      sub\n      swap1\n      log3\n        /* \"contracts/OutsourcingPlatform.sol\":3209:3656  {... */\n      pop\n      pop\n        /* \"contracts/OutsourcingPlatform.sol\":1962:1967  false */\n      0x00\n        /* \"contracts/OutsourcingPlatform.sol\":1953:1959  locked */\n      0x02\n      0x00\n        /* \"contracts/OutsourcingPlatform.sol\":1953:1967  locked = false */\n      0x0100\n      exp\n      dup2\n      sload\n      dup2\n      0xff\n      mul\n      not\n      and\n      swap1\n      dup4\n      iszero\n      iszero\n      mul\n      or\n      swap1\n      sstore\n      pop\n        /* \"contracts/OutsourcingPlatform.sol\":3122:3656  function completeProject(uint projectId) external onlyEmployer(projectId) noReentrancy {... */\n      pop\n      pop\n      jump\t// out\n        /* \"contracts/OutsourcingPlatform.sol\":1314:1338  uint public projectCount */\n    tag_23:\n      sload(0x00)\n      dup2\n      jump\t// out\n        /* \"contracts/OutsourcingPlatform.sol\":3787:3910  function getProjectDetails(uint projectId) public view returns (Project memory) {... */\n    tag_29:\n        /* \"contracts/OutsourcingPlatform.sol\":3851:3865  Project memory */\n      tag_76\n      tag_77\n      jump\t// in\n    tag_76:\n        /* \"contracts/OutsourcingPlatform.sol\":3884:3892  projects */\n      0x01\n        /* \"contracts/OutsourcingPlatform.sol\":3884:3903  projects[projectId] */\n      0x00\n        /* \"contracts/OutsourcingPlatform.sol\":3893:3902  projectId */\n      dup4\n        /* \"contracts/OutsourcingPlatform.sol\":3884:3903  projects[projectId] */\n      dup2\n      mstore\n      0x20\n      add\n      swap1\n      dup2\n      mstore\n      0x20\n      add\n      0x00\n      keccak256\n        /* \"contracts/OutsourcingPlatform.sol\":3877:3903  return projects[projectId] */\n      mload(0x40)\n      dup1\n      0xc0\n      add\n      0x40\n      mstore\n      swap1\n      dup2\n      0x00\n      dup3\n      add\n      0x00\n      swap1\n      sload\n      swap1\n      0x0100\n      exp\n      swap1\n      div\n      0xffffffffffffffffffffffffffffffffffffffff\n      and\n      0xffffffffffffffffffffffffffffffffffffffff\n      and\n      0xffffffffffffffffffffffffffffffffffffffff\n      and\n      dup2\n      mstore\n      0x20\n      add\n      0x01\n      dup3\n      add\n      sload\n      dup2\n      mstore\n      0x20\n      add\n      0x02\n      dup3\n      add\n      dup1\n      sload\n      tag_79\n      swap1\n      tag_47\n      jump\t// in\n    tag_79:\n      dup1\n      0x1f\n      add\n      0x20\n      dup1\n      swap2\n      div\n      mul\n      0x20\n      add\n      mload(0x40)\n      swap1\n      dup2\n      add\n      0x40\n      mstore\n      dup1\n      swap3\n      swap2\n      swap1\n      dup2\n      dup2\n      mstore\n      0x20\n      add\n      dup3\n      dup1\n      sload\n      tag_80\n      swap1\n      tag_47\n      jump\t// in\n    tag_80:\n      dup1\n      iszero\n      tag_81\n      jumpi\n      dup1\n      0x1f\n      lt\n      tag_82\n      jumpi\n      0x0100\n      dup1\n      dup4\n      sload\n      div\n      mul\n      dup4\n      mstore\n      swap2\n      0x20\n      add\n      swap2\n      jump(tag_81)\n    tag_82:\n      dup3\n      add\n      swap2\n      swap1\n      0x00\n      mstore\n      keccak256(0x00, 0x20)\n      swap1\n    tag_83:\n      dup2\n      sload\n      dup2\n      mstore\n      swap1\n      0x01\n      add\n      swap1\n      0x20\n      add\n      dup1\n      dup4\n      gt\n      tag_83\n      jumpi\n      dup3\n      swap1\n      sub\n      0x1f\n      and\n      dup3\n      add\n      swap2\n    tag_81:\n      pop\n      pop\n      pop\n      pop\n      pop\n      dup2\n      mstore\n      0x20\n      add\n      0x03\n      dup3\n      add\n      0x00\n      swap1\n      sload\n      swap1\n      0x0100\n      exp\n      swap1\n      div\n      0xffffffffffffffffffffffffffffffffffffffff\n      and\n      0xffffffffffffffffffffffffffffffffffffffff\n      and\n      0xffffffffffffffffffffffffffffffffffffffff\n      and\n      dup2\n      mstore\n      0x20\n      add\n      0x04\n      dup3\n      add\n      sload\n      dup2\n      mstore\n      0x20\n      add\n      0x05\n      dup3\n      add\n      0x00\n      swap1\n      sload\n      swap1\n      0x0100\n      exp\n      swap1\n      div\n      0xff\n      and\n      iszero\n      iszero\n      iszero\n      iszero\n      dup2\n      mstore\n      pop\n      pop\n      swap1\n      pop\n        /* \"contracts/OutsourcingPlatform.sol\":3787:3910  function getProjectDetails(uint projectId) public view returns (Project memory) {... */\n      swap2\n      swap1\n      pop\n      jump\t// out\n        /* \"contracts/OutsourcingPlatform.sol\":3662:3781  function calculateFee(uint amount) public pure returns (uint) {... */\n    tag_35:\n        /* \"contracts/OutsourcingPlatform.sol\":3718:3722  uint */\n      0x00\n        /* \"contracts/OutsourcingPlatform.sol\":3756:3759  100 */\n      0x64\n        /* \"contracts/OutsourcingPlatform.sol\":3751:3752  5 */\n      0x05\n        /* \"contracts/OutsourcingPlatform.sol\":3742:3748  amount */\n      dup4\n        /* \"contracts/OutsourcingPlatform.sol\":3742:3752  amount * 5 */\n      tag_85\n      swap2\n      swap1\n      tag_86\n      jump\t// in\n    tag_85:\n        /* \"contracts/OutsourcingPlatform.sol\":3741:3759  (amount * 5) / 100 */\n      tag_87\n      swap2\n      swap1\n      tag_88\n      jump\t// in\n    tag_87:\n        /* \"contracts/OutsourcingPlatform.sol\":3734:3759  return (amount * 5) / 100 */\n      swap1\n      pop\n        /* \"contracts/OutsourcingPlatform.sol\":3662:3781  function calculateFee(uint amount) public pure returns (uint) {... */\n      swap2\n      swap1\n      pop\n      jump\t// out\n        /* \"contracts/OutsourcingPlatform.sol\":2699:3116  function assignFreelancer(uint projectId, address freelancer) external onlyEmployer(projectId) {... */\n    tag_41:\n        /* \"contracts/OutsourcingPlatform.sol\":2783:2792  projectId */\n      dup2\n        /* \"contracts/OutsourcingPlatform.sol\":1763:1771  projects */\n      0x01\n        /* \"contracts/OutsourcingPlatform.sol\":1763:1782  projects[projectId] */\n      0x00\n        /* \"contracts/OutsourcingPlatform.sol\":1772:1781  projectId */\n      dup3\n        /* \"contracts/OutsourcingPlatform.sol\":1763:1782  projects[projectId] */\n      dup2\n      mstore\n      0x20\n      add\n      swap1\n      dup2\n      mstore\n      0x20\n      add\n      0x00\n      keccak256\n        /* \"contracts/OutsourcingPlatform.sol\":1763:1791  projects[projectId].employer */\n      0x00\n      add\n      0x00\n      swap1\n      sload\n      swap1\n      0x0100\n      exp\n      swap1\n      div\n      0xffffffffffffffffffffffffffffffffffffffff\n      and\n        /* \"contracts/OutsourcingPlatform.sol\":1749:1791  msg.sender == projects[projectId].employer */\n      0xffffffffffffffffffffffffffffffffffffffff\n      and\n        /* \"contracts/OutsourcingPlatform.sol\":1749:1759  msg.sender */\n      caller\n        /* \"contracts/OutsourcingPlatform.sol\":1749:1791  msg.sender == projects[projectId].employer */\n      0xffffffffffffffffffffffffffffffffffffffff\n      and\n      eq\n        /* \"contracts/OutsourcingPlatform.sol\":1741:1812  require(msg.sender == projects[projectId].employer, \"Not the employer\") */\n      tag_90\n      jumpi\n      mload(0x40)\n      0x08c379a000000000000000000000000000000000000000000000000000000000\n      dup2\n      mstore\n      0x04\n      add\n      tag_91\n      swap1\n      tag_55\n      jump\t// in\n    tag_91:\n      mload(0x40)\n      dup1\n      swap2\n      sub\n      swap1\n      revert\n    tag_90:\n        /* \"contracts/OutsourcingPlatform.sol\":2804:2827  Project storage project */\n      0x00\n        /* \"contracts/OutsourcingPlatform.sol\":2830:2838  projects */\n      0x01\n        /* \"contracts/OutsourcingPlatform.sol\":2830:2849  projects[projectId] */\n      0x00\n        /* \"contracts/OutsourcingPlatform.sol\":2839:2848  projectId */\n      dup6\n        /* \"contracts/OutsourcingPlatform.sol\":2830:2849  projects[projectId] */\n      dup2\n      mstore\n      0x20\n      add\n      swap1\n      dup2\n      mstore\n      0x20\n      add\n      0x00\n      keccak256\n        /* \"contracts/OutsourcingPlatform.sol\":2804:2849  Project storage project = projects[projectId] */\n      swap1\n      pop\n        /* \"contracts/OutsourcingPlatform.sol\":2897:2898  0 */\n      0x00\n        /* \"contracts/OutsourcingPlatform.sol\":2867:2899  project.freelancer == address(0) */\n      0xffffffffffffffffffffffffffffffffffffffff\n      and\n        /* \"contracts/OutsourcingPlatform.sol\":2867:2874  project */\n      dup2\n        /* \"contracts/OutsourcingPlatform.sol\":2867:2885  project.freelancer */\n      0x03\n      add\n      0x00\n      swap1\n      sload\n      swap1\n      0x0100\n      exp\n      swap1\n      div\n      0xffffffffffffffffffffffffffffffffffffffff\n      and\n        /* \"contracts/OutsourcingPlatform.sol\":2867:2899  project.freelancer == address(0) */\n      0xffffffffffffffffffffffffffffffffffffffff\n      and\n      eq\n        /* \"contracts/OutsourcingPlatform.sol\":2859:2931  require(project.freelancer == address(0), \"Freelancer already assigned\") */\n      tag_93\n      jumpi\n      mload(0x40)\n      0x08c379a000000000000000000000000000000000000000000000000000000000\n      dup2\n      mstore\n      0x04\n      add\n      tag_94\n      swap1\n      tag_95\n      jump\t// in\n    tag_94:\n      mload(0x40)\n      dup1\n      swap2\n      sub\n      swap1\n      revert\n    tag_93:\n        /* \"contracts/OutsourcingPlatform.sol\":2967:2974  project */\n      dup1\n        /* \"contracts/OutsourcingPlatform.sol\":2967:2983  project.deadline */\n      0x04\n      add\n      sload\n        /* \"contracts/OutsourcingPlatform.sol\":2949:2964  block.timestamp */\n      timestamp\n        /* \"contracts/OutsourcingPlatform.sol\":2949:2983  block.timestamp < project.deadline */\n      lt\n        /* \"contracts/OutsourcingPlatform.sol\":2941:3011  require(block.timestamp < project.deadline, \"Project deadline passed\") */\n      tag_96\n      jumpi\n      mload(0x40)\n      0x08c379a000000000000000000000000000000000000000000000000000000000\n      dup2\n      mstore\n      0x04\n      add\n      tag_97\n      swap1\n      tag_98\n      jump\t// in\n    tag_97:\n      mload(0x40)\n      dup1\n      swap2\n      sub\n      swap1\n      revert\n    tag_96:\n        /* \"contracts/OutsourcingPlatform.sol\":3043:3053  freelancer */\n      dup3\n        /* \"contracts/OutsourcingPlatform.sol\":3022:3029  project */\n      dup2\n        /* \"contracts/OutsourcingPlatform.sol\":3022:3040  project.freelancer */\n      0x03\n      add\n      0x00\n        /* \"contracts/OutsourcingPlatform.sol\":3022:3053  project.freelancer = freelancer */\n      0x0100\n      exp\n      dup2\n      sload\n      dup2\n      0xffffffffffffffffffffffffffffffffffffffff\n      mul\n      not\n      and\n      swap1\n      dup4\n      0xffffffffffffffffffffffffffffffffffffffff\n      and\n      mul\n      or\n      swap1\n      sstore\n      pop\n        /* \"contracts/OutsourcingPlatform.sol\":3098:3108  freelancer */\n      dup3\n        /* \"contracts/OutsourcingPlatform.sol\":3068:3109  FreelancerAssigned(projectId, freelancer) */\n      0xffffffffffffffffffffffffffffffffffffffff\n      and\n        /* \"contracts/OutsourcingPlatform.sol\":3087:3096  projectId */\n      dup5\n        /* \"contracts/OutsourcingPlatform.sol\":3068:3109  FreelancerAssigned(projectId, freelancer) */\n      0xf0ea83e301e371212b367969fc7bee10788f52b26d7301f78a04c0209b7a5113\n      mload(0x40)\n      mload(0x40)\n      dup1\n      swap2\n      sub\n      swap1\n      log3\n        /* \"contracts/OutsourcingPlatform.sol\":2794:3116  {... */\n      pop\n        /* \"contracts/OutsourcingPlatform.sol\":2699:3116  function assignFreelancer(uint projectId, address freelancer) external onlyEmployer(projectId) {... */\n      pop\n      pop\n      pop\n      jump\t// out\n        /* \"contracts/OutsourcingPlatform.sol\":2006:2693  function createProject(string memory description, uint budget, uint deadline) external payable {... */\n    tag_45:\n        /* \"contracts/OutsourcingPlatform.sol\":2132:2138  budget */\n      dup2\n        /* \"contracts/OutsourcingPlatform.sol\":2119:2128  msg.value */\n      callvalue\n        /* \"contracts/OutsourcingPlatform.sol\":2119:2138  msg.value == budget */\n      eq\n        /* \"contracts/OutsourcingPlatform.sol\":2111:2169  require(msg.value == budget, \"Budget must match sent ETH\") */\n      tag_100\n      jumpi\n      mload(0x40)\n      0x08c379a000000000000000000000000000000000000000000000000000000000\n      dup2\n      mstore\n      0x04\n      add\n      tag_101\n      swap1\n      tag_102\n      jump\t// in\n    tag_101:\n      mload(0x40)\n      dup1\n      swap2\n      sub\n      swap1\n      revert\n    tag_100:\n        /* \"contracts/OutsourcingPlatform.sol\":2215:2217  10 */\n      0x0a\n        /* \"contracts/OutsourcingPlatform.sol\":2193:2204  description */\n      dup4\n        /* \"contracts/OutsourcingPlatform.sol\":2187:2212  bytes(description).length */\n      mload\n        /* \"contracts/OutsourcingPlatform.sol\":2187:2217  bytes(description).length > 10 */\n      gt\n        /* \"contracts/OutsourcingPlatform.sol\":2179:2243  require(bytes(description).length > 10, \"Description too short\") */\n      tag_103\n      jumpi\n      mload(0x40)\n      0x08c379a000000000000000000000000000000000000000000000000000000000\n      dup2\n      mstore\n      0x04\n      add\n      tag_104\n      swap1\n      tag_105\n      jump\t// in\n    tag_104:\n      mload(0x40)\n      dup1\n      swap2\n      sub\n      swap1\n      revert\n    tag_103:\n        /* \"contracts/OutsourcingPlatform.sol\":2272:2287  block.timestamp */\n      timestamp\n        /* \"contracts/OutsourcingPlatform.sol\":2261:2269  deadline */\n      dup2\n        /* \"contracts/OutsourcingPlatform.sol\":2261:2287  deadline > block.timestamp */\n      gt\n        /* \"contracts/OutsourcingPlatform.sol\":2253:2322  require(deadline > block.timestamp, \"Deadline must be in the future\") */\n      tag_106\n      jumpi\n      mload(0x40)\n      0x08c379a000000000000000000000000000000000000000000000000000000000\n      dup2\n      mstore\n      0x04\n      add\n      tag_107\n      swap1\n      tag_108\n      jump\t// in\n    tag_107:\n      mload(0x40)\n      dup1\n      swap2\n      sub\n      swap1\n      revert\n    tag_106:\n        /* \"contracts/OutsourcingPlatform.sol\":2358:2575  Project({... */\n      mload(0x40)\n      dup1\n      0xc0\n      add\n      0x40\n      mstore\n      dup1\n        /* \"contracts/OutsourcingPlatform.sol\":2390:2400  msg.sender */\n      caller\n        /* \"contracts/OutsourcingPlatform.sol\":2358:2575  Project({... */\n      0xffffffffffffffffffffffffffffffffffffffff\n      and\n      dup2\n      mstore\n      0x20\n      add\n        /* \"contracts/OutsourcingPlatform.sol\":2422:2428  budget */\n      dup4\n        /* \"contracts/OutsourcingPlatform.sol\":2358:2575  Project({... */\n      dup2\n      mstore\n      0x20\n      add\n        /* \"contracts/OutsourcingPlatform.sol\":2455:2466  description */\n      dup5\n        /* \"contracts/OutsourcingPlatform.sol\":2358:2575  Project({... */\n      dup2\n      mstore\n      0x20\n      add\n        /* \"contracts/OutsourcingPlatform.sol\":2500:2501  0 */\n      0x00\n        /* \"contracts/OutsourcingPlatform.sol\":2358:2575  Project({... */\n      0xffffffffffffffffffffffffffffffffffffffff\n      and\n      dup2\n      mstore\n      0x20\n      add\n        /* \"contracts/OutsourcingPlatform.sol\":2526:2534  deadline */\n      dup3\n        /* \"contracts/OutsourcingPlatform.sol\":2358:2575  Project({... */\n      dup2\n      mstore\n      0x20\n      add\n        /* \"contracts/OutsourcingPlatform.sol\":2559:2564  false */\n      0x00\n        /* \"contracts/OutsourcingPlatform.sol\":2358:2575  Project({... */\n      iszero\n      iszero\n      dup2\n      mstore\n      pop\n        /* \"contracts/OutsourcingPlatform.sol\":2333:2341  projects */\n      0x01\n        /* \"contracts/OutsourcingPlatform.sol\":2333:2355  projects[projectCount] */\n      0x00\n        /* \"contracts/OutsourcingPlatform.sol\":2342:2354  projectCount */\n      dup1\n      sload\n        /* \"contracts/OutsourcingPlatform.sol\":2333:2355  projects[projectCount] */\n      dup2\n      mstore\n      0x20\n      add\n      swap1\n      dup2\n      mstore\n      0x20\n      add\n      0x00\n      keccak256\n        /* \"contracts/OutsourcingPlatform.sol\":2333:2575  projects[projectCount] = Project({... */\n      0x00\n      dup3\n      add\n      mload\n      dup2\n      0x00\n      add\n      exp(0x0100, 0x00)\n      dup2\n      sload\n      dup2\n      0xffffffffffffffffffffffffffffffffffffffff\n      mul\n      not\n      and\n      swap1\n      dup4\n      0xffffffffffffffffffffffffffffffffffffffff\n      and\n      mul\n      or\n      swap1\n      sstore\n      pop\n      0x20\n      dup3\n      add\n      mload\n      dup2\n      0x01\n      add\n      sstore\n      0x40\n      dup3\n      add\n      mload\n      dup2\n      0x02\n      add\n      swap1\n      dup2\n      tag_109\n      swap2\n      swap1\n      tag_110\n      jump\t// in\n    tag_109:\n      pop\n      0x60\n      dup3\n      add\n      mload\n      dup2\n      0x03\n      add\n      exp(0x0100, 0x00)\n      dup2\n      sload\n      dup2\n      0xffffffffffffffffffffffffffffffffffffffff\n      mul\n      not\n      and\n      swap1\n      dup4\n      0xffffffffffffffffffffffffffffffffffffffff\n      and\n      mul\n      or\n      swap1\n      sstore\n      pop\n      0x80\n      dup3\n      add\n      mload\n      dup2\n      0x04\n      add\n      sstore\n      0xa0\n      dup3\n      add\n      mload\n      dup2\n      0x05\n      add\n      exp(0x0100, 0x00)\n      dup2\n      sload\n      dup2\n      0xff\n      mul\n      not\n      and\n      swap1\n      dup4\n      iszero\n      iszero\n      mul\n      or\n      swap1\n      sstore\n      pop\n      swap1\n      pop\n      pop\n        /* \"contracts/OutsourcingPlatform.sol\":2620:2630  msg.sender */\n      caller\n        /* \"contracts/OutsourcingPlatform.sol\":2591:2662  ProjectCreated(projectCount, msg.sender, budget, description, deadline) */\n      0xffffffffffffffffffffffffffffffffffffffff\n      and\n        /* \"contracts/OutsourcingPlatform.sol\":2606:2618  projectCount */\n      sload(0x00)\n        /* \"contracts/OutsourcingPlatform.sol\":2591:2662  ProjectCreated(projectCount, msg.sender, budget, description, deadline) */\n      0x8a65baedf6e1483326be76d39e27c426d213a6461887c0cc57401dcd487978ab\n        /* \"contracts/OutsourcingPlatform.sol\":2632:2638  budget */\n      dup5\n        /* \"contracts/OutsourcingPlatform.sol\":2640:2651  description */\n      dup7\n        /* \"contracts/OutsourcingPlatform.sol\":2653:2661  deadline */\n      dup6\n        /* \"contracts/OutsourcingPlatform.sol\":2591:2662  ProjectCreated(projectCount, msg.sender, budget, description, deadline) */\n      mload(0x40)\n      tag_111\n      swap4\n      swap3\n      swap2\n      swap1\n      tag_112\n      jump\t// in\n    tag_111:\n      mload(0x40)\n      dup1\n      swap2\n      sub\n      swap1\n      log3\n        /* \"contracts/OutsourcingPlatform.sol\":2672:2684  projectCount */\n      0x00\n      dup1\n        /* \"contracts/OutsourcingPlatform.sol\":2672:2686  projectCount++ */\n      dup2\n      sload\n      dup1\n      swap3\n      swap2\n      swap1\n      tag_113\n      swap1\n      tag_114\n      jump\t// in\n    tag_113:\n      swap2\n      swap1\n      pop\n      sstore\n      pop\n        /* \"contracts/OutsourcingPlatform.sol\":2006:2693  function createProject(string memory description, uint budget, uint deadline) external payable {... */\n      pop\n      pop\n      pop\n      jump\t// out\n    tag_77:\n      mload(0x40)\n      dup1\n      0xc0\n      add\n      0x40\n      mstore\n      dup1\n      and(0xffffffffffffffffffffffffffffffffffffffff, 0x00)\n      dup2\n      mstore\n      0x20\n      add\n      0x00\n      dup2\n      mstore\n      0x20\n      add\n      0x60\n      dup2\n      mstore\n      0x20\n      add\n      and(0xffffffffffffffffffffffffffffffffffffffff, 0x00)\n      dup2\n      mstore\n      0x20\n      add\n      0x00\n      dup2\n      mstore\n      0x20\n      add\n      iszero(iszero(0x00))\n      dup2\n      mstore\n      pop\n      swap1\n      jump\t// out\n        /* \"#utility.yul\":7:82   */\n    tag_115:\n        /* \"#utility.yul\":40:46   */\n      0x00\n        /* \"#utility.yul\":73:75   */\n      0x40\n        /* \"#utility.yul\":67:76   */\n      mload\n        /* \"#utility.yul\":57:76   */\n      swap1\n      pop\n        /* \"#utility.yul\":7:82   */\n      swap1\n      jump\t// out\n        /* \"#utility.yul\":88:205   */\n    tag_116:\n        /* \"#utility.yul\":197:198   */\n      0x00\n        /* \"#utility.yul\":194:195   */\n      dup1\n        /* \"#utility.yul\":187:199   */\n      revert\n        /* \"#utility.yul\":211:328   */\n    tag_117:\n        /* \"#utility.yul\":320:321   */\n      0x00\n        /* \"#utility.yul\":317:318   */\n      dup1\n        /* \"#utility.yul\":310:322   */\n      revert\n        /* \"#utility.yul\":334:411   */\n    tag_118:\n        /* \"#utility.yul\":371:378   */\n      0x00\n        /* \"#utility.yul\":400:405   */\n      dup2\n        /* \"#utility.yul\":389:405   */\n      swap1\n      pop\n        /* \"#utility.yul\":334:411   */\n      swap2\n      swap1\n      pop\n      jump\t// out\n        /* \"#utility.yul\":417:539   */\n    tag_119:\n        /* \"#utility.yul\":490:514   */\n      tag_196\n        /* \"#utility.yul\":508:513   */\n      dup2\n        /* \"#utility.yul\":490:514   */\n      tag_118\n      jump\t// in\n    tag_196:\n        /* \"#utility.yul\":483:488   */\n      dup2\n        /* \"#utility.yul\":480:515   */\n      eq\n        /* \"#utility.yul\":470:533   */\n      tag_197\n      jumpi\n        /* \"#utility.yul\":529:530   */\n      0x00\n        /* \"#utility.yul\":526:527   */\n      dup1\n        /* \"#utility.yul\":519:531   */\n      revert\n        /* \"#utility.yul\":470:533   */\n    tag_197:\n        /* \"#utility.yul\":417:539   */\n      pop\n      jump\t// out\n        /* \"#utility.yul\":545:684   */\n    tag_120:\n        /* \"#utility.yul\":591:596   */\n      0x00\n        /* \"#utility.yul\":629:635   */\n      dup2\n        /* \"#utility.yul\":616:636   */\n      calldataload\n        /* \"#utility.yul\":607:636   */\n      swap1\n      pop\n        /* \"#utility.yul\":645:678   */\n      tag_199\n        /* \"#utility.yul\":672:677   */\n      dup2\n        /* \"#utility.yul\":645:678   */\n      tag_119\n      jump\t// in\n    tag_199:\n        /* \"#utility.yul\":545:684   */\n      swap3\n      swap2\n      pop\n      pop\n      jump\t// out\n        /* \"#utility.yul\":690:1019   */\n    tag_13:\n        /* \"#utility.yul\":749:755   */\n      0x00\n        /* \"#utility.yul\":798:800   */\n      0x20\n        /* \"#utility.yul\":786:795   */\n      dup3\n        /* \"#utility.yul\":777:784   */\n      dup5\n        /* \"#utility.yul\":773:796   */\n      sub\n        /* \"#utility.yul\":769:801   */\n      slt\n        /* \"#utility.yul\":766:885   */\n      iszero\n      tag_201\n      jumpi\n        /* \"#utility.yul\":804:883   */\n      tag_202\n      tag_116\n      jump\t// in\n    tag_202:\n        /* \"#utility.yul\":766:885   */\n    tag_201:\n        /* \"#utility.yul\":924:925   */\n      0x00\n        /* \"#utility.yul\":949:1002   */\n      tag_203\n        /* \"#utility.yul\":994:1001   */\n      dup5\n        /* \"#utility.yul\":985:991   */\n      dup3\n        /* \"#utility.yul\":974:983   */\n      dup6\n        /* \"#utility.yul\":970:992   */\n      add\n        /* \"#utility.yul\":949:1002   */\n      tag_120\n      jump\t// in\n    tag_203:\n        /* \"#utility.yul\":939:1002   */\n      swap2\n      pop\n        /* \"#utility.yul\":895:1012   */\n      pop\n        /* \"#utility.yul\":690:1019   */\n      swap3\n      swap2\n      pop\n      pop\n      jump\t// out\n        /* \"#utility.yul\":1025:1151   */\n    tag_121:\n        /* \"#utility.yul\":1062:1069   */\n      0x00\n        /* \"#utility.yul\":1102:1144   */\n      0xffffffffffffffffffffffffffffffffffffffff\n        /* \"#utility.yul\":1095:1100   */\n      dup3\n        /* \"#utility.yul\":1091:1145   */\n      and\n        /* \"#utility.yul\":1080:1145   */\n      swap1\n      pop\n        /* \"#utility.yul\":1025:1151   */\n      swap2\n      swap1\n      pop\n      jump\t// out\n        /* \"#utility.yul\":1157:1253   */\n    tag_122:\n        /* \"#utility.yul\":1194:1201   */\n      0x00\n        /* \"#utility.yul\":1223:1247   */\n      tag_206\n        /* \"#utility.yul\":1241:1246   */\n      dup3\n        /* \"#utility.yul\":1223:1247   */\n      tag_121\n      jump\t// in\n    tag_206:\n        /* \"#utility.yul\":1212:1247   */\n      swap1\n      pop\n        /* \"#utility.yul\":1157:1253   */\n      swap2\n      swap1\n      pop\n      jump\t// out\n        /* \"#utility.yul\":1259:1377   */\n    tag_123:\n        /* \"#utility.yul\":1346:1370   */\n      tag_208\n        /* \"#utility.yul\":1364:1369   */\n      dup2\n        /* \"#utility.yul\":1346:1370   */\n      tag_122\n      jump\t// in\n    tag_208:\n        /* \"#utility.yul\":1341:1344   */\n      dup3\n        /* \"#utility.yul\":1334:1371   */\n      mstore\n        /* \"#utility.yul\":1259:1377   */\n      pop\n      pop\n      jump\t// out\n        /* \"#utility.yul\":1383:1501   */\n    tag_124:\n        /* \"#utility.yul\":1470:1494   */\n      tag_210\n        /* \"#utility.yul\":1488:1493   */\n      dup2\n        /* \"#utility.yul\":1470:1494   */\n      tag_118\n      jump\t// in\n    tag_210:\n        /* \"#utility.yul\":1465:1468   */\n      dup3\n        /* \"#utility.yul\":1458:1495   */\n      mstore\n        /* \"#utility.yul\":1383:1501   */\n      pop\n      pop\n      jump\t// out\n        /* \"#utility.yul\":1507:1606   */\n    tag_125:\n        /* \"#utility.yul\":1559:1565   */\n      0x00\n        /* \"#utility.yul\":1593:1598   */\n      dup2\n        /* \"#utility.yul\":1587:1599   */\n      mload\n        /* \"#utility.yul\":1577:1599   */\n      swap1\n      pop\n        /* \"#utility.yul\":1507:1606   */\n      swap2\n      swap1\n      pop\n      jump\t// out\n        /* \"#utility.yul\":1612:1781   */\n    tag_126:\n        /* \"#utility.yul\":1696:1707   */\n      0x00\n        /* \"#utility.yul\":1730:1736   */\n      dup3\n        /* \"#utility.yul\":1725:1728   */\n      dup3\n        /* \"#utility.yul\":1718:1737   */\n      mstore\n        /* \"#utility.yul\":1770:1774   */\n      0x20\n        /* \"#utility.yul\":1765:1768   */\n      dup3\n        /* \"#utility.yul\":1761:1775   */\n      add\n        /* \"#utility.yul\":1746:1775   */\n      swap1\n      pop\n        /* \"#utility.yul\":1612:1781   */\n      swap3\n      swap2\n      pop\n      pop\n      jump\t// out\n        /* \"#utility.yul\":1787:1926   */\n    tag_127:\n        /* \"#utility.yul\":1876:1882   */\n      dup3\n        /* \"#utility.yul\":1871:1874   */\n      dup2\n        /* \"#utility.yul\":1866:1869   */\n      dup4\n        /* \"#utility.yul\":1860:1883   */\n      mcopy\n        /* \"#utility.yul\":1917:1918   */\n      0x00\n        /* \"#utility.yul\":1908:1914   */\n      dup4\n        /* \"#utility.yul\":1903:1906   */\n      dup4\n        /* \"#utility.yul\":1899:1915   */\n      add\n        /* \"#utility.yul\":1892:1919   */\n      mstore\n        /* \"#utility.yul\":1787:1926   */\n      pop\n      pop\n      pop\n      jump\t// out\n        /* \"#utility.yul\":1932:2034   */\n    tag_128:\n        /* \"#utility.yul\":1973:1979   */\n      0x00\n        /* \"#utility.yul\":2024:2026   */\n      0x1f\n        /* \"#utility.yul\":2020:2027   */\n      not\n        /* \"#utility.yul\":2015:2017   */\n      0x1f\n        /* \"#utility.yul\":2008:2013   */\n      dup4\n        /* \"#utility.yul\":2004:2018   */\n      add\n        /* \"#utility.yul\":2000:2028   */\n      and\n        /* \"#utility.yul\":1990:2028   */\n      swap1\n      pop\n        /* \"#utility.yul\":1932:2034   */\n      swap2\n      swap1\n      pop\n      jump\t// out\n        /* \"#utility.yul\":2040:2417   */\n    tag_129:\n        /* \"#utility.yul\":2128:2131   */\n      0x00\n        /* \"#utility.yul\":2156:2195   */\n      tag_216\n        /* \"#utility.yul\":2189:2194   */\n      dup3\n        /* \"#utility.yul\":2156:2195   */\n      tag_125\n      jump\t// in\n    tag_216:\n        /* \"#utility.yul\":2211:2282   */\n      tag_217\n        /* \"#utility.yul\":2275:2281   */\n      dup2\n        /* \"#utility.yul\":2270:2273   */\n      dup6\n        /* \"#utility.yul\":2211:2282   */\n      tag_126\n      jump\t// in\n    tag_217:\n        /* \"#utility.yul\":2204:2282   */\n      swap4\n      pop\n        /* \"#utility.yul\":2291:2356   */\n      tag_218\n        /* \"#utility.yul\":2349:2355   */\n      dup2\n        /* \"#utility.yul\":2344:2347   */\n      dup6\n        /* \"#utility.yul\":2337:2341   */\n      0x20\n        /* \"#utility.yul\":2330:2335   */\n      dup7\n        /* \"#utility.yul\":2326:2342   */\n      add\n        /* \"#utility.yul\":2291:2356   */\n      tag_127\n      jump\t// in\n    tag_218:\n        /* \"#utility.yul\":2381:2410   */\n      tag_219\n        /* \"#utility.yul\":2403:2409   */\n      dup2\n        /* \"#utility.yul\":2381:2410   */\n      tag_128\n      jump\t// in\n    tag_219:\n        /* \"#utility.yul\":2376:2379   */\n      dup5\n        /* \"#utility.yul\":2372:2411   */\n      add\n        /* \"#utility.yul\":2365:2411   */\n      swap2\n      pop\n        /* \"#utility.yul\":2132:2417   */\n      pop\n        /* \"#utility.yul\":2040:2417   */\n      swap3\n      swap2\n      pop\n      pop\n      jump\t// out\n        /* \"#utility.yul\":2423:2513   */\n    tag_130:\n        /* \"#utility.yul\":2457:2464   */\n      0x00\n        /* \"#utility.yul\":2500:2505   */\n      dup2\n        /* \"#utility.yul\":2493:2506   */\n      iszero\n        /* \"#utility.yul\":2486:2507   */\n      iszero\n        /* \"#utility.yul\":2475:2507   */\n      swap1\n      pop\n        /* \"#utility.yul\":2423:2513   */\n      swap2\n      swap1\n      pop\n      jump\t// out\n        /* \"#utility.yul\":2519:2628   */\n    tag_131:\n        /* \"#utility.yul\":2600:2621   */\n      tag_222\n        /* \"#utility.yul\":2615:2620   */\n      dup2\n        /* \"#utility.yul\":2600:2621   */\n      tag_130\n      jump\t// in\n    tag_222:\n        /* \"#utility.yul\":2595:2598   */\n      dup3\n        /* \"#utility.yul\":2588:2622   */\n      mstore\n        /* \"#utility.yul\":2519:2628   */\n      pop\n      pop\n      jump\t// out\n        /* \"#utility.yul\":2634:3488   */\n    tag_16:\n        /* \"#utility.yul\":2881:2885   */\n      0x00\n        /* \"#utility.yul\":2919:2922   */\n      0xc0\n        /* \"#utility.yul\":2908:2917   */\n      dup3\n        /* \"#utility.yul\":2904:2923   */\n      add\n        /* \"#utility.yul\":2896:2923   */\n      swap1\n      pop\n        /* \"#utility.yul\":2933:3004   */\n      tag_224\n        /* \"#utility.yul\":3001:3002   */\n      0x00\n        /* \"#utility.yul\":2990:2999   */\n      dup4\n        /* \"#utility.yul\":2986:3003   */\n      add\n        /* \"#utility.yul\":2977:2983   */\n      dup10\n        /* \"#utility.yul\":2933:3004   */\n      tag_123\n      jump\t// in\n    tag_224:\n        /* \"#utility.yul\":3014:3086   */\n      tag_225\n        /* \"#utility.yul\":3082:3084   */\n      0x20\n        /* \"#utility.yul\":3071:3080   */\n      dup4\n        /* \"#utility.yul\":3067:3085   */\n      add\n        /* \"#utility.yul\":3058:3064   */\n      dup9\n        /* \"#utility.yul\":3014:3086   */\n      tag_124\n      jump\t// in\n    tag_225:\n        /* \"#utility.yul\":3133:3142   */\n      dup2\n        /* \"#utility.yul\":3127:3131   */\n      dup2\n        /* \"#utility.yul\":3123:3143   */\n      sub\n        /* \"#utility.yul\":3118:3120   */\n      0x40\n        /* \"#utility.yul\":3107:3116   */\n      dup4\n        /* \"#utility.yul\":3103:3121   */\n      add\n        /* \"#utility.yul\":3096:3144   */\n      mstore\n        /* \"#utility.yul\":3161:3239   */\n      tag_226\n        /* \"#utility.yul\":3234:3238   */\n      dup2\n        /* \"#utility.yul\":3225:3231   */\n      dup8\n        /* \"#utility.yul\":3161:3239   */\n      tag_129\n      jump\t// in\n    tag_226:\n        /* \"#utility.yul\":3153:3239   */\n      swap1\n      pop\n        /* \"#utility.yul\":3249:3321   */\n      tag_227\n        /* \"#utility.yul\":3317:3319   */\n      0x60\n        /* \"#utility.yul\":3306:3315   */\n      dup4\n        /* \"#utility.yul\":3302:3320   */\n      add\n        /* \"#utility.yul\":3293:3299   */\n      dup7\n        /* \"#utility.yul\":3249:3321   */\n      tag_123\n      jump\t// in\n    tag_227:\n        /* \"#utility.yul\":3331:3404   */\n      tag_228\n        /* \"#utility.yul\":3399:3402   */\n      0x80\n        /* \"#utility.yul\":3388:3397   */\n      dup4\n        /* \"#utility.yul\":3384:3403   */\n      add\n        /* \"#utility.yul\":3375:3381   */\n      dup6\n        /* \"#utility.yul\":3331:3404   */\n      tag_124\n      jump\t// in\n    tag_228:\n        /* \"#utility.yul\":3414:3481   */\n      tag_229\n        /* \"#utility.yul\":3476:3479   */\n      0xa0\n        /* \"#utility.yul\":3465:3474   */\n      dup4\n        /* \"#utility.yul\":3461:3480   */\n      add\n        /* \"#utility.yul\":3452:3458   */\n      dup5\n        /* \"#utility.yul\":3414:3481   */\n      tag_131\n      jump\t// in\n    tag_229:\n        /* \"#utility.yul\":2634:3488   */\n      swap8\n      swap7\n      pop\n      pop\n      pop\n      pop\n      pop\n      pop\n      pop\n      jump\t// out\n        /* \"#utility.yul\":3494:3716   */\n    tag_25:\n        /* \"#utility.yul\":3587:3591   */\n      0x00\n        /* \"#utility.yul\":3625:3627   */\n      0x20\n        /* \"#utility.yul\":3614:3623   */\n      dup3\n        /* \"#utility.yul\":3610:3628   */\n      add\n        /* \"#utility.yul\":3602:3628   */\n      swap1\n      pop\n        /* \"#utility.yul\":3638:3709   */\n      tag_231\n        /* \"#utility.yul\":3706:3707   */\n      0x00\n        /* \"#utility.yul\":3695:3704   */\n      dup4\n        /* \"#utility.yul\":3691:3708   */\n      add\n        /* \"#utility.yul\":3682:3688   */\n      dup5\n        /* \"#utility.yul\":3638:3709   */\n      tag_124\n      jump\t// in\n    tag_231:\n        /* \"#utility.yul\":3494:3716   */\n      swap3\n      swap2\n      pop\n      pop\n      jump\t// out\n        /* \"#utility.yul\":3722:3830   */\n    tag_132:\n        /* \"#utility.yul\":3799:3823   */\n      tag_233\n        /* \"#utility.yul\":3817:3822   */\n      dup2\n        /* \"#utility.yul\":3799:3823   */\n      tag_122\n      jump\t// in\n    tag_233:\n        /* \"#utility.yul\":3794:3797   */\n      dup3\n        /* \"#utility.yul\":3787:3824   */\n      mstore\n        /* \"#utility.yul\":3722:3830   */\n      pop\n      pop\n      jump\t// out\n        /* \"#utility.yul\":3836:3944   */\n    tag_133:\n        /* \"#utility.yul\":3913:3937   */\n      tag_235\n        /* \"#utility.yul\":3931:3936   */\n      dup2\n        /* \"#utility.yul\":3913:3937   */\n      tag_118\n      jump\t// in\n    tag_235:\n        /* \"#utility.yul\":3908:3911   */\n      dup3\n        /* \"#utility.yul\":3901:3938   */\n      mstore\n        /* \"#utility.yul\":3836:3944   */\n      pop\n      pop\n      jump\t// out\n        /* \"#utility.yul\":3950:4109   */\n    tag_134:\n        /* \"#utility.yul\":4024:4035   */\n      0x00\n        /* \"#utility.yul\":4058:4064   */\n      dup3\n        /* \"#utility.yul\":4053:4056   */\n      dup3\n        /* \"#utility.yul\":4046:4065   */\n      mstore\n        /* \"#utility.yul\":4098:4102   */\n      0x20\n        /* \"#utility.yul\":4093:4096   */\n      dup3\n        /* \"#utility.yul\":4089:4103   */\n      add\n        /* \"#utility.yul\":4074:4103   */\n      swap1\n      pop\n        /* \"#utility.yul\":3950:4109   */\n      swap3\n      swap2\n      pop\n      pop\n      jump\t// out\n        /* \"#utility.yul\":4115:4472   */\n    tag_135:\n        /* \"#utility.yul\":4193:4196   */\n      0x00\n        /* \"#utility.yul\":4221:4260   */\n      tag_238\n        /* \"#utility.yul\":4254:4259   */\n      dup3\n        /* \"#utility.yul\":4221:4260   */\n      tag_125\n      jump\t// in\n    tag_238:\n        /* \"#utility.yul\":4276:4337   */\n      tag_239\n        /* \"#utility.yul\":4330:4336   */\n      dup2\n        /* \"#utility.yul\":4325:4328   */\n      dup6\n        /* \"#utility.yul\":4276:4337   */\n      tag_134\n      jump\t// in\n    tag_239:\n        /* \"#utility.yul\":4269:4337   */\n      swap4\n      pop\n        /* \"#utility.yul\":4346:4411   */\n      tag_240\n        /* \"#utility.yul\":4404:4410   */\n      dup2\n        /* \"#utility.yul\":4399:4402   */\n      dup6\n        /* \"#utility.yul\":4392:4396   */\n      0x20\n        /* \"#utility.yul\":4385:4390   */\n      dup7\n        /* \"#utility.yul\":4381:4397   */\n      add\n        /* \"#utility.yul\":4346:4411   */\n      tag_127\n      jump\t// in\n    tag_240:\n        /* \"#utility.yul\":4436:4465   */\n      tag_241\n        /* \"#utility.yul\":4458:4464   */\n      dup2\n        /* \"#utility.yul\":4436:4465   */\n      tag_128\n      jump\t// in\n    tag_241:\n        /* \"#utility.yul\":4431:4434   */\n      dup5\n        /* \"#utility.yul\":4427:4466   */\n      add\n        /* \"#utility.yul\":4420:4466   */\n      swap2\n      pop\n        /* \"#utility.yul\":4197:4472   */\n      pop\n        /* \"#utility.yul\":4115:4472   */\n      swap3\n      swap2\n      pop\n      pop\n      jump\t// out\n        /* \"#utility.yul\":4478:4577   */\n    tag_136:\n        /* \"#utility.yul\":4549:4570   */\n      tag_243\n        /* \"#utility.yul\":4564:4569   */\n      dup2\n        /* \"#utility.yul\":4549:4570   */\n      tag_130\n      jump\t// in\n    tag_243:\n        /* \"#utility.yul\":4544:4547   */\n      dup3\n        /* \"#utility.yul\":4537:4571   */\n      mstore\n        /* \"#utility.yul\":4478:4577   */\n      pop\n      pop\n      jump\t// out\n        /* \"#utility.yul\":4663:5983   */\n    tag_137:\n        /* \"#utility.yul\":4778:4781   */\n      0x00\n        /* \"#utility.yul\":4814:4818   */\n      0xc0\n        /* \"#utility.yul\":4809:4812   */\n      dup4\n        /* \"#utility.yul\":4805:4819   */\n      add\n        /* \"#utility.yul\":4905:4909   */\n      0x00\n        /* \"#utility.yul\":4898:4903   */\n      dup4\n        /* \"#utility.yul\":4894:4910   */\n      add\n        /* \"#utility.yul\":4888:4911   */\n      mload\n        /* \"#utility.yul\":4924:4987   */\n      tag_245\n        /* \"#utility.yul\":4981:4985   */\n      0x00\n        /* \"#utility.yul\":4976:4979   */\n      dup7\n        /* \"#utility.yul\":4972:4986   */\n      add\n        /* \"#utility.yul\":4958:4970   */\n      dup3\n        /* \"#utility.yul\":4924:4987   */\n      tag_132\n      jump\t// in\n    tag_245:\n        /* \"#utility.yul\":4829:4997   */\n      pop\n        /* \"#utility.yul\":5081:5085   */\n      0x20\n        /* \"#utility.yul\":5074:5079   */\n      dup4\n        /* \"#utility.yul\":5070:5086   */\n      add\n        /* \"#utility.yul\":5064:5087   */\n      mload\n        /* \"#utility.yul\":5100:5163   */\n      tag_246\n        /* \"#utility.yul\":5157:5161   */\n      0x20\n        /* \"#utility.yul\":5152:5155   */\n      dup7\n        /* \"#utility.yul\":5148:5162   */\n      add\n        /* \"#utility.yul\":5134:5146   */\n      dup3\n        /* \"#utility.yul\":5100:5163   */\n      tag_133\n      jump\t// in\n    tag_246:\n        /* \"#utility.yul\":5007:5173   */\n      pop\n        /* \"#utility.yul\":5262:5266   */\n      0x40\n        /* \"#utility.yul\":5255:5260   */\n      dup4\n        /* \"#utility.yul\":5251:5267   */\n      add\n        /* \"#utility.yul\":5245:5268   */\n      mload\n        /* \"#utility.yul\":5315:5318   */\n      dup5\n        /* \"#utility.yul\":5309:5313   */\n      dup3\n        /* \"#utility.yul\":5305:5319   */\n      sub\n        /* \"#utility.yul\":5298:5302   */\n      0x40\n        /* \"#utility.yul\":5293:5296   */\n      dup7\n        /* \"#utility.yul\":5289:5303   */\n      add\n        /* \"#utility.yul\":5282:5320   */\n      mstore\n        /* \"#utility.yul\":5341:5414   */\n      tag_247\n        /* \"#utility.yul\":5409:5413   */\n      dup3\n        /* \"#utility.yul\":5395:5407   */\n      dup3\n        /* \"#utility.yul\":5341:5414   */\n      tag_135\n      jump\t// in\n    tag_247:\n        /* \"#utility.yul\":5333:5414   */\n      swap2\n      pop\n        /* \"#utility.yul\":5183:5425   */\n      pop\n        /* \"#utility.yul\":5513:5517   */\n      0x60\n        /* \"#utility.yul\":5506:5511   */\n      dup4\n        /* \"#utility.yul\":5502:5518   */\n      add\n        /* \"#utility.yul\":5496:5519   */\n      mload\n        /* \"#utility.yul\":5532:5595   */\n      tag_248\n        /* \"#utility.yul\":5589:5593   */\n      0x60\n        /* \"#utility.yul\":5584:5587   */\n      dup7\n        /* \"#utility.yul\":5580:5594   */\n      add\n        /* \"#utility.yul\":5566:5578   */\n      dup3\n        /* \"#utility.yul\":5532:5595   */\n      tag_132\n      jump\t// in\n    tag_248:\n        /* \"#utility.yul\":5435:5605   */\n      pop\n        /* \"#utility.yul\":5691:5695   */\n      0x80\n        /* \"#utility.yul\":5684:5689   */\n      dup4\n        /* \"#utility.yul\":5680:5696   */\n      add\n        /* \"#utility.yul\":5674:5697   */\n      mload\n        /* \"#utility.yul\":5710:5773   */\n      tag_249\n        /* \"#utility.yul\":5767:5771   */\n      0x80\n        /* \"#utility.yul\":5762:5765   */\n      dup7\n        /* \"#utility.yul\":5758:5772   */\n      add\n        /* \"#utility.yul\":5744:5756   */\n      dup3\n        /* \"#utility.yul\":5710:5773   */\n      tag_133\n      jump\t// in\n    tag_249:\n        /* \"#utility.yul\":5615:5783   */\n      pop\n        /* \"#utility.yul\":5870:5874   */\n      0xa0\n        /* \"#utility.yul\":5863:5868   */\n      dup4\n        /* \"#utility.yul\":5859:5875   */\n      add\n        /* \"#utility.yul\":5853:5876   */\n      mload\n        /* \"#utility.yul\":5889:5946   */\n      tag_250\n        /* \"#utility.yul\":5940:5944   */\n      0xa0\n        /* \"#utility.yul\":5935:5938   */\n      dup7\n        /* \"#utility.yul\":5931:5945   */\n      add\n        /* \"#utility.yul\":5917:5929   */\n      dup3\n        /* \"#utility.yul\":5889:5946   */\n      tag_136\n      jump\t// in\n    tag_250:\n        /* \"#utility.yul\":5793:5956   */\n      pop\n        /* \"#utility.yul\":5973:5977   */\n      dup1\n        /* \"#utility.yul\":5966:5977   */\n      swap2\n      pop\n        /* \"#utility.yul\":4783:5983   */\n      pop\n        /* \"#utility.yul\":4663:5983   */\n      swap3\n      swap2\n      pop\n      pop\n      jump\t// out\n        /* \"#utility.yul\":5989:6354   */\n    tag_31:\n        /* \"#utility.yul\":6128:6132   */\n      0x00\n        /* \"#utility.yul\":6166:6168   */\n      0x20\n        /* \"#utility.yul\":6155:6164   */\n      dup3\n        /* \"#utility.yul\":6151:6169   */\n      add\n        /* \"#utility.yul\":6143:6169   */\n      swap1\n      pop\n        /* \"#utility.yul\":6215:6224   */\n      dup2\n        /* \"#utility.yul\":6209:6213   */\n      dup2\n        /* \"#utility.yul\":6205:6225   */\n      sub\n        /* \"#utility.yul\":6201:6202   */\n      0x00\n        /* \"#utility.yul\":6190:6199   */\n      dup4\n        /* \"#utility.yul\":6186:6203   */\n      add\n        /* \"#utility.yul\":6179:6226   */\n      mstore\n        /* \"#utility.yul\":6243:6347   */\n      tag_252\n        /* \"#utility.yul\":6342:6346   */\n      dup2\n        /* \"#utility.yul\":6333:6339   */\n      dup5\n        /* \"#utility.yul\":6243:6347   */\n      tag_137\n      jump\t// in\n    tag_252:\n        /* \"#utility.yul\":6235:6347   */\n      swap1\n      pop\n        /* \"#utility.yul\":5989:6354   */\n      swap3\n      swap2\n      pop\n      pop\n      jump\t// out\n        /* \"#utility.yul\":6360:6482   */\n    tag_138:\n        /* \"#utility.yul\":6433:6457   */\n      tag_254\n        /* \"#utility.yul\":6451:6456   */\n      dup2\n        /* \"#utility.yul\":6433:6457   */\n      tag_122\n      jump\t// in\n    tag_254:\n        /* \"#utility.yul\":6426:6431   */\n      dup2\n        /* \"#utility.yul\":6423:6458   */\n      eq\n        /* \"#utility.yul\":6413:6476   */\n      tag_255\n      jumpi\n        /* \"#utility.yul\":6472:6473   */\n      0x00\n        /* \"#utility.yul\":6469:6470   */\n      dup1\n        /* \"#utility.yul\":6462:6474   */\n      revert\n        /* \"#utility.yul\":6413:6476   */\n    tag_255:\n        /* \"#utility.yul\":6360:6482   */\n      pop\n      jump\t// out\n        /* \"#utility.yul\":6488:6627   */\n    tag_139:\n        /* \"#utility.yul\":6534:6539   */\n      0x00\n        /* \"#utility.yul\":6572:6578   */\n      dup2\n        /* \"#utility.yul\":6559:6579   */\n      calldataload\n        /* \"#utility.yul\":6550:6579   */\n      swap1\n      pop\n        /* \"#utility.yul\":6588:6621   */\n      tag_257\n        /* \"#utility.yul\":6615:6620   */\n      dup2\n        /* \"#utility.yul\":6588:6621   */\n      tag_138\n      jump\t// in\n    tag_257:\n        /* \"#utility.yul\":6488:6627   */\n      swap3\n      swap2\n      pop\n      pop\n      jump\t// out\n        /* \"#utility.yul\":6633:7107   */\n    tag_40:\n        /* \"#utility.yul\":6701:6707   */\n      0x00\n        /* \"#utility.yul\":6709:6715   */\n      dup1\n        /* \"#utility.yul\":6758:6760   */\n      0x40\n        /* \"#utility.yul\":6746:6755   */\n      dup4\n        /* \"#utility.yul\":6737:6744   */\n      dup6\n        /* \"#utility.yul\":6733:6756   */\n      sub\n        /* \"#utility.yul\":6729:6761   */\n      slt\n        /* \"#utility.yul\":6726:6845   */\n      iszero\n      tag_259\n      jumpi\n        /* \"#utility.yul\":6764:6843   */\n      tag_260\n      tag_116\n      jump\t// in\n    tag_260:\n        /* \"#utility.yul\":6726:6845   */\n    tag_259:\n        /* \"#utility.yul\":6884:6885   */\n      0x00\n        /* \"#utility.yul\":6909:6962   */\n      tag_261\n        /* \"#utility.yul\":6954:6961   */\n      dup6\n        /* \"#utility.yul\":6945:6951   */\n      dup3\n        /* \"#utility.yul\":6934:6943   */\n      dup7\n        /* \"#utility.yul\":6930:6952   */\n      add\n        /* \"#utility.yul\":6909:6962   */\n      tag_120\n      jump\t// in\n    tag_261:\n        /* \"#utility.yul\":6899:6962   */\n      swap3\n      pop\n        /* \"#utility.yul\":6855:6972   */\n      pop\n        /* \"#utility.yul\":7011:7013   */\n      0x20\n        /* \"#utility.yul\":7037:7090   */\n      tag_262\n        /* \"#utility.yul\":7082:7089   */\n      dup6\n        /* \"#utility.yul\":7073:7079   */\n      dup3\n        /* \"#utility.yul\":7062:7071   */\n      dup7\n        /* \"#utility.yul\":7058:7080   */\n      add\n        /* \"#utility.yul\":7037:7090   */\n      tag_139\n      jump\t// in\n    tag_262:\n        /* \"#utility.yul\":7027:7090   */\n      swap2\n      pop\n        /* \"#utility.yul\":6982:7100   */\n      pop\n        /* \"#utility.yul\":6633:7107   */\n      swap3\n      pop\n      swap3\n      swap1\n      pop\n      jump\t// out\n        /* \"#utility.yul\":7113:7230   */\n    tag_140:\n        /* \"#utility.yul\":7222:7223   */\n      0x00\n        /* \"#utility.yul\":7219:7220   */\n      dup1\n        /* \"#utility.yul\":7212:7224   */\n      revert\n        /* \"#utility.yul\":7236:7353   */\n    tag_141:\n        /* \"#utility.yul\":7345:7346   */\n      0x00\n        /* \"#utility.yul\":7342:7343   */\n      dup1\n        /* \"#utility.yul\":7335:7347   */\n      revert\n        /* \"#utility.yul\":7359:7539   */\n    tag_142:\n        /* \"#utility.yul\":7407:7484   */\n      0x4e487b7100000000000000000000000000000000000000000000000000000000\n        /* \"#utility.yul\":7404:7405   */\n      0x00\n        /* \"#utility.yul\":7397:7485   */\n      mstore\n        /* \"#utility.yul\":7504:7508   */\n      0x41\n        /* \"#utility.yul\":7501:7502   */\n      0x04\n        /* \"#utility.yul\":7494:7509   */\n      mstore\n        /* \"#utility.yul\":7528:7532   */\n      0x24\n        /* \"#utility.yul\":7525:7526   */\n      0x00\n        /* \"#utility.yul\":7518:7533   */\n      revert\n        /* \"#utility.yul\":7545:7826   */\n    tag_143:\n        /* \"#utility.yul\":7628:7655   */\n      tag_267\n        /* \"#utility.yul\":7650:7654   */\n      dup3\n        /* \"#utility.yul\":7628:7655   */\n      tag_128\n      jump\t// in\n    tag_267:\n        /* \"#utility.yul\":7620:7626   */\n      dup2\n        /* \"#utility.yul\":7616:7656   */\n      add\n        /* \"#utility.yul\":7758:7764   */\n      dup2\n        /* \"#utility.yul\":7746:7756   */\n      dup2\n        /* \"#utility.yul\":7743:7765   */\n      lt\n        /* \"#utility.yul\":7722:7740   */\n      0xffffffffffffffff\n        /* \"#utility.yul\":7710:7720   */\n      dup3\n        /* \"#utility.yul\":7707:7741   */\n      gt\n        /* \"#utility.yul\":7704:7766   */\n      or\n        /* \"#utility.yul\":7701:7789   */\n      iszero\n      tag_268\n      jumpi\n        /* \"#utility.yul\":7769:7787   */\n      tag_269\n      tag_142\n      jump\t// in\n    tag_269:\n        /* \"#utility.yul\":7701:7789   */\n    tag_268:\n        /* \"#utility.yul\":7809:7819   */\n      dup1\n        /* \"#utility.yul\":7805:7807   */\n      0x40\n        /* \"#utility.yul\":7798:7820   */\n      mstore\n        /* \"#utility.yul\":7588:7826   */\n      pop\n        /* \"#utility.yul\":7545:7826   */\n      pop\n      pop\n      jump\t// out\n        /* \"#utility.yul\":7832:7961   */\n    tag_144:\n        /* \"#utility.yul\":7866:7872   */\n      0x00\n        /* \"#utility.yul\":7893:7913   */\n      tag_271\n      tag_115\n      jump\t// in\n    tag_271:\n        /* \"#utility.yul\":7883:7913   */\n      swap1\n      pop\n        /* \"#utility.yul\":7922:7955   */\n      tag_272\n        /* \"#utility.yul\":7950:7954   */\n      dup3\n        /* \"#utility.yul\":7942:7948   */\n      dup3\n        /* \"#utility.yul\":7922:7955   */\n      tag_143\n      jump\t// in\n    tag_272:\n        /* \"#utility.yul\":7832:7961   */\n      swap2\n      swap1\n      pop\n      jump\t// out\n        /* \"#utility.yul\":7967:8275   */\n    tag_145:\n        /* \"#utility.yul\":8029:8033   */\n      0x00\n        /* \"#utility.yul\":8119:8137   */\n      0xffffffffffffffff\n        /* \"#utility.yul\":8111:8117   */\n      dup3\n        /* \"#utility.yul\":8108:8138   */\n      gt\n        /* \"#utility.yul\":8105:8161   */\n      iszero\n      tag_274\n      jumpi\n        /* \"#utility.yul\":8141:8159   */\n      tag_275\n      tag_142\n      jump\t// in\n    tag_275:\n        /* \"#utility.yul\":8105:8161   */\n    tag_274:\n        /* \"#utility.yul\":8179:8208   */\n      tag_276\n        /* \"#utility.yul\":8201:8207   */\n      dup3\n        /* \"#utility.yul\":8179:8208   */\n      tag_128\n      jump\t// in\n    tag_276:\n        /* \"#utility.yul\":8171:8208   */\n      swap1\n      pop\n        /* \"#utility.yul\":8263:8267   */\n      0x20\n        /* \"#utility.yul\":8257:8261   */\n      dup2\n        /* \"#utility.yul\":8253:8268   */\n      add\n        /* \"#utility.yul\":8245:8268   */\n      swap1\n      pop\n        /* \"#utility.yul\":7967:8275   */\n      swap2\n      swap1\n      pop\n      jump\t// out\n        /* \"#utility.yul\":8281:8429   */\n    tag_146:\n        /* \"#utility.yul\":8379:8385   */\n      dup3\n        /* \"#utility.yul\":8374:8377   */\n      dup2\n        /* \"#utility.yul\":8369:8372   */\n      dup4\n        /* \"#utility.yul\":8356:8386   */\n      calldatacopy\n        /* \"#utility.yul\":8420:8421   */\n      0x00\n        /* \"#utility.yul\":8411:8417   */\n      dup4\n        /* \"#utility.yul\":8406:8409   */\n      dup4\n        /* \"#utility.yul\":8402:8418   */\n      add\n        /* \"#utility.yul\":8395:8422   */\n      mstore\n        /* \"#utility.yul\":8281:8429   */\n      pop\n      pop\n      pop\n      jump\t// out\n        /* \"#utility.yul\":8435:8860   */\n    tag_147:\n        /* \"#utility.yul\":8513:8518   */\n      0x00\n        /* \"#utility.yul\":8538:8604   */\n      tag_279\n        /* \"#utility.yul\":8554:8603   */\n      tag_280\n        /* \"#utility.yul\":8596:8602   */\n      dup5\n        /* \"#utility.yul\":8554:8603   */\n      tag_145\n      jump\t// in\n    tag_280:\n        /* \"#utility.yul\":8538:8604   */\n      tag_144\n      jump\t// in\n    tag_279:\n        /* \"#utility.yul\":8529:8604   */\n      swap1\n      pop\n        /* \"#utility.yul\":8627:8633   */\n      dup3\n        /* \"#utility.yul\":8620:8625   */\n      dup2\n        /* \"#utility.yul\":8613:8634   */\n      mstore\n        /* \"#utility.yul\":8665:8669   */\n      0x20\n        /* \"#utility.yul\":8658:8663   */\n      dup2\n        /* \"#utility.yul\":8654:8670   */\n      add\n        /* \"#utility.yul\":8703:8706   */\n      dup5\n        /* \"#utility.yul\":8694:8700   */\n      dup5\n        /* \"#utility.yul\":8689:8692   */\n      dup5\n        /* \"#utility.yul\":8685:8701   */\n      add\n        /* \"#utility.yul\":8682:8707   */\n      gt\n        /* \"#utility.yul\":8679:8791   */\n      iszero\n      tag_281\n      jumpi\n        /* \"#utility.yul\":8710:8789   */\n      tag_282\n      tag_141\n      jump\t// in\n    tag_282:\n        /* \"#utility.yul\":8679:8791   */\n    tag_281:\n        /* \"#utility.yul\":8800:8854   */\n      tag_283\n        /* \"#utility.yul\":8847:8853   */\n      dup5\n        /* \"#utility.yul\":8842:8845   */\n      dup3\n        /* \"#utility.yul\":8837:8840   */\n      dup6\n        /* \"#utility.yul\":8800:8854   */\n      tag_146\n      jump\t// in\n    tag_283:\n        /* \"#utility.yul\":8519:8860   */\n      pop\n        /* \"#utility.yul\":8435:8860   */\n      swap4\n      swap3\n      pop\n      pop\n      pop\n      jump\t// out\n        /* \"#utility.yul\":8880:9220   */\n    tag_148:\n        /* \"#utility.yul\":8936:8941   */\n      0x00\n        /* \"#utility.yul\":8985:8988   */\n      dup3\n        /* \"#utility.yul\":8978:8982   */\n      0x1f\n        /* \"#utility.yul\":8970:8976   */\n      dup4\n        /* \"#utility.yul\":8966:8983   */\n      add\n        /* \"#utility.yul\":8962:8989   */\n      slt\n        /* \"#utility.yul\":8952:9074   */\n      tag_285\n      jumpi\n        /* \"#utility.yul\":8993:9072   */\n      tag_286\n      tag_140\n      jump\t// in\n    tag_286:\n        /* \"#utility.yul\":8952:9074   */\n    tag_285:\n        /* \"#utility.yul\":9110:9116   */\n      dup2\n        /* \"#utility.yul\":9097:9117   */\n      calldataload\n        /* \"#utility.yul\":9135:9214   */\n      tag_287\n        /* \"#utility.yul\":9210:9213   */\n      dup5\n        /* \"#utility.yul\":9202:9208   */\n      dup3\n        /* \"#utility.yul\":9195:9199   */\n      0x20\n        /* \"#utility.yul\":9187:9193   */\n      dup7\n        /* \"#utility.yul\":9183:9200   */\n      add\n        /* \"#utility.yul\":9135:9214   */\n      tag_147\n      jump\t// in\n    tag_287:\n        /* \"#utility.yul\":9126:9214   */\n      swap2\n      pop\n        /* \"#utility.yul\":8942:9220   */\n      pop\n        /* \"#utility.yul\":8880:9220   */\n      swap3\n      swap2\n      pop\n      pop\n      jump\t// out\n        /* \"#utility.yul\":9226:10025   */\n    tag_44:\n        /* \"#utility.yul\":9313:9319   */\n      0x00\n        /* \"#utility.yul\":9321:9327   */\n      dup1\n        /* \"#utility.yul\":9329:9335   */\n      0x00\n        /* \"#utility.yul\":9378:9380   */\n      0x60\n        /* \"#utility.yul\":9366:9375   */\n      dup5\n        /* \"#utility.yul\":9357:9364   */\n      dup7\n        /* \"#utility.yul\":9353:9376   */\n      sub\n        /* \"#utility.yul\":9349:9381   */\n      slt\n        /* \"#utility.yul\":9346:9465   */\n      iszero\n      tag_289\n      jumpi\n        /* \"#utility.yul\":9384:9463   */\n      tag_290\n      tag_116\n      jump\t// in\n    tag_290:\n        /* \"#utility.yul\":9346:9465   */\n    tag_289:\n        /* \"#utility.yul\":9532:9533   */\n      0x00\n        /* \"#utility.yul\":9521:9530   */\n      dup5\n        /* \"#utility.yul\":9517:9534   */\n      add\n        /* \"#utility.yul\":9504:9535   */\n      calldataload\n        /* \"#utility.yul\":9562:9580   */\n      0xffffffffffffffff\n        /* \"#utility.yul\":9554:9560   */\n      dup2\n        /* \"#utility.yul\":9551:9581   */\n      gt\n        /* \"#utility.yul\":9548:9665   */\n      iszero\n      tag_291\n      jumpi\n        /* \"#utility.yul\":9584:9663   */\n      tag_292\n      tag_117\n      jump\t// in\n    tag_292:\n        /* \"#utility.yul\":9548:9665   */\n    tag_291:\n        /* \"#utility.yul\":9689:9752   */\n      tag_293\n        /* \"#utility.yul\":9744:9751   */\n      dup7\n        /* \"#utility.yul\":9735:9741   */\n      dup3\n        /* \"#utility.yul\":9724:9733   */\n      dup8\n        /* \"#utility.yul\":9720:9742   */\n      add\n        /* \"#utility.yul\":9689:9752   */\n      tag_148\n      jump\t// in\n    tag_293:\n        /* \"#utility.yul\":9679:9752   */\n      swap4\n      pop\n        /* \"#utility.yul\":9475:9762   */\n      pop\n        /* \"#utility.yul\":9801:9803   */\n      0x20\n        /* \"#utility.yul\":9827:9880   */\n      tag_294\n        /* \"#utility.yul\":9872:9879   */\n      dup7\n        /* \"#utility.yul\":9863:9869   */\n      dup3\n        /* \"#utility.yul\":9852:9861   */\n      dup8\n        /* \"#utility.yul\":9848:9870   */\n      add\n        /* \"#utility.yul\":9827:9880   */\n      tag_120\n      jump\t// in\n    tag_294:\n        /* \"#utility.yul\":9817:9880   */\n      swap3\n      pop\n        /* \"#utility.yul\":9772:9890   */\n      pop\n        /* \"#utility.yul\":9929:9931   */\n      0x40\n        /* \"#utility.yul\":9955:10008   */\n      tag_295\n        /* \"#utility.yul\":10000:10007   */\n      dup7\n        /* \"#utility.yul\":9991:9997   */\n      dup3\n        /* \"#utility.yul\":9980:9989   */\n      dup8\n        /* \"#utility.yul\":9976:9998   */\n      add\n        /* \"#utility.yul\":9955:10008   */\n      tag_120\n      jump\t// in\n    tag_295:\n        /* \"#utility.yul\":9945:10008   */\n      swap2\n      pop\n        /* \"#utility.yul\":9900:10018   */\n      pop\n        /* \"#utility.yul\":9226:10025   */\n      swap3\n      pop\n      swap3\n      pop\n      swap3\n      jump\t// out\n        /* \"#utility.yul\":10031:10211   */\n    tag_149:\n        /* \"#utility.yul\":10079:10156   */\n      0x4e487b7100000000000000000000000000000000000000000000000000000000\n        /* \"#utility.yul\":10076:10077   */\n      0x00\n        /* \"#utility.yul\":10069:10157   */\n      mstore\n        /* \"#utility.yul\":10176:10180   */\n      0x22\n        /* \"#utility.yul\":10173:10174   */\n      0x04\n        /* \"#utility.yul\":10166:10181   */\n      mstore\n        /* \"#utility.yul\":10200:10204   */\n      0x24\n        /* \"#utility.yul\":10197:10198   */\n      0x00\n        /* \"#utility.yul\":10190:10205   */\n      revert\n        /* \"#utility.yul\":10217:10537   */\n    tag_47:\n        /* \"#utility.yul\":10261:10267   */\n      0x00\n        /* \"#utility.yul\":10298:10299   */\n      0x02\n        /* \"#utility.yul\":10292:10296   */\n      dup3\n        /* \"#utility.yul\":10288:10300   */\n      div\n        /* \"#utility.yul\":10278:10300   */\n      swap1\n      pop\n        /* \"#utility.yul\":10345:10346   */\n      0x01\n        /* \"#utility.yul\":10339:10343   */\n      dup3\n        /* \"#utility.yul\":10335:10347   */\n      and\n        /* \"#utility.yul\":10366:10384   */\n      dup1\n        /* \"#utility.yul\":10356:10437   */\n      tag_298\n      jumpi\n        /* \"#utility.yul\":10422:10426   */\n      0x7f\n        /* \"#utility.yul\":10414:10420   */\n      dup3\n        /* \"#utility.yul\":10410:10427   */\n      and\n        /* \"#utility.yul\":10400:10427   */\n      swap2\n      pop\n        /* \"#utility.yul\":10356:10437   */\n    tag_298:\n        /* \"#utility.yul\":10484:10486   */\n      0x20\n        /* \"#utility.yul\":10476:10482   */\n      dup3\n        /* \"#utility.yul\":10473:10487   */\n      lt\n        /* \"#utility.yul\":10453:10471   */\n      dup2\n        /* \"#utility.yul\":10450:10488   */\n      sub\n        /* \"#utility.yul\":10447:10531   */\n      tag_299\n      jumpi\n        /* \"#utility.yul\":10503:10521   */\n      tag_300\n      tag_149\n      jump\t// in\n    tag_300:\n        /* \"#utility.yul\":10447:10531   */\n    tag_299:\n        /* \"#utility.yul\":10268:10537   */\n      pop\n        /* \"#utility.yul\":10217:10537   */\n      swap2\n      swap1\n      pop\n      jump\t// out\n        /* \"#utility.yul\":10543:10709   */\n    tag_150:\n        /* \"#utility.yul\":10683:10701   */\n      0x4e6f742074686520656d706c6f79657200000000000000000000000000000000\n        /* \"#utility.yul\":10679:10680   */\n      0x00\n        /* \"#utility.yul\":10671:10677   */\n      dup3\n        /* \"#utility.yul\":10667:10681   */\n      add\n        /* \"#utility.yul\":10660:10702   */\n      mstore\n        /* \"#utility.yul\":10543:10709   */\n      pop\n      jump\t// out\n        /* \"#utility.yul\":10715:11081   */\n    tag_151:\n        /* \"#utility.yul\":10857:10860   */\n      0x00\n        /* \"#utility.yul\":10878:10945   */\n      tag_303\n        /* \"#utility.yul\":10942:10944   */\n      0x10\n        /* \"#utility.yul\":10937:10940   */\n      dup4\n        /* \"#utility.yul\":10878:10945   */\n      tag_126\n      jump\t// in\n    tag_303:\n        /* \"#utility.yul\":10871:10945   */\n      swap2\n      pop\n        /* \"#utility.yul\":10954:11047   */\n      tag_304\n        /* \"#utility.yul\":11043:11046   */\n      dup3\n        /* \"#utility.yul\":10954:11047   */\n      tag_150\n      jump\t// in\n    tag_304:\n        /* \"#utility.yul\":11072:11074   */\n      0x20\n        /* \"#utility.yul\":11067:11070   */\n      dup3\n        /* \"#utility.yul\":11063:11075   */\n      add\n        /* \"#utility.yul\":11056:11075   */\n      swap1\n      pop\n        /* \"#utility.yul\":10715:11081   */\n      swap2\n      swap1\n      pop\n      jump\t// out\n        /* \"#utility.yul\":11087:11506   */\n    tag_55:\n        /* \"#utility.yul\":11253:11257   */\n      0x00\n        /* \"#utility.yul\":11291:11293   */\n      0x20\n        /* \"#utility.yul\":11280:11289   */\n      dup3\n        /* \"#utility.yul\":11276:11294   */\n      add\n        /* \"#utility.yul\":11268:11294   */\n      swap1\n      pop\n        /* \"#utility.yul\":11340:11349   */\n      dup2\n        /* \"#utility.yul\":11334:11338   */\n      dup2\n        /* \"#utility.yul\":11330:11350   */\n      sub\n        /* \"#utility.yul\":11326:11327   */\n      0x00\n        /* \"#utility.yul\":11315:11324   */\n      dup4\n        /* \"#utility.yul\":11311:11328   */\n      add\n        /* \"#utility.yul\":11304:11351   */\n      mstore\n        /* \"#utility.yul\":11368:11499   */\n      tag_306\n        /* \"#utility.yul\":11494:11498   */\n      dup2\n        /* \"#utility.yul\":11368:11499   */\n      tag_151\n      jump\t// in\n    tag_306:\n        /* \"#utility.yul\":11360:11499   */\n      swap1\n      pop\n        /* \"#utility.yul\":11087:11506   */\n      swap2\n      swap1\n      pop\n      jump\t// out\n        /* \"#utility.yul\":11512:11681   */\n    tag_152:\n        /* \"#utility.yul\":11652:11673   */\n      0x5265656e7472616e637920646574656374656400000000000000000000000000\n        /* \"#utility.yul\":11648:11649   */\n      0x00\n        /* \"#utility.yul\":11640:11646   */\n      dup3\n        /* \"#utility.yul\":11636:11650   */\n      add\n        /* \"#utility.yul\":11629:11674   */\n      mstore\n        /* \"#utility.yul\":11512:11681   */\n      pop\n      jump\t// out\n        /* \"#utility.yul\":11687:12053   */\n    tag_153:\n        /* \"#utility.yul\":11829:11832   */\n      0x00\n        /* \"#utility.yul\":11850:11917   */\n      tag_309\n        /* \"#utility.yul\":11914:11916   */\n      0x13\n        /* \"#utility.yul\":11909:11912   */\n      dup4\n        /* \"#utility.yul\":11850:11917   */\n      tag_126\n      jump\t// in\n    tag_309:\n        /* \"#utility.yul\":11843:11917   */\n      swap2\n      pop\n        /* \"#utility.yul\":11926:12019   */\n      tag_310\n        /* \"#utility.yul\":12015:12018   */\n      dup3\n        /* \"#utility.yul\":11926:12019   */\n      tag_152\n      jump\t// in\n    tag_310:\n        /* \"#utility.yul\":12044:12046   */\n      0x20\n        /* \"#utility.yul\":12039:12042   */\n      dup3\n        /* \"#utility.yul\":12035:12047   */\n      add\n        /* \"#utility.yul\":12028:12047   */\n      swap1\n      pop\n        /* \"#utility.yul\":11687:12053   */\n      swap2\n      swap1\n      pop\n      jump\t// out\n        /* \"#utility.yul\":12059:12478   */\n    tag_59:\n        /* \"#utility.yul\":12225:12229   */\n      0x00\n        /* \"#utility.yul\":12263:12265   */\n      0x20\n        /* \"#utility.yul\":12252:12261   */\n      dup3\n        /* \"#utility.yul\":12248:12266   */\n      add\n        /* \"#utility.yul\":12240:12266   */\n      swap1\n      pop\n        /* \"#utility.yul\":12312:12321   */\n      dup2\n        /* \"#utility.yul\":12306:12310   */\n      dup2\n        /* \"#utility.yul\":12302:12322   */\n      sub\n        /* \"#utility.yul\":12298:12299   */\n      0x00\n        /* \"#utility.yul\":12287:12296   */\n      dup4\n        /* \"#utility.yul\":12283:12300   */\n      add\n        /* \"#utility.yul\":12276:12323   */\n      mstore\n        /* \"#utility.yul\":12340:12471   */\n      tag_312\n        /* \"#utility.yul\":12466:12470   */\n      dup2\n        /* \"#utility.yul\":12340:12471   */\n      tag_153\n      jump\t// in\n    tag_312:\n        /* \"#utility.yul\":12332:12471   */\n      swap1\n      pop\n        /* \"#utility.yul\":12059:12478   */\n      swap2\n      swap1\n      pop\n      jump\t// out\n        /* \"#utility.yul\":12484:12659   */\n    tag_154:\n        /* \"#utility.yul\":12624:12651   */\n      0x50726f6a65637420616c726561647920636f6d706c6574656400000000000000\n        /* \"#utility.yul\":12620:12621   */\n      0x00\n        /* \"#utility.yul\":12612:12618   */\n      dup3\n        /* \"#utility.yul\":12608:12622   */\n      add\n        /* \"#utility.yul\":12601:12652   */\n      mstore\n        /* \"#utility.yul\":12484:12659   */\n      pop\n      jump\t// out\n        /* \"#utility.yul\":12665:13031   */\n    tag_155:\n        /* \"#utility.yul\":12807:12810   */\n      0x00\n        /* \"#utility.yul\":12828:12895   */\n      tag_315\n        /* \"#utility.yul\":12892:12894   */\n      0x19\n        /* \"#utility.yul\":12887:12890   */\n      dup4\n        /* \"#utility.yul\":12828:12895   */\n      tag_126\n      jump\t// in\n    tag_315:\n        /* \"#utility.yul\":12821:12895   */\n      swap2\n      pop\n        /* \"#utility.yul\":12904:12997   */\n      tag_316\n        /* \"#utility.yul\":12993:12996   */\n      dup3\n        /* \"#utility.yul\":12904:12997   */\n      tag_154\n      jump\t// in\n    tag_316:\n        /* \"#utility.yul\":13022:13024   */\n      0x20\n        /* \"#utility.yul\":13017:13020   */\n      dup3\n        /* \"#utility.yul\":13013:13025   */\n      add\n        /* \"#utility.yul\":13006:13025   */\n      swap1\n      pop\n        /* \"#utility.yul\":12665:13031   */\n      swap2\n      swap1\n      pop\n      jump\t// out\n        /* \"#utility.yul\":13037:13456   */\n    tag_63:\n        /* \"#utility.yul\":13203:13207   */\n      0x00\n        /* \"#utility.yul\":13241:13243   */\n      0x20\n        /* \"#utility.yul\":13230:13239   */\n      dup3\n        /* \"#utility.yul\":13226:13244   */\n      add\n        /* \"#utility.yul\":13218:13244   */\n      swap1\n      pop\n        /* \"#utility.yul\":13290:13299   */\n      dup2\n        /* \"#utility.yul\":13284:13288   */\n      dup2\n        /* \"#utility.yul\":13280:13300   */\n      sub\n        /* \"#utility.yul\":13276:13277   */\n      0x00\n        /* \"#utility.yul\":13265:13274   */\n      dup4\n        /* \"#utility.yul\":13261:13278   */\n      add\n        /* \"#utility.yul\":13254:13301   */\n      mstore\n        /* \"#utility.yul\":13318:13449   */\n      tag_318\n        /* \"#utility.yul\":13444:13448   */\n      dup2\n        /* \"#utility.yul\":13318:13449   */\n      tag_155\n      jump\t// in\n    tag_318:\n        /* \"#utility.yul\":13310:13449   */\n      swap1\n      pop\n        /* \"#utility.yul\":13037:13456   */\n      swap2\n      swap1\n      pop\n      jump\t// out\n        /* \"#utility.yul\":13462:13635   */\n    tag_156:\n        /* \"#utility.yul\":13602:13627   */\n      0x467265656c616e636572206e6f742061737369676e6564000000000000000000\n        /* \"#utility.yul\":13598:13599   */\n      0x00\n        /* \"#utility.yul\":13590:13596   */\n      dup3\n        /* \"#utility.yul\":13586:13600   */\n      add\n        /* \"#utility.yul\":13579:13628   */\n      mstore\n        /* \"#utility.yul\":13462:13635   */\n      pop\n      jump\t// out\n        /* \"#utility.yul\":13641:14007   */\n    tag_157:\n        /* \"#utility.yul\":13783:13786   */\n      0x00\n        /* \"#utility.yul\":13804:13871   */\n      tag_321\n        /* \"#utility.yul\":13868:13870   */\n      0x17\n        /* \"#utility.yul\":13863:13866   */\n      dup4\n        /* \"#utility.yul\":13804:13871   */\n      tag_126\n      jump\t// in\n    tag_321:\n        /* \"#utility.yul\":13797:13871   */\n      swap2\n      pop\n        /* \"#utility.yul\":13880:13973   */\n      tag_322\n        /* \"#utility.yul\":13969:13972   */\n      dup3\n        /* \"#utility.yul\":13880:13973   */\n      tag_156\n      jump\t// in\n    tag_322:\n        /* \"#utility.yul\":13998:14000   */\n      0x20\n        /* \"#utility.yul\":13993:13996   */\n      dup3\n        /* \"#utility.yul\":13989:14001   */\n      add\n        /* \"#utility.yul\":13982:14001   */\n      swap1\n      pop\n        /* \"#utility.yul\":13641:14007   */\n      swap2\n      swap1\n      pop\n      jump\t// out\n        /* \"#utility.yul\":14013:14432   */\n    tag_66:\n        /* \"#utility.yul\":14179:14183   */\n      0x00\n        /* \"#utility.yul\":14217:14219   */\n      0x20\n        /* \"#utility.yul\":14206:14215   */\n      dup3\n        /* \"#utility.yul\":14202:14220   */\n      add\n        /* \"#utility.yul\":14194:14220   */\n      swap1\n      pop\n        /* \"#utility.yul\":14266:14275   */\n      dup2\n        /* \"#utility.yul\":14260:14264   */\n      dup2\n        /* \"#utility.yul\":14256:14276   */\n      sub\n        /* \"#utility.yul\":14252:14253   */\n      0x00\n        /* \"#utility.yul\":14241:14250   */\n      dup4\n        /* \"#utility.yul\":14237:14254   */\n      add\n        /* \"#utility.yul\":14230:14277   */\n      mstore\n        /* \"#utility.yul\":14294:14425   */\n      tag_324\n        /* \"#utility.yul\":14420:14424   */\n      dup2\n        /* \"#utility.yul\":14294:14425   */\n      tag_157\n      jump\t// in\n    tag_324:\n        /* \"#utility.yul\":14286:14425   */\n      swap1\n      pop\n        /* \"#utility.yul\":14013:14432   */\n      swap2\n      swap1\n      pop\n      jump\t// out\n        /* \"#utility.yul\":14438:14585   */\n    tag_158:\n        /* \"#utility.yul\":14539:14550   */\n      0x00\n        /* \"#utility.yul\":14576:14579   */\n      dup2\n        /* \"#utility.yul\":14561:14579   */\n      swap1\n      pop\n        /* \"#utility.yul\":14438:14585   */\n      swap3\n      swap2\n      pop\n      pop\n      jump\t// out\n        /* \"#utility.yul\":14591:14705   */\n    tag_159:\n      pop\n      jump\t// out\n        /* \"#utility.yul\":14711:15109   */\n    tag_160:\n        /* \"#utility.yul\":14870:14873   */\n      0x00\n        /* \"#utility.yul\":14891:14974   */\n      tag_328\n        /* \"#utility.yul\":14972:14973   */\n      0x00\n        /* \"#utility.yul\":14967:14970   */\n      dup4\n        /* \"#utility.yul\":14891:14974   */\n      tag_158\n      jump\t// in\n    tag_328:\n        /* \"#utility.yul\":14884:14974   */\n      swap2\n      pop\n        /* \"#utility.yul\":14983:15076   */\n      tag_329\n        /* \"#utility.yul\":15072:15075   */\n      dup3\n        /* \"#utility.yul\":14983:15076   */\n      tag_159\n      jump\t// in\n    tag_329:\n        /* \"#utility.yul\":15101:15102   */\n      0x00\n        /* \"#utility.yul\":15096:15099   */\n      dup3\n        /* \"#utility.yul\":15092:15103   */\n      add\n        /* \"#utility.yul\":15085:15103   */\n      swap1\n      pop\n        /* \"#utility.yul\":14711:15109   */\n      swap2\n      swap1\n      pop\n      jump\t// out\n        /* \"#utility.yul\":15115:15494   */\n    tag_68:\n        /* \"#utility.yul\":15299:15302   */\n      0x00\n        /* \"#utility.yul\":15321:15468   */\n      tag_331\n        /* \"#utility.yul\":15464:15467   */\n      dup3\n        /* \"#utility.yul\":15321:15468   */\n      tag_160\n      jump\t// in\n    tag_331:\n        /* \"#utility.yul\":15314:15468   */\n      swap2\n      pop\n        /* \"#utility.yul\":15485:15488   */\n      dup2\n        /* \"#utility.yul\":15478:15488   */\n      swap1\n      pop\n        /* \"#utility.yul\":15115:15494   */\n      swap2\n      swap1\n      pop\n      jump\t// out\n        /* \"#utility.yul\":15500:15665   */\n    tag_161:\n        /* \"#utility.yul\":15640:15657   */\n      0x5472616e73666572206661696c65640000000000000000000000000000000000\n        /* \"#utility.yul\":15636:15637   */\n      0x00\n        /* \"#utility.yul\":15628:15634   */\n      dup3\n        /* \"#utility.yul\":15624:15638   */\n      add\n        /* \"#utility.yul\":15617:15658   */\n      mstore\n        /* \"#utility.yul\":15500:15665   */\n      pop\n      jump\t// out\n        /* \"#utility.yul\":15671:16037   */\n    tag_162:\n        /* \"#utility.yul\":15813:15816   */\n      0x00\n        /* \"#utility.yul\":15834:15901   */\n      tag_334\n        /* \"#utility.yul\":15898:15900   */\n      0x0f\n        /* \"#utility.yul\":15893:15896   */\n      dup4\n        /* \"#utility.yul\":15834:15901   */\n      tag_126\n      jump\t// in\n    tag_334:\n        /* \"#utility.yul\":15827:15901   */\n      swap2\n      pop\n        /* \"#utility.yul\":15910:16003   */\n      tag_335\n        /* \"#utility.yul\":15999:16002   */\n      dup3\n        /* \"#utility.yul\":15910:16003   */\n      tag_161\n      jump\t// in\n    tag_335:\n        /* \"#utility.yul\":16028:16030   */\n      0x20\n        /* \"#utility.yul\":16023:16026   */\n      dup3\n        /* \"#utility.yul\":16019:16031   */\n      add\n        /* \"#utility.yul\":16012:16031   */\n      swap1\n      pop\n        /* \"#utility.yul\":15671:16037   */\n      swap2\n      swap1\n      pop\n      jump\t// out\n        /* \"#utility.yul\":16043:16462   */\n    tag_74:\n        /* \"#utility.yul\":16209:16213   */\n      0x00\n        /* \"#utility.yul\":16247:16249   */\n      0x20\n        /* \"#utility.yul\":16236:16245   */\n      dup3\n        /* \"#utility.yul\":16232:16250   */\n      add\n        /* \"#utility.yul\":16224:16250   */\n      swap1\n      pop\n        /* \"#utility.yul\":16296:16305   */\n      dup2\n        /* \"#utility.yul\":16290:16294   */\n      dup2\n        /* \"#utility.yul\":16286:16306   */\n      sub\n        /* \"#utility.yul\":16282:16283   */\n      0x00\n        /* \"#utility.yul\":16271:16280   */\n      dup4\n        /* \"#utility.yul\":16267:16284   */\n      add\n        /* \"#utility.yul\":16260:16307   */\n      mstore\n        /* \"#utility.yul\":16324:16455   */\n      tag_337\n        /* \"#utility.yul\":16450:16454   */\n      dup2\n        /* \"#utility.yul\":16324:16455   */\n      tag_162\n      jump\t// in\n    tag_337:\n        /* \"#utility.yul\":16316:16455   */\n      swap1\n      pop\n        /* \"#utility.yul\":16043:16462   */\n      swap2\n      swap1\n      pop\n      jump\t// out\n        /* \"#utility.yul\":16468:16648   */\n    tag_163:\n        /* \"#utility.yul\":16516:16593   */\n      0x4e487b7100000000000000000000000000000000000000000000000000000000\n        /* \"#utility.yul\":16513:16514   */\n      0x00\n        /* \"#utility.yul\":16506:16594   */\n      mstore\n        /* \"#utility.yul\":16613:16617   */\n      0x11\n        /* \"#utility.yul\":16610:16611   */\n      0x04\n        /* \"#utility.yul\":16603:16618   */\n      mstore\n        /* \"#utility.yul\":16637:16641   */\n      0x24\n        /* \"#utility.yul\":16634:16635   */\n      0x00\n        /* \"#utility.yul\":16627:16642   */\n      revert\n        /* \"#utility.yul\":16654:17064   */\n    tag_86:\n        /* \"#utility.yul\":16694:16701   */\n      0x00\n        /* \"#utility.yul\":16717:16737   */\n      tag_340\n        /* \"#utility.yul\":16735:16736   */\n      dup3\n        /* \"#utility.yul\":16717:16737   */\n      tag_118\n      jump\t// in\n    tag_340:\n        /* \"#utility.yul\":16712:16737   */\n      swap2\n      pop\n        /* \"#utility.yul\":16751:16771   */\n      tag_341\n        /* \"#utility.yul\":16769:16770   */\n      dup4\n        /* \"#utility.yul\":16751:16771   */\n      tag_118\n      jump\t// in\n    tag_341:\n        /* \"#utility.yul\":16746:16771   */\n      swap3\n      pop\n        /* \"#utility.yul\":16806:16807   */\n      dup3\n        /* \"#utility.yul\":16803:16804   */\n      dup3\n        /* \"#utility.yul\":16799:16808   */\n      mul\n        /* \"#utility.yul\":16828:16858   */\n      tag_342\n        /* \"#utility.yul\":16846:16857   */\n      dup2\n        /* \"#utility.yul\":16828:16858   */\n      tag_118\n      jump\t// in\n    tag_342:\n        /* \"#utility.yul\":16817:16858   */\n      swap2\n      pop\n        /* \"#utility.yul\":17007:17008   */\n      dup3\n        /* \"#utility.yul\":16998:17005   */\n      dup3\n        /* \"#utility.yul\":16994:17009   */\n      div\n        /* \"#utility.yul\":16991:16992   */\n      dup5\n        /* \"#utility.yul\":16988:17010   */\n      eq\n        /* \"#utility.yul\":16968:16969   */\n      dup4\n        /* \"#utility.yul\":16961:16970   */\n      iszero\n        /* \"#utility.yul\":16941:17024   */\n      or\n        /* \"#utility.yul\":16918:17057   */\n      tag_343\n      jumpi\n        /* \"#utility.yul\":17037:17055   */\n      tag_344\n      tag_163\n      jump\t// in\n    tag_344:\n        /* \"#utility.yul\":16918:17057   */\n    tag_343:\n        /* \"#utility.yul\":16702:17064   */\n      pop\n        /* \"#utility.yul\":16654:17064   */\n      swap3\n      swap2\n      pop\n      pop\n      jump\t// out\n        /* \"#utility.yul\":17070:17250   */\n    tag_164:\n        /* \"#utility.yul\":17118:17195   */\n      0x4e487b7100000000000000000000000000000000000000000000000000000000\n        /* \"#utility.yul\":17115:17116   */\n      0x00\n        /* \"#utility.yul\":17108:17196   */\n      mstore\n        /* \"#utility.yul\":17215:17219   */\n      0x12\n        /* \"#utility.yul\":17212:17213   */\n      0x04\n        /* \"#utility.yul\":17205:17220   */\n      mstore\n        /* \"#utility.yul\":17239:17243   */\n      0x24\n        /* \"#utility.yul\":17236:17237   */\n      0x00\n        /* \"#utility.yul\":17229:17244   */\n      revert\n        /* \"#utility.yul\":17256:17441   */\n    tag_88:\n        /* \"#utility.yul\":17296:17297   */\n      0x00\n        /* \"#utility.yul\":17313:17333   */\n      tag_347\n        /* \"#utility.yul\":17331:17332   */\n      dup3\n        /* \"#utility.yul\":17313:17333   */\n      tag_118\n      jump\t// in\n    tag_347:\n        /* \"#utility.yul\":17308:17333   */\n      swap2\n      pop\n        /* \"#utility.yul\":17347:17367   */\n      tag_348\n        /* \"#utility.yul\":17365:17366   */\n      dup4\n        /* \"#utility.yul\":17347:17367   */\n      tag_118\n      jump\t// in\n    tag_348:\n        /* \"#utility.yul\":17342:17367   */\n      swap3\n      pop\n        /* \"#utility.yul\":17386:17387   */\n      dup3\n        /* \"#utility.yul\":17376:17411   */\n      tag_349\n      jumpi\n        /* \"#utility.yul\":17391:17409   */\n      tag_350\n      tag_164\n      jump\t// in\n    tag_350:\n        /* \"#utility.yul\":17376:17411   */\n    tag_349:\n        /* \"#utility.yul\":17433:17434   */\n      dup3\n        /* \"#utility.yul\":17430:17431   */\n      dup3\n        /* \"#utility.yul\":17426:17435   */\n      div\n        /* \"#utility.yul\":17421:17435   */\n      swap1\n      pop\n        /* \"#utility.yul\":17256:17441   */\n      swap3\n      swap2\n      pop\n      pop\n      jump\t// out\n        /* \"#utility.yul\":17447:17624   */\n    tag_165:\n        /* \"#utility.yul\":17587:17616   */\n      0x467265656c616e63657220616c72656164792061737369676e65640000000000\n        /* \"#utility.yul\":17583:17584   */\n      0x00\n        /* \"#utility.yul\":17575:17581   */\n      dup3\n        /* \"#utility.yul\":17571:17585   */\n      add\n        /* \"#utility.yul\":17564:17617   */\n      mstore\n        /* \"#utility.yul\":17447:17624   */\n      pop\n      jump\t// out\n        /* \"#utility.yul\":17630:17996   */\n    tag_166:\n        /* \"#utility.yul\":17772:17775   */\n      0x00\n        /* \"#utility.yul\":17793:17860   */\n      tag_353\n        /* \"#utility.yul\":17857:17859   */\n      0x1b\n        /* \"#utility.yul\":17852:17855   */\n      dup4\n        /* \"#utility.yul\":17793:17860   */\n      tag_126\n      jump\t// in\n    tag_353:\n        /* \"#utility.yul\":17786:17860   */\n      swap2\n      pop\n        /* \"#utility.yul\":17869:17962   */\n      tag_354\n        /* \"#utility.yul\":17958:17961   */\n      dup3\n        /* \"#utility.yul\":17869:17962   */\n      tag_165\n      jump\t// in\n    tag_354:\n        /* \"#utility.yul\":17987:17989   */\n      0x20\n        /* \"#utility.yul\":17982:17985   */\n      dup3\n        /* \"#utility.yul\":17978:17990   */\n      add\n        /* \"#utility.yul\":17971:17990   */\n      swap1\n      pop\n        /* \"#utility.yul\":17630:17996   */\n      swap2\n      swap1\n      pop\n      jump\t// out\n        /* \"#utility.yul\":18002:18421   */\n    tag_95:\n        /* \"#utility.yul\":18168:18172   */\n      0x00\n        /* \"#utility.yul\":18206:18208   */\n      0x20\n        /* \"#utility.yul\":18195:18204   */\n      dup3\n        /* \"#utility.yul\":18191:18209   */\n      add\n        /* \"#utility.yul\":18183:18209   */\n      swap1\n      pop\n        /* \"#utility.yul\":18255:18264   */\n      dup2\n        /* \"#utility.yul\":18249:18253   */\n      dup2\n        /* \"#utility.yul\":18245:18265   */\n      sub\n        /* \"#utility.yul\":18241:18242   */\n      0x00\n        /* \"#utility.yul\":18230:18239   */\n      dup4\n        /* \"#utility.yul\":18226:18243   */\n      add\n        /* \"#utility.yul\":18219:18266   */\n      mstore\n        /* \"#utility.yul\":18283:18414   */\n      tag_356\n        /* \"#utility.yul\":18409:18413   */\n      dup2\n        /* \"#utility.yul\":18283:18414   */\n      tag_166\n      jump\t// in\n    tag_356:\n        /* \"#utility.yul\":18275:18414   */\n      swap1\n      pop\n        /* \"#utility.yul\":18002:18421   */\n      swap2\n      swap1\n      pop\n      jump\t// out\n        /* \"#utility.yul\":18427:18600   */\n    tag_167:\n        /* \"#utility.yul\":18567:18592   */\n      0x50726f6a65637420646561646c696e6520706173736564000000000000000000\n        /* \"#utility.yul\":18563:18564   */\n      0x00\n        /* \"#utility.yul\":18555:18561   */\n      dup3\n        /* \"#utility.yul\":18551:18565   */\n      add\n        /* \"#utility.yul\":18544:18593   */\n      mstore\n        /* \"#utility.yul\":18427:18600   */\n      pop\n      jump\t// out\n        /* \"#utility.yul\":18606:18972   */\n    tag_168:\n        /* \"#utility.yul\":18748:18751   */\n      0x00\n        /* \"#utility.yul\":18769:18836   */\n      tag_359\n        /* \"#utility.yul\":18833:18835   */\n      0x17\n        /* \"#utility.yul\":18828:18831   */\n      dup4\n        /* \"#utility.yul\":18769:18836   */\n      tag_126\n      jump\t// in\n    tag_359:\n        /* \"#utility.yul\":18762:18836   */\n      swap2\n      pop\n        /* \"#utility.yul\":18845:18938   */\n      tag_360\n        /* \"#utility.yul\":18934:18937   */\n      dup3\n        /* \"#utility.yul\":18845:18938   */\n      tag_167\n      jump\t// in\n    tag_360:\n        /* \"#utility.yul\":18963:18965   */\n      0x20\n        /* \"#utility.yul\":18958:18961   */\n      dup3\n        /* \"#utility.yul\":18954:18966   */\n      add\n        /* \"#utility.yul\":18947:18966   */\n      swap1\n      pop\n        /* \"#utility.yul\":18606:18972   */\n      swap2\n      swap1\n      pop\n      jump\t// out\n        /* \"#utility.yul\":18978:19397   */\n    tag_98:\n        /* \"#utility.yul\":19144:19148   */\n      0x00\n        /* \"#utility.yul\":19182:19184   */\n      0x20\n        /* \"#utility.yul\":19171:19180   */\n      dup3\n        /* \"#utility.yul\":19167:19185   */\n      add\n        /* \"#utility.yul\":19159:19185   */\n      swap1\n      pop\n        /* \"#utility.yul\":19231:19240   */\n      dup2\n        /* \"#utility.yul\":19225:19229   */\n      dup2\n        /* \"#utility.yul\":19221:19241   */\n      sub\n        /* \"#utility.yul\":19217:19218   */\n      0x00\n        /* \"#utility.yul\":19206:19215   */\n      dup4\n        /* \"#utility.yul\":19202:19219   */\n      add\n        /* \"#utility.yul\":19195:19242   */\n      mstore\n        /* \"#utility.yul\":19259:19390   */\n      tag_362\n        /* \"#utility.yul\":19385:19389   */\n      dup2\n        /* \"#utility.yul\":19259:19390   */\n      tag_168\n      jump\t// in\n    tag_362:\n        /* \"#utility.yul\":19251:19390   */\n      swap1\n      pop\n        /* \"#utility.yul\":18978:19397   */\n      swap2\n      swap1\n      pop\n      jump\t// out\n        /* \"#utility.yul\":19403:19579   */\n    tag_169:\n        /* \"#utility.yul\":19543:19571   */\n      0x427564676574206d757374206d617463682073656e7420455448000000000000\n        /* \"#utility.yul\":19539:19540   */\n      0x00\n        /* \"#utility.yul\":19531:19537   */\n      dup3\n        /* \"#utility.yul\":19527:19541   */\n      add\n        /* \"#utility.yul\":19520:19572   */\n      mstore\n        /* \"#utility.yul\":19403:19579   */\n      pop\n      jump\t// out\n        /* \"#utility.yul\":19585:19951   */\n    tag_170:\n        /* \"#utility.yul\":19727:19730   */\n      0x00\n        /* \"#utility.yul\":19748:19815   */\n      tag_365\n        /* \"#utility.yul\":19812:19814   */\n      0x1a\n        /* \"#utility.yul\":19807:19810   */\n      dup4\n        /* \"#utility.yul\":19748:19815   */\n      tag_126\n      jump\t// in\n    tag_365:\n        /* \"#utility.yul\":19741:19815   */\n      swap2\n      pop\n        /* \"#utility.yul\":19824:19917   */\n      tag_366\n        /* \"#utility.yul\":19913:19916   */\n      dup3\n        /* \"#utility.yul\":19824:19917   */\n      tag_169\n      jump\t// in\n    tag_366:\n        /* \"#utility.yul\":19942:19944   */\n      0x20\n        /* \"#utility.yul\":19937:19940   */\n      dup3\n        /* \"#utility.yul\":19933:19945   */\n      add\n        /* \"#utility.yul\":19926:19945   */\n      swap1\n      pop\n        /* \"#utility.yul\":19585:19951   */\n      swap2\n      swap1\n      pop\n      jump\t// out\n        /* \"#utility.yul\":19957:20376   */\n    tag_102:\n        /* \"#utility.yul\":20123:20127   */\n      0x00\n        /* \"#utility.yul\":20161:20163   */\n      0x20\n        /* \"#utility.yul\":20150:20159   */\n      dup3\n        /* \"#utility.yul\":20146:20164   */\n      add\n        /* \"#utility.yul\":20138:20164   */\n      swap1\n      pop\n        /* \"#utility.yul\":20210:20219   */\n      dup2\n        /* \"#utility.yul\":20204:20208   */\n      dup2\n        /* \"#utility.yul\":20200:20220   */\n      sub\n        /* \"#utility.yul\":20196:20197   */\n      0x00\n        /* \"#utility.yul\":20185:20194   */\n      dup4\n        /* \"#utility.yul\":20181:20198   */\n      add\n        /* \"#utility.yul\":20174:20221   */\n      mstore\n        /* \"#utility.yul\":20238:20369   */\n      tag_368\n        /* \"#utility.yul\":20364:20368   */\n      dup2\n        /* \"#utility.yul\":20238:20369   */\n      tag_170\n      jump\t// in\n    tag_368:\n        /* \"#utility.yul\":20230:20369   */\n      swap1\n      pop\n        /* \"#utility.yul\":19957:20376   */\n      swap2\n      swap1\n      pop\n      jump\t// out\n        /* \"#utility.yul\":20382:20553   */\n    tag_171:\n        /* \"#utility.yul\":20522:20545   */\n      0x4465736372697074696f6e20746f6f2073686f72740000000000000000000000\n        /* \"#utility.yul\":20518:20519   */\n      0x00\n        /* \"#utility.yul\":20510:20516   */\n      dup3\n        /* \"#utility.yul\":20506:20520   */\n      add\n        /* \"#utility.yul\":20499:20546   */\n      mstore\n        /* \"#utility.yul\":20382:20553   */\n      pop\n      jump\t// out\n        /* \"#utility.yul\":20559:20925   */\n    tag_172:\n        /* \"#utility.yul\":20701:20704   */\n      0x00\n        /* \"#utility.yul\":20722:20789   */\n      tag_371\n        /* \"#utility.yul\":20786:20788   */\n      0x15\n        /* \"#utility.yul\":20781:20784   */\n      dup4\n        /* \"#utility.yul\":20722:20789   */\n      tag_126\n      jump\t// in\n    tag_371:\n        /* \"#utility.yul\":20715:20789   */\n      swap2\n      pop\n        /* \"#utility.yul\":20798:20891   */\n      tag_372\n        /* \"#utility.yul\":20887:20890   */\n      dup3\n        /* \"#utility.yul\":20798:20891   */\n      tag_171\n      jump\t// in\n    tag_372:\n        /* \"#utility.yul\":20916:20918   */\n      0x20\n        /* \"#utility.yul\":20911:20914   */\n      dup3\n        /* \"#utility.yul\":20907:20919   */\n      add\n        /* \"#utility.yul\":20900:20919   */\n      swap1\n      pop\n        /* \"#utility.yul\":20559:20925   */\n      swap2\n      swap1\n      pop\n      jump\t// out\n        /* \"#utility.yul\":20931:21350   */\n    tag_105:\n        /* \"#utility.yul\":21097:21101   */\n      0x00\n        /* \"#utility.yul\":21135:21137   */\n      0x20\n        /* \"#utility.yul\":21124:21133   */\n      dup3\n        /* \"#utility.yul\":21120:21138   */\n      add\n        /* \"#utility.yul\":21112:21138   */\n      swap1\n      pop\n        /* \"#utility.yul\":21184:21193   */\n      dup2\n        /* \"#utility.yul\":21178:21182   */\n      dup2\n        /* \"#utility.yul\":21174:21194   */\n      sub\n        /* \"#utility.yul\":21170:21171   */\n      0x00\n        /* \"#utility.yul\":21159:21168   */\n      dup4\n        /* \"#utility.yul\":21155:21172   */\n      add\n        /* \"#utility.yul\":21148:21195   */\n      mstore\n        /* \"#utility.yul\":21212:21343   */\n      tag_374\n        /* \"#utility.yul\":21338:21342   */\n      dup2\n        /* \"#utility.yul\":21212:21343   */\n      tag_172\n      jump\t// in\n    tag_374:\n        /* \"#utility.yul\":21204:21343   */\n      swap1\n      pop\n        /* \"#utility.yul\":20931:21350   */\n      swap2\n      swap1\n      pop\n      jump\t// out\n        /* \"#utility.yul\":21356:21536   */\n    tag_173:\n        /* \"#utility.yul\":21496:21528   */\n      0x446561646c696e65206d75737420626520696e20746865206675747572650000\n        /* \"#utility.yul\":21492:21493   */\n      0x00\n        /* \"#utility.yul\":21484:21490   */\n      dup3\n        /* \"#utility.yul\":21480:21494   */\n      add\n        /* \"#utility.yul\":21473:21529   */\n      mstore\n        /* \"#utility.yul\":21356:21536   */\n      pop\n      jump\t// out\n        /* \"#utility.yul\":21542:21908   */\n    tag_174:\n        /* \"#utility.yul\":21684:21687   */\n      0x00\n        /* \"#utility.yul\":21705:21772   */\n      tag_377\n        /* \"#utility.yul\":21769:21771   */\n      0x1e\n        /* \"#utility.yul\":21764:21767   */\n      dup4\n        /* \"#utility.yul\":21705:21772   */\n      tag_126\n      jump\t// in\n    tag_377:\n        /* \"#utility.yul\":21698:21772   */\n      swap2\n      pop\n        /* \"#utility.yul\":21781:21874   */\n      tag_378\n        /* \"#utility.yul\":21870:21873   */\n      dup3\n        /* \"#utility.yul\":21781:21874   */\n      tag_173\n      jump\t// in\n    tag_378:\n        /* \"#utility.yul\":21899:21901   */\n      0x20\n        /* \"#utility.yul\":21894:21897   */\n      dup3\n        /* \"#utility.yul\":21890:21902   */\n      add\n        /* \"#utility.yul\":21883:21902   */\n      swap1\n      pop\n        /* \"#utility.yul\":21542:21908   */\n      swap2\n      swap1\n      pop\n      jump\t// out\n        /* \"#utility.yul\":21914:22333   */\n    tag_108:\n        /* \"#utility.yul\":22080:22084   */\n      0x00\n        /* \"#utility.yul\":22118:22120   */\n      0x20\n        /* \"#utility.yul\":22107:22116   */\n      dup3\n        /* \"#utility.yul\":22103:22121   */\n      add\n        /* \"#utility.yul\":22095:22121   */\n      swap1\n      pop\n        /* \"#utility.yul\":22167:22176   */\n      dup2\n        /* \"#utility.yul\":22161:22165   */\n      dup2\n        /* \"#utility.yul\":22157:22177   */\n      sub\n        /* \"#utility.yul\":22153:22154   */\n      0x00\n        /* \"#utility.yul\":22142:22151   */\n      dup4\n        /* \"#utility.yul\":22138:22155   */\n      add\n        /* \"#utility.yul\":22131:22178   */\n      mstore\n        /* \"#utility.yul\":22195:22326   */\n      tag_380\n        /* \"#utility.yul\":22321:22325   */\n      dup2\n        /* \"#utility.yul\":22195:22326   */\n      tag_174\n      jump\t// in\n    tag_380:\n        /* \"#utility.yul\":22187:22326   */\n      swap1\n      pop\n        /* \"#utility.yul\":21914:22333   */\n      swap2\n      swap1\n      pop\n      jump\t// out\n        /* \"#utility.yul\":22339:22480   */\n    tag_175:\n        /* \"#utility.yul\":22388:22392   */\n      0x00\n        /* \"#utility.yul\":22411:22414   */\n      dup2\n        /* \"#utility.yul\":22403:22414   */\n      swap1\n      pop\n        /* \"#utility.yul\":22434:22437   */\n      dup2\n        /* \"#utility.yul\":22431:22432   */\n      0x00\n        /* \"#utility.yul\":22424:22438   */\n      mstore\n        /* \"#utility.yul\":22468:22472   */\n      0x20\n        /* \"#utility.yul\":22465:22466   */\n      0x00\n        /* \"#utility.yul\":22455:22473   */\n      keccak256\n        /* \"#utility.yul\":22447:22473   */\n      swap1\n      pop\n        /* \"#utility.yul\":22339:22480   */\n      swap2\n      swap1\n      pop\n      jump\t// out\n        /* \"#utility.yul\":22486:22579   */\n    tag_176:\n        /* \"#utility.yul\":22523:22529   */\n      0x00\n        /* \"#utility.yul\":22570:22572   */\n      0x20\n        /* \"#utility.yul\":22565:22567   */\n      0x1f\n        /* \"#utility.yul\":22558:22563   */\n      dup4\n        /* \"#utility.yul\":22554:22568   */\n      add\n        /* \"#utility.yul\":22550:22573   */\n      div\n        /* \"#utility.yul\":22540:22573   */\n      swap1\n      pop\n        /* \"#utility.yul\":22486:22579   */\n      swap2\n      swap1\n      pop\n      jump\t// out\n        /* \"#utility.yul\":22585:22692   */\n    tag_177:\n        /* \"#utility.yul\":22629:22637   */\n      0x00\n        /* \"#utility.yul\":22679:22684   */\n      dup3\n        /* \"#utility.yul\":22673:22677   */\n      dup3\n        /* \"#utility.yul\":22669:22685   */\n      shl\n        /* \"#utility.yul\":22648:22685   */\n      swap1\n      pop\n        /* \"#utility.yul\":22585:22692   */\n      swap3\n      swap2\n      pop\n      pop\n      jump\t// out\n        /* \"#utility.yul\":22698:23091   */\n    tag_178:\n        /* \"#utility.yul\":22767:22773   */\n      0x00\n        /* \"#utility.yul\":22817:22818   */\n      0x08\n        /* \"#utility.yul\":22805:22815   */\n      dup4\n        /* \"#utility.yul\":22801:22819   */\n      mul\n        /* \"#utility.yul\":22840:22937   */\n      tag_385\n        /* \"#utility.yul\":22870:22936   */\n      0xffffffffffffffffffffffffffffffffffffffffffffffffffffffffffffffff\n        /* \"#utility.yul\":22859:22868   */\n      dup3\n        /* \"#utility.yul\":22840:22937   */\n      tag_177\n      jump\t// in\n    tag_385:\n        /* \"#utility.yul\":22958:22997   */\n      tag_386\n        /* \"#utility.yul\":22988:22996   */\n      dup7\n        /* \"#utility.yul\":22977:22986   */\n      dup4\n        /* \"#utility.yul\":22958:22997   */\n      tag_177\n      jump\t// in\n    tag_386:\n        /* \"#utility.yul\":22946:22997   */\n      swap6\n      pop\n        /* \"#utility.yul\":23030:23034   */\n      dup1\n        /* \"#utility.yul\":23026:23035   */\n      not\n        /* \"#utility.yul\":23019:23024   */\n      dup5\n        /* \"#utility.yul\":23015:23036   */\n      and\n        /* \"#utility.yul\":23006:23036   */\n      swap4\n      pop\n        /* \"#utility.yul\":23079:23083   */\n      dup1\n        /* \"#utility.yul\":23069:23077   */\n      dup7\n        /* \"#utility.yul\":23065:23084   */\n      and\n        /* \"#utility.yul\":23058:23063   */\n      dup5\n        /* \"#utility.yul\":23055:23085   */\n      or\n        /* \"#utility.yul\":23045:23085   */\n      swap3\n      pop\n        /* \"#utility.yul\":22774:23091   */\n      pop\n      pop\n        /* \"#utility.yul\":22698:23091   */\n      swap4\n      swap3\n      pop\n      pop\n      pop\n      jump\t// out\n        /* \"#utility.yul\":23097:23157   */\n    tag_179:\n        /* \"#utility.yul\":23125:23128   */\n      0x00\n        /* \"#utility.yul\":23146:23151   */\n      dup2\n        /* \"#utility.yul\":23139:23151   */\n      swap1\n      pop\n        /* \"#utility.yul\":23097:23157   */\n      swap2\n      swap1\n      pop\n      jump\t// out\n        /* \"#utility.yul\":23163:23305   */\n    tag_180:\n        /* \"#utility.yul\":23213:23222   */\n      0x00\n        /* \"#utility.yul\":23246:23299   */\n      tag_389\n        /* \"#utility.yul\":23264:23298   */\n      tag_390\n        /* \"#utility.yul\":23273:23297   */\n      tag_391\n        /* \"#utility.yul\":23291:23296   */\n      dup5\n        /* \"#utility.yul\":23273:23297   */\n      tag_118\n      jump\t// in\n    tag_391:\n        /* \"#utility.yul\":23264:23298   */\n      tag_179\n      jump\t// in\n    tag_390:\n        /* \"#utility.yul\":23246:23299   */\n      tag_118\n      jump\t// in\n    tag_389:\n        /* \"#utility.yul\":23233:23299   */\n      swap1\n      pop\n        /* \"#utility.yul\":23163:23305   */\n      swap2\n      swap1\n      pop\n      jump\t// out\n        /* \"#utility.yul\":23311:23386   */\n    tag_181:\n        /* \"#utility.yul\":23354:23357   */\n      0x00\n        /* \"#utility.yul\":23375:23380   */\n      dup2\n        /* \"#utility.yul\":23368:23380   */\n      swap1\n      pop\n        /* \"#utility.yul\":23311:23386   */\n      swap2\n      swap1\n      pop\n      jump\t// out\n        /* \"#utility.yul\":23392:23661   */\n    tag_182:\n        /* \"#utility.yul\":23502:23541   */\n      tag_394\n        /* \"#utility.yul\":23533:23540   */\n      dup4\n        /* \"#utility.yul\":23502:23541   */\n      tag_180\n      jump\t// in\n    tag_394:\n        /* \"#utility.yul\":23563:23654   */\n      tag_395\n        /* \"#utility.yul\":23612:23653   */\n      tag_396\n        /* \"#utility.yul\":23636:23652   */\n      dup3\n        /* \"#utility.yul\":23612:23653   */\n      tag_181\n      jump\t// in\n    tag_396:\n        /* \"#utility.yul\":23604:23610   */\n      dup5\n        /* \"#utility.yul\":23597:23601   */\n      dup5\n        /* \"#utility.yul\":23591:23602   */\n      sload\n        /* \"#utility.yul\":23563:23654   */\n      tag_178\n      jump\t// in\n    tag_395:\n        /* \"#utility.yul\":23557:23561   */\n      dup3\n        /* \"#utility.yul\":23550:23655   */\n      sstore\n        /* \"#utility.yul\":23468:23661   */\n      pop\n        /* \"#utility.yul\":23392:23661   */\n      pop\n      pop\n      pop\n      jump\t// out\n        /* \"#utility.yul\":23667:23740   */\n    tag_183:\n        /* \"#utility.yul\":23712:23715   */\n      0x00\n        /* \"#utility.yul\":23667:23740   */\n      swap1\n      jump\t// out\n        /* \"#utility.yul\":23746:23935   */\n    tag_184:\n        /* \"#utility.yul\":23823:23855   */\n      tag_399\n      tag_183\n      jump\t// in\n    tag_399:\n        /* \"#utility.yul\":23864:23929   */\n      tag_400\n        /* \"#utility.yul\":23922:23928   */\n      dup2\n        /* \"#utility.yul\":23914:23920   */\n      dup5\n        /* \"#utility.yul\":23908:23912   */\n      dup5\n        /* \"#utility.yul\":23864:23929   */\n      tag_182\n      jump\t// in\n    tag_400:\n        /* \"#utility.yul\":23799:23935   */\n      pop\n        /* \"#utility.yul\":23746:23935   */\n      pop\n      pop\n      jump\t// out\n        /* \"#utility.yul\":23941:24127   */\n    tag_185:\n        /* \"#utility.yul\":24001:24121   */\n    tag_402:\n        /* \"#utility.yul\":24018:24021   */\n      dup2\n        /* \"#utility.yul\":24011:24016   */\n      dup2\n        /* \"#utility.yul\":24008:24022   */\n      lt\n        /* \"#utility.yul\":24001:24121   */\n      iszero\n      tag_404\n      jumpi\n        /* \"#utility.yul\":24072:24111   */\n      tag_405\n        /* \"#utility.yul\":24109:24110   */\n      0x00\n        /* \"#utility.yul\":24102:24107   */\n      dup3\n        /* \"#utility.yul\":24072:24111   */\n      tag_184\n      jump\t// in\n    tag_405:\n        /* \"#utility.yul\":24045:24046   */\n      0x01\n        /* \"#utility.yul\":24038:24043   */\n      dup2\n        /* \"#utility.yul\":24034:24047   */\n      add\n        /* \"#utility.yul\":24025:24047   */\n      swap1\n      pop\n        /* \"#utility.yul\":24001:24121   */\n      jump(tag_402)\n    tag_404:\n        /* \"#utility.yul\":23941:24127   */\n      pop\n      pop\n      jump\t// out\n        /* \"#utility.yul\":24133:24676   */\n    tag_186:\n        /* \"#utility.yul\":24234:24236   */\n      0x1f\n        /* \"#utility.yul\":24229:24232   */\n      dup3\n        /* \"#utility.yul\":24226:24237   */\n      gt\n        /* \"#utility.yul\":24223:24669   */\n      iszero\n      tag_407\n      jumpi\n        /* \"#utility.yul\":24268:24306   */\n      tag_408\n        /* \"#utility.yul\":24300:24305   */\n      dup2\n        /* \"#utility.yul\":24268:24306   */\n      tag_175\n      jump\t// in\n    tag_408:\n        /* \"#utility.yul\":24352:24381   */\n      tag_409\n        /* \"#utility.yul\":24370:24380   */\n      dup5\n        /* \"#utility.yul\":24352:24381   */\n      tag_176\n      jump\t// in\n    tag_409:\n        /* \"#utility.yul\":24342:24350   */\n      dup2\n        /* \"#utility.yul\":24338:24382   */\n      add\n        /* \"#utility.yul\":24535:24537   */\n      0x20\n        /* \"#utility.yul\":24523:24533   */\n      dup6\n        /* \"#utility.yul\":24520:24538   */\n      lt\n        /* \"#utility.yul\":24517:24566   */\n      iszero\n      tag_410\n      jumpi\n        /* \"#utility.yul\":24556:24564   */\n      dup2\n        /* \"#utility.yul\":24541:24564   */\n      swap1\n      pop\n        /* \"#utility.yul\":24517:24566   */\n    tag_410:\n        /* \"#utility.yul\":24579:24659   */\n      tag_411\n        /* \"#utility.yul\":24635:24657   */\n      tag_412\n        /* \"#utility.yul\":24653:24656   */\n      dup6\n        /* \"#utility.yul\":24635:24657   */\n      tag_176\n      jump\t// in\n    tag_412:\n        /* \"#utility.yul\":24625:24633   */\n      dup4\n        /* \"#utility.yul\":24621:24658   */\n      add\n        /* \"#utility.yul\":24608:24619   */\n      dup3\n        /* \"#utility.yul\":24579:24659   */\n      tag_185\n      jump\t// in\n    tag_411:\n        /* \"#utility.yul\":24238:24669   */\n      pop\n      pop\n        /* \"#utility.yul\":24223:24669   */\n    tag_407:\n        /* \"#utility.yul\":24133:24676   */\n      pop\n      pop\n      pop\n      jump\t// out\n        /* \"#utility.yul\":24682:24799   */\n    tag_187:\n        /* \"#utility.yul\":24736:24744   */\n      0x00\n        /* \"#utility.yul\":24786:24791   */\n      dup3\n        /* \"#utility.yul\":24780:24784   */\n      dup3\n        /* \"#utility.yul\":24776:24792   */\n      shr\n        /* \"#utility.yul\":24755:24792   */\n      swap1\n      pop\n        /* \"#utility.yul\":24682:24799   */\n      swap3\n      swap2\n      pop\n      pop\n      jump\t// out\n        /* \"#utility.yul\":24805:24974   */\n    tag_188:\n        /* \"#utility.yul\":24849:24855   */\n      0x00\n        /* \"#utility.yul\":24882:24933   */\n      tag_415\n        /* \"#utility.yul\":24930:24931   */\n      0x00\n        /* \"#utility.yul\":24926:24932   */\n      not\n        /* \"#utility.yul\":24918:24923   */\n      dup5\n        /* \"#utility.yul\":24915:24916   */\n      0x08\n        /* \"#utility.yul\":24911:24924   */\n      mul\n        /* \"#utility.yul\":24882:24933   */\n      tag_187\n      jump\t// in\n    tag_415:\n        /* \"#utility.yul\":24878:24934   */\n      not\n        /* \"#utility.yul\":24963:24967   */\n      dup1\n        /* \"#utility.yul\":24957:24961   */\n      dup4\n        /* \"#utility.yul\":24953:24968   */\n      and\n        /* \"#utility.yul\":24943:24968   */\n      swap2\n      pop\n        /* \"#utility.yul\":24856:24974   */\n      pop\n        /* \"#utility.yul\":24805:24974   */\n      swap3\n      swap2\n      pop\n      pop\n      jump\t// out\n        /* \"#utility.yul\":24979:25274   */\n    tag_189:\n        /* \"#utility.yul\":25055:25059   */\n      0x00\n        /* \"#utility.yul\":25201:25230   */\n      tag_417\n        /* \"#utility.yul\":25226:25229   */\n      dup4\n        /* \"#utility.yul\":25220:25224   */\n      dup4\n        /* \"#utility.yul\":25201:25230   */\n      tag_188\n      jump\t// in\n    tag_417:\n        /* \"#utility.yul\":25193:25230   */\n      swap2\n      pop\n        /* \"#utility.yul\":25263:25266   */\n      dup3\n        /* \"#utility.yul\":25260:25261   */\n      0x02\n        /* \"#utility.yul\":25256:25267   */\n      mul\n        /* \"#utility.yul\":25250:25254   */\n      dup3\n        /* \"#utility.yul\":25247:25268   */\n      or\n        /* \"#utility.yul\":25239:25268   */\n      swap1\n      pop\n        /* \"#utility.yul\":24979:25274   */\n      swap3\n      swap2\n      pop\n      pop\n      jump\t// out\n        /* \"#utility.yul\":25279:26674   */\n    tag_110:\n        /* \"#utility.yul\":25396:25433   */\n      tag_419\n        /* \"#utility.yul\":25429:25432   */\n      dup3\n        /* \"#utility.yul\":25396:25433   */\n      tag_125\n      jump\t// in\n    tag_419:\n        /* \"#utility.yul\":25498:25516   */\n      0xffffffffffffffff\n        /* \"#utility.yul\":25490:25496   */\n      dup2\n        /* \"#utility.yul\":25487:25517   */\n      gt\n        /* \"#utility.yul\":25484:25540   */\n      iszero\n      tag_420\n      jumpi\n        /* \"#utility.yul\":25520:25538   */\n      tag_421\n      tag_142\n      jump\t// in\n    tag_421:\n        /* \"#utility.yul\":25484:25540   */\n    tag_420:\n        /* \"#utility.yul\":25564:25602   */\n      tag_422\n        /* \"#utility.yul\":25596:25600   */\n      dup3\n        /* \"#utility.yul\":25590:25601   */\n      sload\n        /* \"#utility.yul\":25564:25602   */\n      tag_47\n      jump\t// in\n    tag_422:\n        /* \"#utility.yul\":25649:25716   */\n      tag_423\n        /* \"#utility.yul\":25709:25715   */\n      dup3\n        /* \"#utility.yul\":25701:25707   */\n      dup3\n        /* \"#utility.yul\":25695:25699   */\n      dup6\n        /* \"#utility.yul\":25649:25716   */\n      tag_186\n      jump\t// in\n    tag_423:\n        /* \"#utility.yul\":25743:25744   */\n      0x00\n        /* \"#utility.yul\":25767:25771   */\n      0x20\n        /* \"#utility.yul\":25754:25771   */\n      swap1\n      pop\n        /* \"#utility.yul\":25799:25801   */\n      0x1f\n        /* \"#utility.yul\":25791:25797   */\n      dup4\n        /* \"#utility.yul\":25788:25802   */\n      gt\n        /* \"#utility.yul\":25816:25817   */\n      0x01\n        /* \"#utility.yul\":25811:26429   */\n      dup2\n      eq\n      tag_425\n      jumpi\n        /* \"#utility.yul\":26473:26474   */\n      0x00\n        /* \"#utility.yul\":26490:26496   */\n      dup5\n        /* \"#utility.yul\":26487:26564   */\n      iszero\n      tag_426\n      jumpi\n        /* \"#utility.yul\":26539:26548   */\n      dup3\n        /* \"#utility.yul\":26534:26537   */\n      dup8\n        /* \"#utility.yul\":26530:26549   */\n      add\n        /* \"#utility.yul\":26524:26550   */\n      mload\n        /* \"#utility.yul\":26515:26550   */\n      swap1\n      pop\n        /* \"#utility.yul\":26487:26564   */\n    tag_426:\n        /* \"#utility.yul\":26590:26657   */\n      tag_427\n        /* \"#utility.yul\":26650:26656   */\n      dup6\n        /* \"#utility.yul\":26643:26648   */\n      dup3\n        /* \"#utility.yul\":26590:26657   */\n      tag_189\n      jump\t// in\n    tag_427:\n        /* \"#utility.yul\":26584:26588   */\n      dup7\n        /* \"#utility.yul\":26577:26658   */\n      sstore\n        /* \"#utility.yul\":26446:26668   */\n      pop\n        /* \"#utility.yul\":25781:26668   */\n      jump(tag_424)\n        /* \"#utility.yul\":25811:26429   */\n    tag_425:\n        /* \"#utility.yul\":25863:25867   */\n      0x1f\n        /* \"#utility.yul\":25859:25868   */\n      not\n        /* \"#utility.yul\":25851:25857   */\n      dup5\n        /* \"#utility.yul\":25847:25869   */\n      and\n        /* \"#utility.yul\":25897:25934   */\n      tag_428\n        /* \"#utility.yul\":25929:25933   */\n      dup7\n        /* \"#utility.yul\":25897:25934   */\n      tag_175\n      jump\t// in\n    tag_428:\n        /* \"#utility.yul\":25956:25957   */\n      0x00\n        /* \"#utility.yul\":25970:26178   */\n    tag_429:\n        /* \"#utility.yul\":25984:25991   */\n      dup3\n        /* \"#utility.yul\":25981:25982   */\n      dup2\n        /* \"#utility.yul\":25978:25992   */\n      lt\n        /* \"#utility.yul\":25970:26178   */\n      iszero\n      tag_431\n      jumpi\n        /* \"#utility.yul\":26063:26072   */\n      dup5\n        /* \"#utility.yul\":26058:26061   */\n      dup10\n        /* \"#utility.yul\":26054:26073   */\n      add\n        /* \"#utility.yul\":26048:26074   */\n      mload\n        /* \"#utility.yul\":26040:26046   */\n      dup3\n        /* \"#utility.yul\":26033:26075   */\n      sstore\n        /* \"#utility.yul\":26114:26115   */\n      0x01\n        /* \"#utility.yul\":26106:26112   */\n      dup3\n        /* \"#utility.yul\":26102:26116   */\n      add\n        /* \"#utility.yul\":26092:26116   */\n      swap2\n      pop\n        /* \"#utility.yul\":26161:26163   */\n      0x20\n        /* \"#utility.yul\":26150:26159   */\n      dup6\n        /* \"#utility.yul\":26146:26164   */\n      add\n        /* \"#utility.yul\":26133:26164   */\n      swap5\n      pop\n        /* \"#utility.yul\":26007:26011   */\n      0x20\n        /* \"#utility.yul\":26004:26005   */\n      dup2\n        /* \"#utility.yul\":26000:26012   */\n      add\n        /* \"#utility.yul\":25995:26012   */\n      swap1\n      pop\n        /* \"#utility.yul\":25970:26178   */\n      jump(tag_429)\n    tag_431:\n        /* \"#utility.yul\":26206:26212   */\n      dup7\n        /* \"#utility.yul\":26197:26204   */\n      dup4\n        /* \"#utility.yul\":26194:26213   */\n      lt\n        /* \"#utility.yul\":26191:26370   */\n      iszero\n      tag_432\n      jumpi\n        /* \"#utility.yul\":26264:26273   */\n      dup5\n        /* \"#utility.yul\":26259:26262   */\n      dup10\n        /* \"#utility.yul\":26255:26274   */\n      add\n        /* \"#utility.yul\":26249:26275   */\n      mload\n        /* \"#utility.yul\":26307:26355   */\n      tag_433\n        /* \"#utility.yul\":26349:26353   */\n      0x1f\n        /* \"#utility.yul\":26341:26347   */\n      dup10\n        /* \"#utility.yul\":26337:26354   */\n      and\n        /* \"#utility.yul\":26326:26335   */\n      dup3\n        /* \"#utility.yul\":26307:26355   */\n      tag_188\n      jump\t// in\n    tag_433:\n        /* \"#utility.yul\":26299:26305   */\n      dup4\n        /* \"#utility.yul\":26292:26356   */\n      sstore\n        /* \"#utility.yul\":26214:26370   */\n      pop\n        /* \"#utility.yul\":26191:26370   */\n    tag_432:\n        /* \"#utility.yul\":26416:26417   */\n      0x01\n        /* \"#utility.yul\":26412:26413   */\n      0x02\n        /* \"#utility.yul\":26404:26410   */\n      dup9\n        /* \"#utility.yul\":26400:26414   */\n      mul\n        /* \"#utility.yul\":26396:26418   */\n      add\n        /* \"#utility.yul\":26390:26394   */\n      dup9\n        /* \"#utility.yul\":26383:26419   */\n      sstore\n        /* \"#utility.yul\":25818:26429   */\n      pop\n      pop\n      pop\n        /* \"#utility.yul\":25781:26668   */\n    tag_424:\n      pop\n        /* \"#utility.yul\":25371:26674   */\n      pop\n      pop\n      pop\n        /* \"#utility.yul\":25279:26674   */\n      pop\n      pop\n      jump\t// out\n        /* \"#utility.yul\":26680:27213   */\n    tag_112:\n        /* \"#utility.yul\":26849:26853   */\n      0x00\n        /* \"#utility.yul\":26887:26889   */\n      0x60\n        /* \"#utility.yul\":26876:26885   */\n      dup3\n        /* \"#utility.yul\":26872:26890   */\n      add\n        /* \"#utility.yul\":26864:26890   */\n      swap1\n      pop\n        /* \"#utility.yul\":26900:26971   */\n      tag_435\n        /* \"#utility.yul\":26968:26969   */\n      0x00\n        /* \"#utility.yul\":26957:26966   */\n      dup4\n        /* \"#utility.yul\":26953:26970   */\n      add\n        /* \"#utility.yul\":26944:26950   */\n      dup7\n        /* \"#utility.yul\":26900:26971   */\n      tag_124\n      jump\t// in\n    tag_435:\n        /* \"#utility.yul\":27018:27027   */\n      dup2\n        /* \"#utility.yul\":27012:27016   */\n      dup2\n        /* \"#utility.yul\":27008:27028   */\n      sub\n        /* \"#utility.yul\":27003:27005   */\n      0x20\n        /* \"#utility.yul\":26992:27001   */\n      dup4\n        /* \"#utility.yul\":26988:27006   */\n      add\n        /* \"#utility.yul\":26981:27029   */\n      mstore\n        /* \"#utility.yul\":27046:27124   */\n      tag_436\n        /* \"#utility.yul\":27119:27123   */\n      dup2\n        /* \"#utility.yul\":27110:27116   */\n      dup6\n        /* \"#utility.yul\":27046:27124   */\n      tag_129\n      jump\t// in\n    tag_436:\n        /* \"#utility.yul\":27038:27124   */\n      swap1\n      pop\n        /* \"#utility.yul\":27134:27206   */\n      tag_437\n        /* \"#utility.yul\":27202:27204   */\n      0x40\n        /* \"#utility.yul\":27191:27200   */\n      dup4\n        /* \"#utility.yul\":27187:27205   */\n      add\n        /* \"#utility.yul\":27178:27184   */\n      dup5\n        /* \"#utility.yul\":27134:27206   */\n      tag_124\n      jump\t// in\n    tag_437:\n        /* \"#utility.yul\":26680:27213   */\n      swap5\n      swap4\n      pop\n      pop\n      pop\n      pop\n      jump\t// out\n        /* \"#utility.yul\":27219:27452   */\n    tag_114:\n        /* \"#utility.yul\":27258:27261   */\n      0x00\n        /* \"#utility.yul\":27281:27305   */\n      tag_439\n        /* \"#utility.yul\":27299:27304   */\n      dup3\n        /* \"#utility.yul\":27281:27305   */\n      tag_118\n      jump\t// in\n    tag_439:\n        /* \"#utility.yul\":27272:27305   */\n      swap2\n      pop\n        /* \"#utility.yul\":27327:27393   */\n      0xffffffffffffffffffffffffffffffffffffffffffffffffffffffffffffffff\n        /* \"#utility.yul\":27320:27325   */\n      dup3\n        /* \"#utility.yul\":27317:27394   */\n      sub\n        /* \"#utility.yul\":27314:27417   */\n      tag_440\n      jumpi\n        /* \"#utility.yul\":27397:27415   */\n      tag_441\n      tag_163\n      jump\t// in\n    tag_441:\n        /* \"#utility.yul\":27314:27417   */\n    tag_440:\n        /* \"#utility.yul\":27444:27445   */\n      0x01\n        /* \"#utility.yul\":27437:27442   */\n      dup3\n        /* \"#utility.yul\":27433:27446   */\n      add\n        /* \"#utility.yul\":27426:27446   */\n      swap1\n      pop\n        /* \"#utility.yul\":27219:27452   */\n      swap2\n      swap1\n      pop\n      jump\t// out\n\n    auxdata: 0xa26469706673582212207d26d2ddcb58e926095ff27f01f9aa14981fb8ad0d3249a79fa8ad24dc8102ce64736f6c634300081a0033\n}\n",
				"bytecode": {
					"linkReferences": {},
					"object": "6080604052348015600e575f80fd5b50611a728061001c5f395ff3fe60806040526004361061006f575f3560e01c80635f8439e31161004d5780635f8439e31461010657806399a5d74714610142578063c949756c1461017e578063f3a6ac5f146101a65761006f565b8063107046bd146100735780632245f152146100b457806336fbad26146100dc575b5f80fd5b34801561007e575f80fd5b5061009960048036038101906100949190610d37565b6101c2565b6040516100ab96959493929190610e3a565b60405180910390f35b3480156100bf575f80fd5b506100da60048036038101906100d59190610d37565b6102ca565b005b3480156100e7575f80fd5b506100f061064a565b6040516100fd9190610ea0565b60405180910390f35b348015610111575f80fd5b5061012c60048036038101906101279190610d37565b61064f565b6040516101399190610fb4565b60405180910390f35b34801561014d575f80fd5b5061016860048036038101906101639190610d37565b6107e1565b6040516101759190610ea0565b60405180910390f35b348015610189575f80fd5b506101a4600480360381019061019f9190610ffe565b610802565b005b6101c060048036038101906101bb9190611168565b610a1a565b005b6001602052805f5260405f205f91509050805f015f9054906101000a900473ffffffffffffffffffffffffffffffffffffffff169080600101549080600201805461020c90611201565b80601f016020809104026020016040519081016040528092919081815260200182805461023890611201565b80156102835780601f1061025a57610100808354040283529160200191610283565b820191905f5260205f20905b81548152906001019060200180831161026657829003601f168201915b505050505090806003015f9054906101000a900473ffffffffffffffffffffffffffffffffffffffff1690806004015490806005015f9054906101000a900460ff16905086565b8060015f8281526020019081526020015f205f015f9054906101000a900473ffffffffffffffffffffffffffffffffffffffff1673ffffffffffffffffffffffffffffffffffffffff163373ffffffffffffffffffffffffffffffffffffffff161461036b576040517f08c379a00000000000000000000000000000000000000000000000000000000081526004016103629061127b565b60405180910390fd5b60025f9054906101000a900460ff16156103ba576040517f08c379a00000000000000000000000000000000000000000000000000000000081526004016103b1906112e3565b60405180910390fd5b600160025f6101000a81548160ff0219169083151502179055505f60015f8481526020019081526020015f209050806005015f9054906101000a900460ff1615610439576040517f08c379a00000000000000000000000000000000000000000000000000000000081526004016104309061134b565b60405180910390fd5b5f73ffffffffffffffffffffffffffffffffffffffff16816003015f9054906101000a900473ffffffffffffffffffffffffffffffffffffffff1673ffffffffffffffffffffffffffffffffffffffff16036104ca576040517f08c379a00000000000000000000000000000000000000000000000000000000081526004016104c1906113b3565b60405180910390fd5b6001816005015f6101000a81548160ff0219169083151502179055505f816003015f9054906101000a900473ffffffffffffffffffffffffffffffffffffffff1673ffffffffffffffffffffffffffffffffffffffff168260010154604051610532906113fe565b5f6040518083038185875af1925050503d805f811461056c576040519150601f19603f3d011682016040523d82523d5f602084013e610571565b606091505b50509050806105b5576040517f08c379a00000000000000000000000000000000000000000000000000000000081526004016105ac9061145c565b60405180910390fd5b816003015f9054906101000a900473ffffffffffffffffffffffffffffffffffffffff1673ffffffffffffffffffffffffffffffffffffffff16847f64768e2ac08926aed9a23761ef7cf9bb1c7d9971cfab10846bb88ceb9353c59384600101546040516106239190610ea0565b60405180910390a350505f60025f6101000a81548160ff0219169083151502179055505050565b5f5481565b610657610c94565b60015f8381526020019081526020015f206040518060c00160405290815f82015f9054906101000a900473ffffffffffffffffffffffffffffffffffffffff1673ffffffffffffffffffffffffffffffffffffffff1673ffffffffffffffffffffffffffffffffffffffff168152602001600182015481526020016002820180546106e190611201565b80601f016020809104026020016040519081016040528092919081815260200182805461070d90611201565b80156107585780601f1061072f57610100808354040283529160200191610758565b820191905f5260205f20905b81548152906001019060200180831161073b57829003601f168201915b50505050508152602001600382015f9054906101000a900473ffffffffffffffffffffffffffffffffffffffff1673ffffffffffffffffffffffffffffffffffffffff1673ffffffffffffffffffffffffffffffffffffffff16815260200160048201548152602001600582015f9054906101000a900460ff1615151515815250509050919050565b5f60646005836107f191906114a7565b6107fb9190611515565b9050919050565b8160015f8281526020019081526020015f205f015f9054906101000a900473ffffffffffffffffffffffffffffffffffffffff1673ffffffffffffffffffffffffffffffffffffffff163373ffffffffffffffffffffffffffffffffffffffff16146108a3576040517f08c379a000000000000000000000000000000000000000000000000000000000815260040161089a9061127b565b60405180910390fd5b5f60015f8581526020019081526020015f2090505f73ffffffffffffffffffffffffffffffffffffffff16816003015f9054906101000a900473ffffffffffffffffffffffffffffffffffffffff1673ffffffffffffffffffffffffffffffffffffffff1614610948576040517f08c379a000000000000000000000000000000000000000000000000000000000815260040161093f9061158f565b60405180910390fd5b8060040154421061098e576040517f08c379a0000000000000000000000000000000000000000000000000000000008152600401610985906115f7565b60405180910390fd5b82816003015f6101000a81548173ffffffffffffffffffffffffffffffffffffffff021916908373ffffffffffffffffffffffffffffffffffffffff1602179055508273ffffffffffffffffffffffffffffffffffffffff16847ff0ea83e301e371212b367969fc7bee10788f52b26d7301f78a04c0209b7a511360405160405180910390a350505050565b813414610a5c576040517f08c379a0000000000000000000000000000000000000000000000000000000008152600401610a539061165f565b60405180910390fd5b600a835111610aa0576040517f08c379a0000000000000000000000000000000000000000000000000000000008152600401610a97906116c7565b60405180910390fd5b428111610ae2576040517f08c379a0000000000000000000000000000000000000000000000000000000008152600401610ad99061172f565b60405180910390fd5b6040518060c001604052803373ffffffffffffffffffffffffffffffffffffffff1681526020018381526020018481526020015f73ffffffffffffffffffffffffffffffffffffffff1681526020018281526020015f151581525060015f805481526020019081526020015f205f820151815f015f6101000a81548173ffffffffffffffffffffffffffffffffffffffff021916908373ffffffffffffffffffffffffffffffffffffffff160217905550602082015181600101556040820151816002019081610bb291906118ea565b506060820151816003015f6101000a81548173ffffffffffffffffffffffffffffffffffffffff021916908373ffffffffffffffffffffffffffffffffffffffff1602179055506080820151816004015560a0820151816005015f6101000a81548160ff0219169083151502179055509050503373ffffffffffffffffffffffffffffffffffffffff165f547f8a65baedf6e1483326be76d39e27c426d213a6461887c0cc57401dcd487978ab848685604051610c71939291906119b9565b60405180910390a35f80815480929190610c8a906119f5565b9190505550505050565b6040518060c001604052805f73ffffffffffffffffffffffffffffffffffffffff1681526020015f8152602001606081526020015f73ffffffffffffffffffffffffffffffffffffffff1681526020015f81526020015f151581525090565b5f604051905090565b5f80fd5b5f80fd5b5f819050919050565b610d1681610d04565b8114610d20575f80fd5b50565b5f81359050610d3181610d0d565b92915050565b5f60208284031215610d4c57610d4b610cfc565b5b5f610d5984828501610d23565b91505092915050565b5f73ffffffffffffffffffffffffffffffffffffffff82169050919050565b5f610d8b82610d62565b9050919050565b610d9b81610d81565b82525050565b610daa81610d04565b82525050565b5f81519050919050565b5f82825260208201905092915050565b8281835e5f83830152505050565b5f601f19601f8301169050919050565b5f610df282610db0565b610dfc8185610dba565b9350610e0c818560208601610dca565b610e1581610dd8565b840191505092915050565b5f8115159050919050565b610e3481610e20565b82525050565b5f60c082019050610e4d5f830189610d92565b610e5a6020830188610da1565b8181036040830152610e6c8187610de8565b9050610e7b6060830186610d92565b610e886080830185610da1565b610e9560a0830184610e2b565b979650505050505050565b5f602082019050610eb35f830184610da1565b92915050565b610ec281610d81565b82525050565b610ed181610d04565b82525050565b5f82825260208201905092915050565b5f610ef182610db0565b610efb8185610ed7565b9350610f0b818560208601610dca565b610f1481610dd8565b840191505092915050565b610f2881610e20565b82525050565b5f60c083015f830151610f435f860182610eb9565b506020830151610f566020860182610ec8565b5060408301518482036040860152610f6e8282610ee7565b9150506060830151610f836060860182610eb9565b506080830151610f966080860182610ec8565b5060a0830151610fa960a0860182610f1f565b508091505092915050565b5f6020820190508181035f830152610fcc8184610f2e565b905092915050565b610fdd81610d81565b8114610fe7575f80fd5b50565b5f81359050610ff881610fd4565b92915050565b5f806040838503121561101457611013610cfc565b5b5f61102185828601610d23565b925050602061103285828601610fea565b9150509250929050565b5f80fd5b5f80fd5b7f4e487b71000000000000000000000000000000000000000000000000000000005f52604160045260245ffd5b61107a82610dd8565b810181811067ffffffffffffffff8211171561109957611098611044565b5b80604052505050565b5f6110ab610cf3565b90506110b78282611071565b919050565b5f67ffffffffffffffff8211156110d6576110d5611044565b5b6110df82610dd8565b9050602081019050919050565b828183375f83830152505050565b5f61110c611107846110bc565b6110a2565b90508281526020810184848401111561112857611127611040565b5b6111338482856110ec565b509392505050565b5f82601f83011261114f5761114e61103c565b5b813561115f8482602086016110fa565b91505092915050565b5f805f6060848603121561117f5761117e610cfc565b5b5f84013567ffffffffffffffff81111561119c5761119b610d00565b5b6111a88682870161113b565b93505060206111b986828701610d23565b92505060406111ca86828701610d23565b9150509250925092565b7f4e487b71000000000000000000000000000000000000000000000000000000005f52602260045260245ffd5b5f600282049050600182168061121857607f821691505b60208210810361122b5761122a6111d4565b5b50919050565b7f4e6f742074686520656d706c6f796572000000000000000000000000000000005f82015250565b5f611265601083610dba565b915061127082611231565b602082019050919050565b5f6020820190508181035f83015261129281611259565b9050919050565b7f5265656e7472616e6379206465746563746564000000000000000000000000005f82015250565b5f6112cd601383610dba565b91506112d882611299565b602082019050919050565b5f6020820190508181035f8301526112fa816112c1565b9050919050565b7f50726f6a65637420616c726561647920636f6d706c65746564000000000000005f82015250565b5f611335601983610dba565b915061134082611301565b602082019050919050565b5f6020820190508181035f83015261136281611329565b9050919050565b7f467265656c616e636572206e6f742061737369676e65640000000000000000005f82015250565b5f61139d601783610dba565b91506113a882611369565b602082019050919050565b5f6020820190508181035f8301526113ca81611391565b9050919050565b5f81905092915050565b50565b5f6113e95f836113d1565b91506113f4826113db565b5f82019050919050565b5f611408826113de565b9150819050919050565b7f5472616e73666572206661696c656400000000000000000000000000000000005f82015250565b5f611446600f83610dba565b915061145182611412565b602082019050919050565b5f6020820190508181035f8301526114738161143a565b9050919050565b7f4e487b71000000000000000000000000000000000000000000000000000000005f52601160045260245ffd5b5f6114b182610d04565b91506114bc83610d04565b92508282026114ca81610d04565b915082820484148315176114e1576114e061147a565b5b5092915050565b7f4e487b71000000000000000000000000000000000000000000000000000000005f52601260045260245ffd5b5f61151f82610d04565b915061152a83610d04565b92508261153a576115396114e8565b5b828204905092915050565b7f467265656c616e63657220616c72656164792061737369676e656400000000005f82015250565b5f611579601b83610dba565b915061158482611545565b602082019050919050565b5f6020820190508181035f8301526115a68161156d565b9050919050565b7f50726f6a65637420646561646c696e65207061737365640000000000000000005f82015250565b5f6115e1601783610dba565b91506115ec826115ad565b602082019050919050565b5f6020820190508181035f83015261160e816115d5565b9050919050565b7f427564676574206d757374206d617463682073656e74204554480000000000005f82015250565b5f611649601a83610dba565b915061165482611615565b602082019050919050565b5f6020820190508181035f8301526116768161163d565b9050919050565b7f4465736372697074696f6e20746f6f2073686f727400000000000000000000005f82015250565b5f6116b1601583610dba565b91506116bc8261167d565b602082019050919050565b5f6020820190508181035f8301526116de816116a5565b9050919050565b7f446561646c696e65206d75737420626520696e207468652066757475726500005f82015250565b5f611719601e83610dba565b9150611724826116e5565b602082019050919050565b5f6020820190508181035f8301526117468161170d565b9050919050565b5f819050815f5260205f209050919050565b5f6020601f8301049050919050565b5f82821b905092915050565b5f600883026117a97fffffffffffffffffffffffffffffffffffffffffffffffffffffffffffffffff8261176e565b6117b3868361176e565b95508019841693508086168417925050509392505050565b5f819050919050565b5f6117ee6117e96117e484610d04565b6117cb565b610d04565b9050919050565b5f819050919050565b611807836117d4565b61181b611813826117f5565b84845461177a565b825550505050565b5f90565b61182f611823565b61183a8184846117fe565b505050565b5b8181101561185d576118525f82611827565b600181019050611840565b5050565b601f8211156118a2576118738161174d565b61187c8461175f565b8101602085101561188b578190505b61189f6118978561175f565b83018261183f565b50505b505050565b5f82821c905092915050565b5f6118c25f19846008026118a7565b1980831691505092915050565b5f6118da83836118b3565b9150826002028217905092915050565b6118f382610db0565b67ffffffffffffffff81111561190c5761190b611044565b5b6119168254611201565b611921828285611861565b5f60209050601f831160018114611952575f8415611940578287015190505b61194a85826118cf565b8655506119b1565b601f1984166119608661174d565b5f5b8281101561198757848901518255600182019150602085019450602081019050611962565b868310156119a457848901516119a0601f8916826118b3565b8355505b6001600288020188555050505b505050505050565b5f6060820190506119cc5f830186610da1565b81810360208301526119de8185610de8565b90506119ed6040830184610da1565b949350505050565b5f6119ff82610d04565b91507fffffffffffffffffffffffffffffffffffffffffffffffffffffffffffffffff8203611a3157611a3061147a565b5b60018201905091905056fea26469706673582212207d26d2ddcb58e926095ff27f01f9aa14981fb8ad0d3249a79fa8ad24dc8102ce64736f6c634300081a0033",
					"opcodes": "PUSH1 0x80 PUSH1 0x40 MSTORE CALLVALUE DUP1 ISZERO PUSH1 0xE JUMPI PUSH0 DUP1 REVERT JUMPDEST POP PUSH2 0x1A72 DUP1 PUSH2 0x1C PUSH0 CODECOPY PUSH0 RETURN INVALID PUSH1 0x80 PUSH1 0x40 MSTORE PUSH1 0x4 CALLDATASIZE LT PUSH2 0x6F JUMPI PUSH0 CALLDATALOAD PUSH1 0xE0 SHR DUP1 PUSH4 0x5F8439E3 GT PUSH2 0x4D JUMPI DUP1 PUSH4 0x5F8439E3 EQ PUSH2 0x106 JUMPI DUP1 PUSH4 0x99A5D747 EQ PUSH2 0x142 JUMPI DUP1 PUSH4 0xC949756C EQ PUSH2 0x17E JUMPI DUP1 PUSH4 0xF3A6AC5F EQ PUSH2 0x1A6 JUMPI PUSH2 0x6F JUMP JUMPDEST DUP1 PUSH4 0x107046BD EQ PUSH2 0x73 JUMPI DUP1 PUSH4 0x2245F152 EQ PUSH2 0xB4 JUMPI DUP1 PUSH4 0x36FBAD26 EQ PUSH2 0xDC JUMPI JUMPDEST PUSH0 DUP1 REVERT JUMPDEST CALLVALUE DUP1 ISZERO PUSH2 0x7E JUMPI PUSH0 DUP1 REVERT JUMPDEST POP PUSH2 0x99 PUSH1 0x4 DUP1 CALLDATASIZE SUB DUP2 ADD SWAP1 PUSH2 0x94 SWAP2 SWAP1 PUSH2 0xD37 JUMP JUMPDEST PUSH2 0x1C2 JUMP JUMPDEST PUSH1 0x40 MLOAD PUSH2 0xAB SWAP7 SWAP6 SWAP5 SWAP4 SWAP3 SWAP2 SWAP1 PUSH2 0xE3A JUMP JUMPDEST PUSH1 0x40 MLOAD DUP1 SWAP2 SUB SWAP1 RETURN JUMPDEST CALLVALUE DUP1 ISZERO PUSH2 0xBF JUMPI PUSH0 DUP1 REVERT JUMPDEST POP PUSH2 0xDA PUSH1 0x4 DUP1 CALLDATASIZE SUB DUP2 ADD SWAP1 PUSH2 0xD5 SWAP2 SWAP1 PUSH2 0xD37 JUMP JUMPDEST PUSH2 0x2CA JUMP JUMPDEST STOP JUMPDEST CALLVALUE DUP1 ISZERO PUSH2 0xE7 JUMPI PUSH0 DUP1 REVERT JUMPDEST POP PUSH2 0xF0 PUSH2 0x64A JUMP JUMPDEST PUSH1 0x40 MLOAD PUSH2 0xFD SWAP2 SWAP1 PUSH2 0xEA0 JUMP JUMPDEST PUSH1 0x40 MLOAD DUP1 SWAP2 SUB SWAP1 RETURN JUMPDEST CALLVALUE DUP1 ISZERO PUSH2 0x111 JUMPI PUSH0 DUP1 REVERT JUMPDEST POP PUSH2 0x12C PUSH1 0x4 DUP1 CALLDATASIZE SUB DUP2 ADD SWAP1 PUSH2 0x127 SWAP2 SWAP1 PUSH2 0xD37 JUMP JUMPDEST PUSH2 0x64F JUMP JUMPDEST PUSH1 0x40 MLOAD PUSH2 0x139 SWAP2 SWAP1 PUSH2 0xFB4 JUMP JUMPDEST PUSH1 0x40 MLOAD DUP1 SWAP2 SUB SWAP1 RETURN JUMPDEST CALLVALUE DUP1 ISZERO PUSH2 0x14D JUMPI PUSH0 DUP1 REVERT JUMPDEST POP PUSH2 0x168 PUSH1 0x4 DUP1 CALLDATASIZE SUB DUP2 ADD SWAP1 PUSH2 0x163 SWAP2 SWAP1 PUSH2 0xD37 JUMP JUMPDEST PUSH2 0x7E1 JUMP JUMPDEST PUSH1 0x40 MLOAD PUSH2 0x175 SWAP2 SWAP1 PUSH2 0xEA0 JUMP JUMPDEST PUSH1 0x40 MLOAD DUP1 SWAP2 SUB SWAP1 RETURN JUMPDEST CALLVALUE DUP1 ISZERO PUSH2 0x189 JUMPI PUSH0 DUP1 REVERT JUMPDEST POP PUSH2 0x1A4 PUSH1 0x4 DUP1 CALLDATASIZE SUB DUP2 ADD SWAP1 PUSH2 0x19F SWAP2 SWAP1 PUSH2 0xFFE JUMP JUMPDEST PUSH2 0x802 JUMP JUMPDEST STOP JUMPDEST PUSH2 0x1C0 PUSH1 0x4 DUP1 CALLDATASIZE SUB DUP2 ADD SWAP1 PUSH2 0x1BB SWAP2 SWAP1 PUSH2 0x1168 JUMP JUMPDEST PUSH2 0xA1A JUMP JUMPDEST STOP JUMPDEST PUSH1 0x1 PUSH1 0x20 MSTORE DUP1 PUSH0 MSTORE PUSH1 0x40 PUSH0 KECCAK256 PUSH0 SWAP2 POP SWAP1 POP DUP1 PUSH0 ADD PUSH0 SWAP1 SLOAD SWAP1 PUSH2 0x100 EXP SWAP1 DIV PUSH20 0xFFFFFFFFFFFFFFFFFFFFFFFFFFFFFFFFFFFFFFFF AND SWAP1 DUP1 PUSH1 0x1 ADD SLOAD SWAP1 DUP1 PUSH1 0x2 ADD DUP1 SLOAD PUSH2 0x20C SWAP1 PUSH2 0x1201 JUMP JUMPDEST DUP1 PUSH1 0x1F ADD PUSH1 0x20 DUP1 SWAP2 DIV MUL PUSH1 0x20 ADD PUSH1 0x40 MLOAD SWAP1 DUP2 ADD PUSH1 0x40 MSTORE DUP1 SWAP3 SWAP2 SWAP1 DUP2 DUP2 MSTORE PUSH1 0x20 ADD DUP3 DUP1 SLOAD PUSH2 0x238 SWAP1 PUSH2 0x1201 JUMP JUMPDEST DUP1 ISZERO PUSH2 0x283 JUMPI DUP1 PUSH1 0x1F LT PUSH2 0x25A JUMPI PUSH2 0x100 DUP1 DUP4 SLOAD DIV MUL DUP4 MSTORE SWAP2 PUSH1 0x20 ADD SWAP2 PUSH2 0x283 JUMP JUMPDEST DUP3 ADD SWAP2 SWAP1 PUSH0 MSTORE PUSH1 0x20 PUSH0 KECCAK256 SWAP1 JUMPDEST DUP2 SLOAD DUP2 MSTORE SWAP1 PUSH1 0x1 ADD SWAP1 PUSH1 0x20 ADD DUP1 DUP4 GT PUSH2 0x266 JUMPI DUP3 SWAP1 SUB PUSH1 0x1F AND DUP3 ADD SWAP2 JUMPDEST POP POP POP POP POP SWAP1 DUP1 PUSH1 0x3 ADD PUSH0 SWAP1 SLOAD SWAP1 PUSH2 0x100 EXP SWAP1 DIV PUSH20 0xFFFFFFFFFFFFFFFFFFFFFFFFFFFFFFFFFFFFFFFF AND SWAP1 DUP1 PUSH1 0x4 ADD SLOAD SWAP1 DUP1 PUSH1 0x5 ADD PUSH0 SWAP1 SLOAD SWAP1 PUSH2 0x100 EXP SWAP1 DIV PUSH1 0xFF AND SWAP1 POP DUP7 JUMP JUMPDEST DUP1 PUSH1 0x1 PUSH0 DUP3 DUP2 MSTORE PUSH1 0x20 ADD SWAP1 DUP2 MSTORE PUSH1 0x20 ADD PUSH0 KECCAK256 PUSH0 ADD PUSH0 SWAP1 SLOAD SWAP1 PUSH2 0x100 EXP SWAP1 DIV PUSH20 0xFFFFFFFFFFFFFFFFFFFFFFFFFFFFFFFFFFFFFFFF AND PUSH20 0xFFFFFFFFFFFFFFFFFFFFFFFFFFFFFFFFFFFFFFFF AND CALLER PUSH20 0xFFFFFFFFFFFFFFFFFFFFFFFFFFFFFFFFFFFFFFFF AND EQ PUSH2 0x36B JUMPI PUSH1 0x40 MLOAD PUSH32 0x8C379A000000000000000000000000000000000000000000000000000000000 DUP2 MSTORE PUSH1 0x4 ADD PUSH2 0x362 SWAP1 PUSH2 0x127B JUMP JUMPDEST PUSH1 0x40 MLOAD DUP1 SWAP2 SUB SWAP1 REVERT JUMPDEST PUSH1 0x2 PUSH0 SWAP1 SLOAD SWAP1 PUSH2 0x100 EXP SWAP1 DIV PUSH1 0xFF AND ISZERO PUSH2 0x3BA JUMPI PUSH1 0x40 MLOAD PUSH32 0x8C379A000000000000000000000000000000000000000000000000000000000 DUP2 MSTORE PUSH1 0x4 ADD PUSH2 0x3B1 SWAP1 PUSH2 0x12E3 JUMP JUMPDEST PUSH1 0x40 MLOAD DUP1 SWAP2 SUB SWAP1 REVERT JUMPDEST PUSH1 0x1 PUSH1 0x2 PUSH0 PUSH2 0x100 EXP DUP2 SLOAD DUP2 PUSH1 0xFF MUL NOT AND SWAP1 DUP4 ISZERO ISZERO MUL OR SWAP1 SSTORE POP PUSH0 PUSH1 0x1 PUSH0 DUP5 DUP2 MSTORE PUSH1 0x20 ADD SWAP1 DUP2 MSTORE PUSH1 0x20 ADD PUSH0 KECCAK256 SWAP1 POP DUP1 PUSH1 0x5 ADD PUSH0 SWAP1 SLOAD SWAP1 PUSH2 0x100 EXP SWAP1 DIV PUSH1 0xFF AND ISZERO PUSH2 0x439 JUMPI PUSH1 0x40 MLOAD PUSH32 0x8C379A000000000000000000000000000000000000000000000000000000000 DUP2 MSTORE PUSH1 0x4 ADD PUSH2 0x430 SWAP1 PUSH2 0x134B JUMP JUMPDEST PUSH1 0x40 MLOAD DUP1 SWAP2 SUB SWAP1 REVERT JUMPDEST PUSH0 PUSH20 0xFFFFFFFFFFFFFFFFFFFFFFFFFFFFFFFFFFFFFFFF AND DUP2 PUSH1 0x3 ADD PUSH0 SWAP1 SLOAD SWAP1 PUSH2 0x100 EXP SWAP1 DIV PUSH20 0xFFFFFFFFFFFFFFFFFFFFFFFFFFFFFFFFFFFFFFFF AND PUSH20 0xFFFFFFFFFFFFFFFFFFFFFFFFFFFFFFFFFFFFFFFF AND SUB PUSH2 0x4CA JUMPI PUSH1 0x40 MLOAD PUSH32 0x8C379A000000000000000000000000000000000000000000000000000000000 DUP2 MSTORE PUSH1 0x4 ADD PUSH2 0x4C1 SWAP1 PUSH2 0x13B3 JUMP JUMPDEST PUSH1 0x40 MLOAD DUP1 SWAP2 SUB SWAP1 REVERT JUMPDEST PUSH1 0x1 DUP2 PUSH1 0x5 ADD PUSH0 PUSH2 0x100 EXP DUP2 SLOAD DUP2 PUSH1 0xFF MUL NOT AND SWAP1 DUP4 ISZERO ISZERO MUL OR SWAP1 SSTORE POP PUSH0 DUP2 PUSH1 0x3 ADD PUSH0 SWAP1 SLOAD SWAP1 PUSH2 0x100 EXP SWAP1 DIV PUSH20 0xFFFFFFFFFFFFFFFFFFFFFFFFFFFFFFFFFFFFFFFF AND PUSH20 0xFFFFFFFFFFFFFFFFFFFFFFFFFFFFFFFFFFFFFFFF AND DUP3 PUSH1 0x1 ADD SLOAD PUSH1 0x40 MLOAD PUSH2 0x532 SWAP1 PUSH2 0x13FE JUMP JUMPDEST PUSH0 PUSH1 0x40 MLOAD DUP1 DUP4 SUB DUP2 DUP6 DUP8 GAS CALL SWAP3 POP POP POP RETURNDATASIZE DUP1 PUSH0 DUP2 EQ PUSH2 0x56C JUMPI PUSH1 0x40 MLOAD SWAP2 POP PUSH1 0x1F NOT PUSH1 0x3F RETURNDATASIZE ADD AND DUP3 ADD PUSH1 0x40 MSTORE RETURNDATASIZE DUP3 MSTORE RETURNDATASIZE PUSH0 PUSH1 0x20 DUP5 ADD RETURNDATACOPY PUSH2 0x571 JUMP JUMPDEST PUSH1 0x60 SWAP2 POP JUMPDEST POP POP SWAP1 POP DUP1 PUSH2 0x5B5 JUMPI PUSH1 0x40 MLOAD PUSH32 0x8C379A000000000000000000000000000000000000000000000000000000000 DUP2 MSTORE PUSH1 0x4 ADD PUSH2 0x5AC SWAP1 PUSH2 0x145C JUMP JUMPDEST PUSH1 0x40 MLOAD DUP1 SWAP2 SUB SWAP1 REVERT JUMPDEST DUP2 PUSH1 0x3 ADD PUSH0 SWAP1 SLOAD SWAP1 PUSH2 0x100 EXP SWAP1 DIV PUSH20 0xFFFFFFFFFFFFFFFFFFFFFFFFFFFFFFFFFFFFFFFF AND PUSH20 0xFFFFFFFFFFFFFFFFFFFFFFFFFFFFFFFFFFFFFFFF AND DUP5 PUSH32 0x64768E2AC08926AED9A23761EF7CF9BB1C7D9971CFAB10846BB88CEB9353C593 DUP5 PUSH1 0x1 ADD SLOAD PUSH1 0x40 MLOAD PUSH2 0x623 SWAP2 SWAP1 PUSH2 0xEA0 JUMP JUMPDEST PUSH1 0x40 MLOAD DUP1 SWAP2 SUB SWAP1 LOG3 POP POP PUSH0 PUSH1 0x2 PUSH0 PUSH2 0x100 EXP DUP2 SLOAD DUP2 PUSH1 0xFF MUL NOT AND SWAP1 DUP4 ISZERO ISZERO MUL OR SWAP1 SSTORE POP POP POP JUMP JUMPDEST PUSH0 SLOAD DUP2 JUMP JUMPDEST PUSH2 0x657 PUSH2 0xC94 JUMP JUMPDEST PUSH1 0x1 PUSH0 DUP4 DUP2 MSTORE PUSH1 0x20 ADD SWAP1 DUP2 MSTORE PUSH1 0x20 ADD PUSH0 KECCAK256 PUSH1 0x40 MLOAD DUP1 PUSH1 0xC0 ADD PUSH1 0x40 MSTORE SWAP1 DUP2 PUSH0 DUP3 ADD PUSH0 SWAP1 SLOAD SWAP1 PUSH2 0x100 EXP SWAP1 DIV PUSH20 0xFFFFFFFFFFFFFFFFFFFFFFFFFFFFFFFFFFFFFFFF AND PUSH20 0xFFFFFFFFFFFFFFFFFFFFFFFFFFFFFFFFFFFFFFFF AND PUSH20 0xFFFFFFFFFFFFFFFFFFFFFFFFFFFFFFFFFFFFFFFF AND DUP2 MSTORE PUSH1 0x20 ADD PUSH1 0x1 DUP3 ADD SLOAD DUP2 MSTORE PUSH1 0x20 ADD PUSH1 0x2 DUP3 ADD DUP1 SLOAD PUSH2 0x6E1 SWAP1 PUSH2 0x1201 JUMP JUMPDEST DUP1 PUSH1 0x1F ADD PUSH1 0x20 DUP1 SWAP2 DIV MUL PUSH1 0x20 ADD PUSH1 0x40 MLOAD SWAP1 DUP2 ADD PUSH1 0x40 MSTORE DUP1 SWAP3 SWAP2 SWAP1 DUP2 DUP2 MSTORE PUSH1 0x20 ADD DUP3 DUP1 SLOAD PUSH2 0x70D SWAP1 PUSH2 0x1201 JUMP JUMPDEST DUP1 ISZERO PUSH2 0x758 JUMPI DUP1 PUSH1 0x1F LT PUSH2 0x72F JUMPI PUSH2 0x100 DUP1 DUP4 SLOAD DIV MUL DUP4 MSTORE SWAP2 PUSH1 0x20 ADD SWAP2 PUSH2 0x758 JUMP JUMPDEST DUP3 ADD SWAP2 SWAP1 PUSH0 MSTORE PUSH1 0x20 PUSH0 KECCAK256 SWAP1 JUMPDEST DUP2 SLOAD DUP2 MSTORE SWAP1 PUSH1 0x1 ADD SWAP1 PUSH1 0x20 ADD DUP1 DUP4 GT PUSH2 0x73B JUMPI DUP3 SWAP1 SUB PUSH1 0x1F AND DUP3 ADD SWAP2 JUMPDEST POP POP POP POP POP DUP2 MSTORE PUSH1 0x20 ADD PUSH1 0x3 DUP3 ADD PUSH0 SWAP1 SLOAD SWAP1 PUSH2 0x100 EXP SWAP1 DIV PUSH20 0xFFFFFFFFFFFFFFFFFFFFFFFFFFFFFFFFFFFFFFFF AND PUSH20 0xFFFFFFFFFFFFFFFFFFFFFFFFFFFFFFFFFFFFFFFF AND PUSH20 0xFFFFFFFFFFFFFFFFFFFFFFFFFFFFFFFFFFFFFFFF AND DUP2 MSTORE PUSH1 0x20 ADD PUSH1 0x4 DUP3 ADD SLOAD DUP2 MSTORE PUSH1 0x20 ADD PUSH1 0x5 DUP3 ADD PUSH0 SWAP1 SLOAD SWAP1 PUSH2 0x100 EXP SWAP1 DIV PUSH1 0xFF AND ISZERO ISZERO ISZERO ISZERO DUP2 MSTORE POP POP SWAP1 POP SWAP2 SWAP1 POP JUMP JUMPDEST PUSH0 PUSH1 0x64 PUSH1 0x5 DUP4 PUSH2 0x7F1 SWAP2 SWAP1 PUSH2 0x14A7 JUMP JUMPDEST PUSH2 0x7FB SWAP2 SWAP1 PUSH2 0x1515 JUMP JUMPDEST SWAP1 POP SWAP2 SWAP1 POP JUMP JUMPDEST DUP2 PUSH1 0x1 PUSH0 DUP3 DUP2 MSTORE PUSH1 0x20 ADD SWAP1 DUP2 MSTORE PUSH1 0x20 ADD PUSH0 KECCAK256 PUSH0 ADD PUSH0 SWAP1 SLOAD SWAP1 PUSH2 0x100 EXP SWAP1 DIV PUSH20 0xFFFFFFFFFFFFFFFFFFFFFFFFFFFFFFFFFFFFFFFF AND PUSH20 0xFFFFFFFFFFFFFFFFFFFFFFFFFFFFFFFFFFFFFFFF AND CALLER PUSH20 0xFFFFFFFFFFFFFFFFFFFFFFFFFFFFFFFFFFFFFFFF AND EQ PUSH2 0x8A3 JUMPI PUSH1 0x40 MLOAD PUSH32 0x8C379A000000000000000000000000000000000000000000000000000000000 DUP2 MSTORE PUSH1 0x4 ADD PUSH2 0x89A SWAP1 PUSH2 0x127B JUMP JUMPDEST PUSH1 0x40 MLOAD DUP1 SWAP2 SUB SWAP1 REVERT JUMPDEST PUSH0 PUSH1 0x1 PUSH0 DUP6 DUP2 MSTORE PUSH1 0x20 ADD SWAP1 DUP2 MSTORE PUSH1 0x20 ADD PUSH0 KECCAK256 SWAP1 POP PUSH0 PUSH20 0xFFFFFFFFFFFFFFFFFFFFFFFFFFFFFFFFFFFFFFFF AND DUP2 PUSH1 0x3 ADD PUSH0 SWAP1 SLOAD SWAP1 PUSH2 0x100 EXP SWAP1 DIV PUSH20 0xFFFFFFFFFFFFFFFFFFFFFFFFFFFFFFFFFFFFFFFF AND PUSH20 0xFFFFFFFFFFFFFFFFFFFFFFFFFFFFFFFFFFFFFFFF AND EQ PUSH2 0x948 JUMPI PUSH1 0x40 MLOAD PUSH32 0x8C379A000000000000000000000000000000000000000000000000000000000 DUP2 MSTORE PUSH1 0x4 ADD PUSH2 0x93F SWAP1 PUSH2 0x158F JUMP JUMPDEST PUSH1 0x40 MLOAD DUP1 SWAP2 SUB SWAP1 REVERT JUMPDEST DUP1 PUSH1 0x4 ADD SLOAD TIMESTAMP LT PUSH2 0x98E JUMPI PUSH1 0x40 MLOAD PUSH32 0x8C379A000000000000000000000000000000000000000000000000000000000 DUP2 MSTORE PUSH1 0x4 ADD PUSH2 0x985 SWAP1 PUSH2 0x15F7 JUMP JUMPDEST PUSH1 0x40 MLOAD DUP1 SWAP2 SUB SWAP1 REVERT JUMPDEST DUP3 DUP2 PUSH1 0x3 ADD PUSH0 PUSH2 0x100 EXP DUP2 SLOAD DUP2 PUSH20 0xFFFFFFFFFFFFFFFFFFFFFFFFFFFFFFFFFFFFFFFF MUL NOT AND SWAP1 DUP4 PUSH20 0xFFFFFFFFFFFFFFFFFFFFFFFFFFFFFFFFFFFFFFFF AND MUL OR SWAP1 SSTORE POP DUP3 PUSH20 0xFFFFFFFFFFFFFFFFFFFFFFFFFFFFFFFFFFFFFFFF AND DUP5 PUSH32 0xF0EA83E301E371212B367969FC7BEE10788F52B26D7301F78A04C0209B7A5113 PUSH1 0x40 MLOAD PUSH1 0x40 MLOAD DUP1 SWAP2 SUB SWAP1 LOG3 POP POP POP POP JUMP JUMPDEST DUP2 CALLVALUE EQ PUSH2 0xA5C JUMPI PUSH1 0x40 MLOAD PUSH32 0x8C379A000000000000000000000000000000000000000000000000000000000 DUP2 MSTORE PUSH1 0x4 ADD PUSH2 0xA53 SWAP1 PUSH2 0x165F JUMP JUMPDEST PUSH1 0x40 MLOAD DUP1 SWAP2 SUB SWAP1 REVERT JUMPDEST PUSH1 0xA DUP4 MLOAD GT PUSH2 0xAA0 JUMPI PUSH1 0x40 MLOAD PUSH32 0x8C379A000000000000000000000000000000000000000000000000000000000 DUP2 MSTORE PUSH1 0x4 ADD PUSH2 0xA97 SWAP1 PUSH2 0x16C7 JUMP JUMPDEST PUSH1 0x40 MLOAD DUP1 SWAP2 SUB SWAP1 REVERT JUMPDEST TIMESTAMP DUP2 GT PUSH2 0xAE2 JUMPI PUSH1 0x40 MLOAD PUSH32 0x8C379A000000000000000000000000000000000000000000000000000000000 DUP2 MSTORE PUSH1 0x4 ADD PUSH2 0xAD9 SWAP1 PUSH2 0x172F JUMP JUMPDEST PUSH1 0x40 MLOAD DUP1 SWAP2 SUB SWAP1 REVERT JUMPDEST PUSH1 0x40 MLOAD DUP1 PUSH1 0xC0 ADD PUSH1 0x40 MSTORE DUP1 CALLER PUSH20 0xFFFFFFFFFFFFFFFFFFFFFFFFFFFFFFFFFFFFFFFF AND DUP2 MSTORE PUSH1 0x20 ADD DUP4 DUP2 MSTORE PUSH1 0x20 ADD DUP5 DUP2 MSTORE PUSH1 0x20 ADD PUSH0 PUSH20 0xFFFFFFFFFFFFFFFFFFFFFFFFFFFFFFFFFFFFFFFF AND DUP2 MSTORE PUSH1 0x20 ADD DUP3 DUP2 MSTORE PUSH1 0x20 ADD PUSH0 ISZERO ISZERO DUP2 MSTORE POP PUSH1 0x1 PUSH0 DUP1 SLOAD DUP2 MSTORE PUSH1 0x20 ADD SWAP1 DUP2 MSTORE PUSH1 0x20 ADD PUSH0 KECCAK256 PUSH0 DUP3 ADD MLOAD DUP2 PUSH0 ADD PUSH0 PUSH2 0x100 EXP DUP2 SLOAD DUP2 PUSH20 0xFFFFFFFFFFFFFFFFFFFFFFFFFFFFFFFFFFFFFFFF MUL NOT AND SWAP1 DUP4 PUSH20 0xFFFFFFFFFFFFFFFFFFFFFFFFFFFFFFFFFFFFFFFF AND MUL OR SWAP1 SSTORE POP PUSH1 0x20 DUP3 ADD MLOAD DUP2 PUSH1 0x1 ADD SSTORE PUSH1 0x40 DUP3 ADD MLOAD DUP2 PUSH1 0x2 ADD SWAP1 DUP2 PUSH2 0xBB2 SWAP2 SWAP1 PUSH2 0x18EA JUMP JUMPDEST POP PUSH1 0x60 DUP3 ADD MLOAD DUP2 PUSH1 0x3 ADD PUSH0 PUSH2 0x100 EXP DUP2 SLOAD DUP2 PUSH20 0xFFFFFFFFFFFFFFFFFFFFFFFFFFFFFFFFFFFFFFFF MUL NOT AND SWAP1 DUP4 PUSH20 0xFFFFFFFFFFFFFFFFFFFFFFFFFFFFFFFFFFFFFFFF AND MUL OR SWAP1 SSTORE POP PUSH1 0x80 DUP3 ADD MLOAD DUP2 PUSH1 0x4 ADD SSTORE PUSH1 0xA0 DUP3 ADD MLOAD DUP2 PUSH1 0x5 ADD PUSH0 PUSH2 0x100 EXP DUP2 SLOAD DUP2 PUSH1 0xFF MUL NOT AND SWAP1 DUP4 ISZERO ISZERO MUL OR SWAP1 SSTORE POP SWAP1 POP POP CALLER PUSH20 0xFFFFFFFFFFFFFFFFFFFFFFFFFFFFFFFFFFFFFFFF AND PUSH0 SLOAD PUSH32 0x8A65BAEDF6E1483326BE76D39E27C426D213A6461887C0CC57401DCD487978AB DUP5 DUP7 DUP6 PUSH1 0x40 MLOAD PUSH2 0xC71 SWAP4 SWAP3 SWAP2 SWAP1 PUSH2 0x19B9 JUMP JUMPDEST PUSH1 0x40 MLOAD DUP1 SWAP2 SUB SWAP1 LOG3 PUSH0 DUP1 DUP2 SLOAD DUP1 SWAP3 SWAP2 SWAP1 PUSH2 0xC8A SWAP1 PUSH2 0x19F5 JUMP JUMPDEST SWAP2 SWAP1 POP SSTORE POP POP POP POP JUMP JUMPDEST PUSH1 0x40 MLOAD DUP1 PUSH1 0xC0 ADD PUSH1 0x40 MSTORE DUP1 PUSH0 PUSH20 0xFFFFFFFFFFFFFFFFFFFFFFFFFFFFFFFFFFFFFFFF AND DUP2 MSTORE PUSH1 0x20 ADD PUSH0 DUP2 MSTORE PUSH1 0x20 ADD PUSH1 0x60 DUP2 MSTORE PUSH1 0x20 ADD PUSH0 PUSH20 0xFFFFFFFFFFFFFFFFFFFFFFFFFFFFFFFFFFFFFFFF AND DUP2 MSTORE PUSH1 0x20 ADD PUSH0 DUP2 MSTORE PUSH1 0x20 ADD PUSH0 ISZERO ISZERO DUP2 MSTORE POP SWAP1 JUMP JUMPDEST PUSH0 PUSH1 0x40 MLOAD SWAP1 POP SWAP1 JUMP JUMPDEST PUSH0 DUP1 REVERT JUMPDEST PUSH0 DUP1 REVERT JUMPDEST PUSH0 DUP2 SWAP1 POP SWAP2 SWAP1 POP JUMP JUMPDEST PUSH2 0xD16 DUP2 PUSH2 0xD04 JUMP JUMPDEST DUP2 EQ PUSH2 0xD20 JUMPI PUSH0 DUP1 REVERT JUMPDEST POP JUMP JUMPDEST PUSH0 DUP2 CALLDATALOAD SWAP1 POP PUSH2 0xD31 DUP2 PUSH2 0xD0D JUMP JUMPDEST SWAP3 SWAP2 POP POP JUMP JUMPDEST PUSH0 PUSH1 0x20 DUP3 DUP5 SUB SLT ISZERO PUSH2 0xD4C JUMPI PUSH2 0xD4B PUSH2 0xCFC JUMP JUMPDEST JUMPDEST PUSH0 PUSH2 0xD59 DUP5 DUP3 DUP6 ADD PUSH2 0xD23 JUMP JUMPDEST SWAP2 POP POP SWAP3 SWAP2 POP POP JUMP JUMPDEST PUSH0 PUSH20 0xFFFFFFFFFFFFFFFFFFFFFFFFFFFFFFFFFFFFFFFF DUP3 AND SWAP1 POP SWAP2 SWAP1 POP JUMP JUMPDEST PUSH0 PUSH2 0xD8B DUP3 PUSH2 0xD62 JUMP JUMPDEST SWAP1 POP SWAP2 SWAP1 POP JUMP JUMPDEST PUSH2 0xD9B DUP2 PUSH2 0xD81 JUMP JUMPDEST DUP3 MSTORE POP POP JUMP JUMPDEST PUSH2 0xDAA DUP2 PUSH2 0xD04 JUMP JUMPDEST DUP3 MSTORE POP POP JUMP JUMPDEST PUSH0 DUP2 MLOAD SWAP1 POP SWAP2 SWAP1 POP JUMP JUMPDEST PUSH0 DUP3 DUP3 MSTORE PUSH1 0x20 DUP3 ADD SWAP1 POP SWAP3 SWAP2 POP POP JUMP JUMPDEST DUP3 DUP2 DUP4 MCOPY PUSH0 DUP4 DUP4 ADD MSTORE POP POP POP JUMP JUMPDEST PUSH0 PUSH1 0x1F NOT PUSH1 0x1F DUP4 ADD AND SWAP1 POP SWAP2 SWAP1 POP JUMP JUMPDEST PUSH0 PUSH2 0xDF2 DUP3 PUSH2 0xDB0 JUMP JUMPDEST PUSH2 0xDFC DUP2 DUP6 PUSH2 0xDBA JUMP JUMPDEST SWAP4 POP PUSH2 0xE0C DUP2 DUP6 PUSH1 0x20 DUP7 ADD PUSH2 0xDCA JUMP JUMPDEST PUSH2 0xE15 DUP2 PUSH2 0xDD8 JUMP JUMPDEST DUP5 ADD SWAP2 POP POP SWAP3 SWAP2 POP POP JUMP JUMPDEST PUSH0 DUP2 ISZERO ISZERO SWAP1 POP SWAP2 SWAP1 POP JUMP JUMPDEST PUSH2 0xE34 DUP2 PUSH2 0xE20 JUMP JUMPDEST DUP3 MSTORE POP POP JUMP JUMPDEST PUSH0 PUSH1 0xC0 DUP3 ADD SWAP1 POP PUSH2 0xE4D PUSH0 DUP4 ADD DUP10 PUSH2 0xD92 JUMP JUMPDEST PUSH2 0xE5A PUSH1 0x20 DUP4 ADD DUP9 PUSH2 0xDA1 JUMP JUMPDEST DUP2 DUP2 SUB PUSH1 0x40 DUP4 ADD MSTORE PUSH2 0xE6C DUP2 DUP8 PUSH2 0xDE8 JUMP JUMPDEST SWAP1 POP PUSH2 0xE7B PUSH1 0x60 DUP4 ADD DUP7 PUSH2 0xD92 JUMP JUMPDEST PUSH2 0xE88 PUSH1 0x80 DUP4 ADD DUP6 PUSH2 0xDA1 JUMP JUMPDEST PUSH2 0xE95 PUSH1 0xA0 DUP4 ADD DUP5 PUSH2 0xE2B JUMP JUMPDEST SWAP8 SWAP7 POP POP POP POP POP POP POP JUMP JUMPDEST PUSH0 PUSH1 0x20 DUP3 ADD SWAP1 POP PUSH2 0xEB3 PUSH0 DUP4 ADD DUP5 PUSH2 0xDA1 JUMP JUMPDEST SWAP3 SWAP2 POP POP JUMP JUMPDEST PUSH2 0xEC2 DUP2 PUSH2 0xD81 JUMP JUMPDEST DUP3 MSTORE POP POP JUMP JUMPDEST PUSH2 0xED1 DUP2 PUSH2 0xD04 JUMP JUMPDEST DUP3 MSTORE POP POP JUMP JUMPDEST PUSH0 DUP3 DUP3 MSTORE PUSH1 0x20 DUP3 ADD SWAP1 POP SWAP3 SWAP2 POP POP JUMP JUMPDEST PUSH0 PUSH2 0xEF1 DUP3 PUSH2 0xDB0 JUMP JUMPDEST PUSH2 0xEFB DUP2 DUP6 PUSH2 0xED7 JUMP JUMPDEST SWAP4 POP PUSH2 0xF0B DUP2 DUP6 PUSH1 0x20 DUP7 ADD PUSH2 0xDCA JUMP JUMPDEST PUSH2 0xF14 DUP2 PUSH2 0xDD8 JUMP JUMPDEST DUP5 ADD SWAP2 POP POP SWAP3 SWAP2 POP POP JUMP JUMPDEST PUSH2 0xF28 DUP2 PUSH2 0xE20 JUMP JUMPDEST DUP3 MSTORE POP POP JUMP JUMPDEST PUSH0 PUSH1 0xC0 DUP4 ADD PUSH0 DUP4 ADD MLOAD PUSH2 0xF43 PUSH0 DUP7 ADD DUP3 PUSH2 0xEB9 JUMP JUMPDEST POP PUSH1 0x20 DUP4 ADD MLOAD PUSH2 0xF56 PUSH1 0x20 DUP7 ADD DUP3 PUSH2 0xEC8 JUMP JUMPDEST POP PUSH1 0x40 DUP4 ADD MLOAD DUP5 DUP3 SUB PUSH1 0x40 DUP7 ADD MSTORE PUSH2 0xF6E DUP3 DUP3 PUSH2 0xEE7 JUMP JUMPDEST SWAP2 POP POP PUSH1 0x60 DUP4 ADD MLOAD PUSH2 0xF83 PUSH1 0x60 DUP7 ADD DUP3 PUSH2 0xEB9 JUMP JUMPDEST POP PUSH1 0x80 DUP4 ADD MLOAD PUSH2 0xF96 PUSH1 0x80 DUP7 ADD DUP3 PUSH2 0xEC8 JUMP JUMPDEST POP PUSH1 0xA0 DUP4 ADD MLOAD PUSH2 0xFA9 PUSH1 0xA0 DUP7 ADD DUP3 PUSH2 0xF1F JUMP JUMPDEST POP DUP1 SWAP2 POP POP SWAP3 SWAP2 POP POP JUMP JUMPDEST PUSH0 PUSH1 0x20 DUP3 ADD SWAP1 POP DUP2 DUP2 SUB PUSH0 DUP4 ADD MSTORE PUSH2 0xFCC DUP2 DUP5 PUSH2 0xF2E JUMP JUMPDEST SWAP1 POP SWAP3 SWAP2 POP POP JUMP JUMPDEST PUSH2 0xFDD DUP2 PUSH2 0xD81 JUMP JUMPDEST DUP2 EQ PUSH2 0xFE7 JUMPI PUSH0 DUP1 REVERT JUMPDEST POP JUMP JUMPDEST PUSH0 DUP2 CALLDATALOAD SWAP1 POP PUSH2 0xFF8 DUP2 PUSH2 0xFD4 JUMP JUMPDEST SWAP3 SWAP2 POP POP JUMP JUMPDEST PUSH0 DUP1 PUSH1 0x40 DUP4 DUP6 SUB SLT ISZERO PUSH2 0x1014 JUMPI PUSH2 0x1013 PUSH2 0xCFC JUMP JUMPDEST JUMPDEST PUSH0 PUSH2 0x1021 DUP6 DUP3 DUP7 ADD PUSH2 0xD23 JUMP JUMPDEST SWAP3 POP POP PUSH1 0x20 PUSH2 0x1032 DUP6 DUP3 DUP7 ADD PUSH2 0xFEA JUMP JUMPDEST SWAP2 POP POP SWAP3 POP SWAP3 SWAP1 POP JUMP JUMPDEST PUSH0 DUP1 REVERT JUMPDEST PUSH0 DUP1 REVERT JUMPDEST PUSH32 0x4E487B7100000000000000000000000000000000000000000000000000000000 PUSH0 MSTORE PUSH1 0x41 PUSH1 0x4 MSTORE PUSH1 0x24 PUSH0 REVERT JUMPDEST PUSH2 0x107A DUP3 PUSH2 0xDD8 JUMP JUMPDEST DUP2 ADD DUP2 DUP2 LT PUSH8 0xFFFFFFFFFFFFFFFF DUP3 GT OR ISZERO PUSH2 0x1099 JUMPI PUSH2 0x1098 PUSH2 0x1044 JUMP JUMPDEST JUMPDEST DUP1 PUSH1 0x40 MSTORE POP POP POP JUMP JUMPDEST PUSH0 PUSH2 0x10AB PUSH2 0xCF3 JUMP JUMPDEST SWAP1 POP PUSH2 0x10B7 DUP3 DUP3 PUSH2 0x1071 JUMP JUMPDEST SWAP2 SWAP1 POP JUMP JUMPDEST PUSH0 PUSH8 0xFFFFFFFFFFFFFFFF DUP3 GT ISZERO PUSH2 0x10D6 JUMPI PUSH2 0x10D5 PUSH2 0x1044 JUMP JUMPDEST JUMPDEST PUSH2 0x10DF DUP3 PUSH2 0xDD8 JUMP JUMPDEST SWAP1 POP PUSH1 0x20 DUP2 ADD SWAP1 POP SWAP2 SWAP1 POP JUMP JUMPDEST DUP3 DUP2 DUP4 CALLDATACOPY PUSH0 DUP4 DUP4 ADD MSTORE POP POP POP JUMP JUMPDEST PUSH0 PUSH2 0x110C PUSH2 0x1107 DUP5 PUSH2 0x10BC JUMP JUMPDEST PUSH2 0x10A2 JUMP JUMPDEST SWAP1 POP DUP3 DUP2 MSTORE PUSH1 0x20 DUP2 ADD DUP5 DUP5 DUP5 ADD GT ISZERO PUSH2 0x1128 JUMPI PUSH2 0x1127 PUSH2 0x1040 JUMP JUMPDEST JUMPDEST PUSH2 0x1133 DUP5 DUP3 DUP6 PUSH2 0x10EC JUMP JUMPDEST POP SWAP4 SWAP3 POP POP POP JUMP JUMPDEST PUSH0 DUP3 PUSH1 0x1F DUP4 ADD SLT PUSH2 0x114F JUMPI PUSH2 0x114E PUSH2 0x103C JUMP JUMPDEST JUMPDEST DUP2 CALLDATALOAD PUSH2 0x115F DUP5 DUP3 PUSH1 0x20 DUP7 ADD PUSH2 0x10FA JUMP JUMPDEST SWAP2 POP POP SWAP3 SWAP2 POP POP JUMP JUMPDEST PUSH0 DUP1 PUSH0 PUSH1 0x60 DUP5 DUP7 SUB SLT ISZERO PUSH2 0x117F JUMPI PUSH2 0x117E PUSH2 0xCFC JUMP JUMPDEST JUMPDEST PUSH0 DUP5 ADD CALLDATALOAD PUSH8 0xFFFFFFFFFFFFFFFF DUP2 GT ISZERO PUSH2 0x119C JUMPI PUSH2 0x119B PUSH2 0xD00 JUMP JUMPDEST JUMPDEST PUSH2 0x11A8 DUP7 DUP3 DUP8 ADD PUSH2 0x113B JUMP JUMPDEST SWAP4 POP POP PUSH1 0x20 PUSH2 0x11B9 DUP7 DUP3 DUP8 ADD PUSH2 0xD23 JUMP JUMPDEST SWAP3 POP POP PUSH1 0x40 PUSH2 0x11CA DUP7 DUP3 DUP8 ADD PUSH2 0xD23 JUMP JUMPDEST SWAP2 POP POP SWAP3 POP SWAP3 POP SWAP3 JUMP JUMPDEST PUSH32 0x4E487B7100000000000000000000000000000000000000000000000000000000 PUSH0 MSTORE PUSH1 0x22 PUSH1 0x4 MSTORE PUSH1 0x24 PUSH0 REVERT JUMPDEST PUSH0 PUSH1 0x2 DUP3 DIV SWAP1 POP PUSH1 0x1 DUP3 AND DUP1 PUSH2 0x1218 JUMPI PUSH1 0x7F DUP3 AND SWAP2 POP JUMPDEST PUSH1 0x20 DUP3 LT DUP2 SUB PUSH2 0x122B JUMPI PUSH2 0x122A PUSH2 0x11D4 JUMP JUMPDEST JUMPDEST POP SWAP2 SWAP1 POP JUMP JUMPDEST PUSH32 0x4E6F742074686520656D706C6F79657200000000000000000000000000000000 PUSH0 DUP3 ADD MSTORE POP JUMP JUMPDEST PUSH0 PUSH2 0x1265 PUSH1 0x10 DUP4 PUSH2 0xDBA JUMP JUMPDEST SWAP2 POP PUSH2 0x1270 DUP3 PUSH2 0x1231 JUMP JUMPDEST PUSH1 0x20 DUP3 ADD SWAP1 POP SWAP2 SWAP1 POP JUMP JUMPDEST PUSH0 PUSH1 0x20 DUP3 ADD SWAP1 POP DUP2 DUP2 SUB PUSH0 DUP4 ADD MSTORE PUSH2 0x1292 DUP2 PUSH2 0x1259 JUMP JUMPDEST SWAP1 POP SWAP2 SWAP1 POP JUMP JUMPDEST PUSH32 0x5265656E7472616E637920646574656374656400000000000000000000000000 PUSH0 DUP3 ADD MSTORE POP JUMP JUMPDEST PUSH0 PUSH2 0x12CD PUSH1 0x13 DUP4 PUSH2 0xDBA JUMP JUMPDEST SWAP2 POP PUSH2 0x12D8 DUP3 PUSH2 0x1299 JUMP JUMPDEST PUSH1 0x20 DUP3 ADD SWAP1 POP SWAP2 SWAP1 POP JUMP JUMPDEST PUSH0 PUSH1 0x20 DUP3 ADD SWAP1 POP DUP2 DUP2 SUB PUSH0 DUP4 ADD MSTORE PUSH2 0x12FA DUP2 PUSH2 0x12C1 JUMP JUMPDEST SWAP1 POP SWAP2 SWAP1 POP JUMP JUMPDEST PUSH32 0x50726F6A65637420616C726561647920636F6D706C6574656400000000000000 PUSH0 DUP3 ADD MSTORE POP JUMP JUMPDEST PUSH0 PUSH2 0x1335 PUSH1 0x19 DUP4 PUSH2 0xDBA JUMP JUMPDEST SWAP2 POP PUSH2 0x1340 DUP3 PUSH2 0x1301 JUMP JUMPDEST PUSH1 0x20 DUP3 ADD SWAP1 POP SWAP2 SWAP1 POP JUMP JUMPDEST PUSH0 PUSH1 0x20 DUP3 ADD SWAP1 POP DUP2 DUP2 SUB PUSH0 DUP4 ADD MSTORE PUSH2 0x1362 DUP2 PUSH2 0x1329 JUMP JUMPDEST SWAP1 POP SWAP2 SWAP1 POP JUMP JUMPDEST PUSH32 0x467265656C616E636572206E6F742061737369676E6564000000000000000000 PUSH0 DUP3 ADD MSTORE POP JUMP JUMPDEST PUSH0 PUSH2 0x139D PUSH1 0x17 DUP4 PUSH2 0xDBA JUMP JUMPDEST SWAP2 POP PUSH2 0x13A8 DUP3 PUSH2 0x1369 JUMP JUMPDEST PUSH1 0x20 DUP3 ADD SWAP1 POP SWAP2 SWAP1 POP JUMP JUMPDEST PUSH0 PUSH1 0x20 DUP3 ADD SWAP1 POP DUP2 DUP2 SUB PUSH0 DUP4 ADD MSTORE PUSH2 0x13CA DUP2 PUSH2 0x1391 JUMP JUMPDEST SWAP1 POP SWAP2 SWAP1 POP JUMP JUMPDEST PUSH0 DUP2 SWAP1 POP SWAP3 SWAP2 POP POP JUMP JUMPDEST POP JUMP JUMPDEST PUSH0 PUSH2 0x13E9 PUSH0 DUP4 PUSH2 0x13D1 JUMP JUMPDEST SWAP2 POP PUSH2 0x13F4 DUP3 PUSH2 0x13DB JUMP JUMPDEST PUSH0 DUP3 ADD SWAP1 POP SWAP2 SWAP1 POP JUMP JUMPDEST PUSH0 PUSH2 0x1408 DUP3 PUSH2 0x13DE JUMP JUMPDEST SWAP2 POP DUP2 SWAP1 POP SWAP2 SWAP1 POP JUMP JUMPDEST PUSH32 0x5472616E73666572206661696C65640000000000000000000000000000000000 PUSH0 DUP3 ADD MSTORE POP JUMP JUMPDEST PUSH0 PUSH2 0x1446 PUSH1 0xF DUP4 PUSH2 0xDBA JUMP JUMPDEST SWAP2 POP PUSH2 0x1451 DUP3 PUSH2 0x1412 JUMP JUMPDEST PUSH1 0x20 DUP3 ADD SWAP1 POP SWAP2 SWAP1 POP JUMP JUMPDEST PUSH0 PUSH1 0x20 DUP3 ADD SWAP1 POP DUP2 DUP2 SUB PUSH0 DUP4 ADD MSTORE PUSH2 0x1473 DUP2 PUSH2 0x143A JUMP JUMPDEST SWAP1 POP SWAP2 SWAP1 POP JUMP JUMPDEST PUSH32 0x4E487B7100000000000000000000000000000000000000000000000000000000 PUSH0 MSTORE PUSH1 0x11 PUSH1 0x4 MSTORE PUSH1 0x24 PUSH0 REVERT JUMPDEST PUSH0 PUSH2 0x14B1 DUP3 PUSH2 0xD04 JUMP JUMPDEST SWAP2 POP PUSH2 0x14BC DUP4 PUSH2 0xD04 JUMP JUMPDEST SWAP3 POP DUP3 DUP3 MUL PUSH2 0x14CA DUP2 PUSH2 0xD04 JUMP JUMPDEST SWAP2 POP DUP3 DUP3 DIV DUP5 EQ DUP4 ISZERO OR PUSH2 0x14E1 JUMPI PUSH2 0x14E0 PUSH2 0x147A JUMP JUMPDEST JUMPDEST POP SWAP3 SWAP2 POP POP JUMP JUMPDEST PUSH32 0x4E487B7100000000000000000000000000000000000000000000000000000000 PUSH0 MSTORE PUSH1 0x12 PUSH1 0x4 MSTORE PUSH1 0x24 PUSH0 REVERT JUMPDEST PUSH0 PUSH2 0x151F DUP3 PUSH2 0xD04 JUMP JUMPDEST SWAP2 POP PUSH2 0x152A DUP4 PUSH2 0xD04 JUMP JUMPDEST SWAP3 POP DUP3 PUSH2 0x153A JUMPI PUSH2 0x1539 PUSH2 0x14E8 JUMP JUMPDEST JUMPDEST DUP3 DUP3 DIV SWAP1 POP SWAP3 SWAP2 POP POP JUMP JUMPDEST PUSH32 0x467265656C616E63657220616C72656164792061737369676E65640000000000 PUSH0 DUP3 ADD MSTORE POP JUMP JUMPDEST PUSH0 PUSH2 0x1579 PUSH1 0x1B DUP4 PUSH2 0xDBA JUMP JUMPDEST SWAP2 POP PUSH2 0x1584 DUP3 PUSH2 0x1545 JUMP JUMPDEST PUSH1 0x20 DUP3 ADD SWAP1 POP SWAP2 SWAP1 POP JUMP JUMPDEST PUSH0 PUSH1 0x20 DUP3 ADD SWAP1 POP DUP2 DUP2 SUB PUSH0 DUP4 ADD MSTORE PUSH2 0x15A6 DUP2 PUSH2 0x156D JUMP JUMPDEST SWAP1 POP SWAP2 SWAP1 POP JUMP JUMPDEST PUSH32 0x50726F6A65637420646561646C696E6520706173736564000000000000000000 PUSH0 DUP3 ADD MSTORE POP JUMP JUMPDEST PUSH0 PUSH2 0x15E1 PUSH1 0x17 DUP4 PUSH2 0xDBA JUMP JUMPDEST SWAP2 POP PUSH2 0x15EC DUP3 PUSH2 0x15AD JUMP JUMPDEST PUSH1 0x20 DUP3 ADD SWAP1 POP SWAP2 SWAP1 POP JUMP JUMPDEST PUSH0 PUSH1 0x20 DUP3 ADD SWAP1 POP DUP2 DUP2 SUB PUSH0 DUP4 ADD MSTORE PUSH2 0x160E DUP2 PUSH2 0x15D5 JUMP JUMPDEST SWAP1 POP SWAP2 SWAP1 POP JUMP JUMPDEST PUSH32 0x427564676574206D757374206D617463682073656E7420455448000000000000 PUSH0 DUP3 ADD MSTORE POP JUMP JUMPDEST PUSH0 PUSH2 0x1649 PUSH1 0x1A DUP4 PUSH2 0xDBA JUMP JUMPDEST SWAP2 POP PUSH2 0x1654 DUP3 PUSH2 0x1615 JUMP JUMPDEST PUSH1 0x20 DUP3 ADD SWAP1 POP SWAP2 SWAP1 POP JUMP JUMPDEST PUSH0 PUSH1 0x20 DUP3 ADD SWAP1 POP DUP2 DUP2 SUB PUSH0 DUP4 ADD MSTORE PUSH2 0x1676 DUP2 PUSH2 0x163D JUMP JUMPDEST SWAP1 POP SWAP2 SWAP1 POP JUMP JUMPDEST PUSH32 0x4465736372697074696F6E20746F6F2073686F72740000000000000000000000 PUSH0 DUP3 ADD MSTORE POP JUMP JUMPDEST PUSH0 PUSH2 0x16B1 PUSH1 0x15 DUP4 PUSH2 0xDBA JUMP JUMPDEST SWAP2 POP PUSH2 0x16BC DUP3 PUSH2 0x167D JUMP JUMPDEST PUSH1 0x20 DUP3 ADD SWAP1 POP SWAP2 SWAP1 POP JUMP JUMPDEST PUSH0 PUSH1 0x20 DUP3 ADD SWAP1 POP DUP2 DUP2 SUB PUSH0 DUP4 ADD MSTORE PUSH2 0x16DE DUP2 PUSH2 0x16A5 JUMP JUMPDEST SWAP1 POP SWAP2 SWAP1 POP JUMP JUMPDEST PUSH32 0x446561646C696E65206D75737420626520696E20746865206675747572650000 PUSH0 DUP3 ADD MSTORE POP JUMP JUMPDEST PUSH0 PUSH2 0x1719 PUSH1 0x1E DUP4 PUSH2 0xDBA JUMP JUMPDEST SWAP2 POP PUSH2 0x1724 DUP3 PUSH2 0x16E5 JUMP JUMPDEST PUSH1 0x20 DUP3 ADD SWAP1 POP SWAP2 SWAP1 POP JUMP JUMPDEST PUSH0 PUSH1 0x20 DUP3 ADD SWAP1 POP DUP2 DUP2 SUB PUSH0 DUP4 ADD MSTORE PUSH2 0x1746 DUP2 PUSH2 0x170D JUMP JUMPDEST SWAP1 POP SWAP2 SWAP1 POP JUMP JUMPDEST PUSH0 DUP2 SWAP1 POP DUP2 PUSH0 MSTORE PUSH1 0x20 PUSH0 KECCAK256 SWAP1 POP SWAP2 SWAP1 POP JUMP JUMPDEST PUSH0 PUSH1 0x20 PUSH1 0x1F DUP4 ADD DIV SWAP1 POP SWAP2 SWAP1 POP JUMP JUMPDEST PUSH0 DUP3 DUP3 SHL SWAP1 POP SWAP3 SWAP2 POP POP JUMP JUMPDEST PUSH0 PUSH1 0x8 DUP4 MUL PUSH2 0x17A9 PUSH32 0xFFFFFFFFFFFFFFFFFFFFFFFFFFFFFFFFFFFFFFFFFFFFFFFFFFFFFFFFFFFFFFFF DUP3 PUSH2 0x176E JUMP JUMPDEST PUSH2 0x17B3 DUP7 DUP4 PUSH2 0x176E JUMP JUMPDEST SWAP6 POP DUP1 NOT DUP5 AND SWAP4 POP DUP1 DUP7 AND DUP5 OR SWAP3 POP POP POP SWAP4 SWAP3 POP POP POP JUMP JUMPDEST PUSH0 DUP2 SWAP1 POP SWAP2 SWAP1 POP JUMP JUMPDEST PUSH0 PUSH2 0x17EE PUSH2 0x17E9 PUSH2 0x17E4 DUP5 PUSH2 0xD04 JUMP JUMPDEST PUSH2 0x17CB JUMP JUMPDEST PUSH2 0xD04 JUMP JUMPDEST SWAP1 POP SWAP2 SWAP1 POP JUMP JUMPDEST PUSH0 DUP2 SWAP1 POP SWAP2 SWAP1 POP JUMP JUMPDEST PUSH2 0x1807 DUP4 PUSH2 0x17D4 JUMP JUMPDEST PUSH2 0x181B PUSH2 0x1813 DUP3 PUSH2 0x17F5 JUMP JUMPDEST DUP5 DUP5 SLOAD PUSH2 0x177A JUMP JUMPDEST DUP3 SSTORE POP POP POP POP JUMP JUMPDEST PUSH0 SWAP1 JUMP JUMPDEST PUSH2 0x182F PUSH2 0x1823 JUMP JUMPDEST PUSH2 0x183A DUP2 DUP5 DUP5 PUSH2 0x17FE JUMP JUMPDEST POP POP POP JUMP JUMPDEST JUMPDEST DUP2 DUP2 LT ISZERO PUSH2 0x185D JUMPI PUSH2 0x1852 PUSH0 DUP3 PUSH2 0x1827 JUMP JUMPDEST PUSH1 0x1 DUP2 ADD SWAP1 POP PUSH2 0x1840 JUMP JUMPDEST POP POP JUMP JUMPDEST PUSH1 0x1F DUP3 GT ISZERO PUSH2 0x18A2 JUMPI PUSH2 0x1873 DUP2 PUSH2 0x174D JUMP JUMPDEST PUSH2 0x187C DUP5 PUSH2 0x175F JUMP JUMPDEST DUP2 ADD PUSH1 0x20 DUP6 LT ISZERO PUSH2 0x188B JUMPI DUP2 SWAP1 POP JUMPDEST PUSH2 0x189F PUSH2 0x1897 DUP6 PUSH2 0x175F JUMP JUMPDEST DUP4 ADD DUP3 PUSH2 0x183F JUMP JUMPDEST POP POP JUMPDEST POP POP POP JUMP JUMPDEST PUSH0 DUP3 DUP3 SHR SWAP1 POP SWAP3 SWAP2 POP POP JUMP JUMPDEST PUSH0 PUSH2 0x18C2 PUSH0 NOT DUP5 PUSH1 0x8 MUL PUSH2 0x18A7 JUMP JUMPDEST NOT DUP1 DUP4 AND SWAP2 POP POP SWAP3 SWAP2 POP POP JUMP JUMPDEST PUSH0 PUSH2 0x18DA DUP4 DUP4 PUSH2 0x18B3 JUMP JUMPDEST SWAP2 POP DUP3 PUSH1 0x2 MUL DUP3 OR SWAP1 POP SWAP3 SWAP2 POP POP JUMP JUMPDEST PUSH2 0x18F3 DUP3 PUSH2 0xDB0 JUMP JUMPDEST PUSH8 0xFFFFFFFFFFFFFFFF DUP2 GT ISZERO PUSH2 0x190C JUMPI PUSH2 0x190B PUSH2 0x1044 JUMP JUMPDEST JUMPDEST PUSH2 0x1916 DUP3 SLOAD PUSH2 0x1201 JUMP JUMPDEST PUSH2 0x1921 DUP3 DUP3 DUP6 PUSH2 0x1861 JUMP JUMPDEST PUSH0 PUSH1 0x20 SWAP1 POP PUSH1 0x1F DUP4 GT PUSH1 0x1 DUP2 EQ PUSH2 0x1952 JUMPI PUSH0 DUP5 ISZERO PUSH2 0x1940 JUMPI DUP3 DUP8 ADD MLOAD SWAP1 POP JUMPDEST PUSH2 0x194A DUP6 DUP3 PUSH2 0x18CF JUMP JUMPDEST DUP7 SSTORE POP PUSH2 0x19B1 JUMP JUMPDEST PUSH1 0x1F NOT DUP5 AND PUSH2 0x1960 DUP7 PUSH2 0x174D JUMP JUMPDEST PUSH0 JUMPDEST DUP3 DUP2 LT ISZERO PUSH2 0x1987 JUMPI DUP5 DUP10 ADD MLOAD DUP3 SSTORE PUSH1 0x1 DUP3 ADD SWAP2 POP PUSH1 0x20 DUP6 ADD SWAP5 POP PUSH1 0x20 DUP2 ADD SWAP1 POP PUSH2 0x1962 JUMP JUMPDEST DUP7 DUP4 LT ISZERO PUSH2 0x19A4 JUMPI DUP5 DUP10 ADD MLOAD PUSH2 0x19A0 PUSH1 0x1F DUP10 AND DUP3 PUSH2 0x18B3 JUMP JUMPDEST DUP4 SSTORE POP JUMPDEST PUSH1 0x1 PUSH1 0x2 DUP9 MUL ADD DUP9 SSTORE POP POP POP JUMPDEST POP POP POP POP POP POP JUMP JUMPDEST PUSH0 PUSH1 0x60 DUP3 ADD SWAP1 POP PUSH2 0x19CC PUSH0 DUP4 ADD DUP7 PUSH2 0xDA1 JUMP JUMPDEST DUP2 DUP2 SUB PUSH1 0x20 DUP4 ADD MSTORE PUSH2 0x19DE DUP2 DUP6 PUSH2 0xDE8 JUMP JUMPDEST SWAP1 POP PUSH2 0x19ED PUSH1 0x40 DUP4 ADD DUP5 PUSH2 0xDA1 JUMP JUMPDEST SWAP5 SWAP4 POP POP POP POP JUMP JUMPDEST PUSH0 PUSH2 0x19FF DUP3 PUSH2 0xD04 JUMP JUMPDEST SWAP2 POP PUSH32 0xFFFFFFFFFFFFFFFFFFFFFFFFFFFFFFFFFFFFFFFFFFFFFFFFFFFFFFFFFFFFFFFF DUP3 SUB PUSH2 0x1A31 JUMPI PUSH2 0x1A30 PUSH2 0x147A JUMP JUMPDEST JUMPDEST PUSH1 0x1 DUP3 ADD SWAP1 POP SWAP2 SWAP1 POP JUMP INVALID LOG2 PUSH5 0x6970667358 0x22 SLT KECCAK256 PUSH30 0x26D2DDCB58E926095FF27F01F9AA14981FB8AD0D3249A79FA8AD24DC8102 0xCE PUSH5 0x736F6C6343 STOP ADDMOD BYTE STOP CALLER "
				},
				"gasEstimates": {
					"creation": {
						"codeDepositCost": "1354000",
						"executionCost": "1408",
						"totalCost": "1355408"
					},
					"external": {
						"assignFreelancer(uint256,address)": "33121",
						"calculateFee(uint256)": "infinite",
						"completeProject(uint256)": "infinite",
						"createProject(string,uint256,uint256)": "infinite",
						"getProjectDetails(uint256)": "infinite",
						"projectCount()": "2469",
						"projects(uint256)": "infinite"
					}
				},
				"methodIdentifiers": {
					"assignFreelancer(uint256,address)": "c949756c",
					"calculateFee(uint256)": "99a5d747",
					"completeProject(uint256)": "2245f152",
					"createProject(string,uint256,uint256)": "f3a6ac5f",
					"getProjectDetails(uint256)": "5f8439e3",
					"projectCount()": "36fbad26",
					"projects(uint256)": "107046bd"
				}
			},
			"storageLayout": {
				"storage": [
					{
						"astId": 16,
						"contract": "contracts/OutsourcingPlatform.sol:OutsourcingPlatform",
						"label": "projectCount",
						"offset": 0,
						"slot": "0",
						"type": "t_uint256"
					},
					{
						"astId": 21,
						"contract": "contracts/OutsourcingPlatform.sol:OutsourcingPlatform",
						"label": "projects",
						"offset": 0,
						"slot": "1",
						"type": "t_mapping(t_uint256,t_struct(Project)14_storage)"
					},
					{
						"astId": 84,
						"contract": "contracts/OutsourcingPlatform.sol:OutsourcingPlatform",
						"label": "locked",
						"offset": 0,
						"slot": "2",
						"type": "t_bool"
					}
				],
				"types": {
					"t_address": {
						"encoding": "inplace",
						"label": "address",
						"numberOfBytes": "20"
					},
					"t_bool": {
						"encoding": "inplace",
						"label": "bool",
						"numberOfBytes": "1"
					},
					"t_mapping(t_uint256,t_struct(Project)14_storage)": {
						"encoding": "mapping",
						"key": "t_uint256",
						"label": "mapping(uint256 => struct OutsourcingPlatform.Project)",
						"numberOfBytes": "32",
						"value": "t_struct(Project)14_storage"
					},
					"t_string_storage": {
						"encoding": "bytes",
						"label": "string",
						"numberOfBytes": "32"
					},
					"t_struct(Project)14_storage": {
						"encoding": "inplace",
						"label": "struct OutsourcingPlatform.Project",
						"members": [
							{
								"astId": 3,
								"contract": "contracts/OutsourcingPlatform.sol:OutsourcingPlatform",
								"label": "employer",
								"offset": 0,
								"slot": "0",
								"type": "t_address"
							},
							{
								"astId": 5,
								"contract": "contracts/OutsourcingPlatform.sol:OutsourcingPlatform",
								"label": "budget",
								"offset": 0,
								"slot": "1",
								"type": "t_uint256"
							},
							{
								"astId": 7,
								"contract": "contracts/OutsourcingPlatform.sol:OutsourcingPlatform",
								"label": "description",
								"offset": 0,
								"slot": "2",
								"type": "t_string_storage"
							},
							{
								"astId": 9,
								"contract": "contracts/OutsourcingPlatform.sol:OutsourcingPlatform",
								"label": "freelancer",
								"offset": 0,
								"slot": "3",
								"type": "t_address"
							},
							{
								"astId": 11,
								"contract": "contracts/OutsourcingPlatform.sol:OutsourcingPlatform",
								"label": "deadline",
								"offset": 0,
								"slot": "4",
								"type": "t_uint256"
							},
							{
								"astId": 13,
								"contract": "contracts/OutsourcingPlatform.sol:OutsourcingPlatform",
								"label": "completed",
								"offset": 0,
								"slot": "5",
								"type": "t_bool"
							}
						],
						"numberOfBytes": "192"
					},
					"t_uint256": {
						"encoding": "inplace",
						"label": "uint256",
						"numberOfBytes": "32"
					}
				}
			},
			"userdoc": {
				"kind": "user",
				"methods": {},
				"version": 1
			}
		}
	}
}