{
	"contracts/FreelancerRegistry.sol": {
		"FreelancerRegistry": {
			"abi": [
				{
					"anonymous": false,
					"inputs": [
						{
							"indexed": true,
							"internalType": "address",
							"name": "freelancer",
							"type": "address"
						},
						{
							"indexed": false,
							"internalType": "string",
							"name": "profile",
							"type": "string"
						}
					],
					"name": "FreelancerRegistered",
					"type": "event"
				},
				{
					"inputs": [
						{
							"internalType": "address",
							"name": "",
							"type": "address"
						}
					],
					"name": "freelancerProfiles",
					"outputs": [
						{
							"internalType": "string",
							"name": "",
							"type": "string"
						}
					],
					"stateMutability": "view",
					"type": "function"
				},
				{
					"inputs": [
						{
							"internalType": "string",
							"name": "profile",
							"type": "string"
						}
					],
					"name": "registerFreelancer",
					"outputs": [],
					"stateMutability": "nonpayable",
					"type": "function"
				}
			],
			"devdoc": {
				"kind": "dev",
				"methods": {},
				"version": 1
			},
			"evm": {
				"assembly": "    /* \"contracts/FreelancerRegistry.sol\":57:468  contract FreelancerRegistry {... */\n  mstore(0x40, 0x80)\n  callvalue\n  dup1\n  iszero\n  tag_1\n  jumpi\n  0x00\n  dup1\n  revert\ntag_1:\n  pop\n  dataSize(sub_0)\n  dup1\n  dataOffset(sub_0)\n  0x00\n  codecopy\n  0x00\n  return\nstop\n\nsub_0: assembly {\n        /* \"contracts/FreelancerRegistry.sol\":57:468  contract FreelancerRegistry {... */\n      mstore(0x40, 0x80)\n      callvalue\n      dup1\n      iszero\n      tag_1\n      jumpi\n      0x00\n      dup1\n      revert\n    tag_1:\n      pop\n      jumpi(tag_2, lt(calldatasize, 0x04))\n      shr(0xe0, calldataload(0x00))\n      dup1\n      0x7ae339fd\n      eq\n      tag_3\n      jumpi\n      dup1\n      0xbb58be78\n      eq\n      tag_4\n      jumpi\n    tag_2:\n      0x00\n      dup1\n      revert\n        /* \"contracts/FreelancerRegistry.sol\":91:143  mapping(address => string) public freelancerProfiles */\n    tag_3:\n      tag_5\n      0x04\n      dup1\n      calldatasize\n      sub\n      dup2\n      add\n      swap1\n      tag_6\n      swap2\n      swap1\n      tag_7\n      jump\t// in\n    tag_6:\n      tag_8\n      jump\t// in\n    tag_5:\n      mload(0x40)\n      tag_9\n      swap2\n      swap1\n      tag_10\n      jump\t// in\n    tag_9:\n      mload(0x40)\n      dup1\n      swap2\n      sub\n      swap1\n      return\n        /* \"contracts/FreelancerRegistry.sol\":227:466  function registerFreelancer(string memory profile) external {... */\n    tag_4:\n      tag_11\n      0x04\n      dup1\n      calldatasize\n      sub\n      dup2\n      add\n      swap1\n      tag_12\n      swap2\n      swap1\n      tag_13\n      jump\t// in\n    tag_12:\n      tag_14\n      jump\t// in\n    tag_11:\n      stop\n        /* \"contracts/FreelancerRegistry.sol\":91:143  mapping(address => string) public freelancerProfiles */\n    tag_8:\n      mstore(0x20, 0x00)\n      dup1\n      0x00\n      mstore\n      keccak256(0x00, 0x40)\n      0x00\n      swap2\n      pop\n      swap1\n      pop\n      dup1\n      sload\n      tag_15\n      swap1\n      tag_16\n      jump\t// in\n    tag_15:\n      dup1\n      0x1f\n      add\n      0x20\n      dup1\n      swap2\n      div\n      mul\n      0x20\n      add\n      mload(0x40)\n      swap1\n      dup2\n      add\n      0x40\n      mstore\n      dup1\n      swap3\n      swap2\n      swap1\n      dup2\n      dup2\n      mstore\n      0x20\n      add\n      dup3\n      dup1\n      sload\n      tag_17\n      swap1\n      tag_16\n      jump\t// in\n    tag_17:\n      dup1\n      iszero\n      tag_18\n      jumpi\n      dup1\n      0x1f\n      lt\n      tag_19\n      jumpi\n      0x0100\n      dup1\n      dup4\n      sload\n      div\n      mul\n      dup4\n      mstore\n      swap2\n      0x20\n      add\n      swap2\n      jump(tag_18)\n    tag_19:\n      dup3\n      add\n      swap2\n      swap1\n      0x00\n      mstore\n      keccak256(0x00, 0x20)\n      swap1\n    tag_20:\n      dup2\n      sload\n      dup2\n      mstore\n      swap1\n      0x01\n      add\n      swap1\n      0x20\n      add\n      dup1\n      dup4\n      gt\n      tag_20\n      jumpi\n      dup3\n      swap1\n      sub\n      0x1f\n      and\n      dup3\n      add\n      swap2\n    tag_18:\n      pop\n      pop\n      pop\n      pop\n      pop\n      dup2\n      jump\t// out\n        /* \"contracts/FreelancerRegistry.sol\":227:466  function registerFreelancer(string memory profile) external {... */\n    tag_14:\n        /* \"contracts/FreelancerRegistry.sol\":329:331  10 */\n      0x0a\n        /* \"contracts/FreelancerRegistry.sol\":311:318  profile */\n      dup2\n        /* \"contracts/FreelancerRegistry.sol\":305:326  bytes(profile).length */\n      mload\n        /* \"contracts/FreelancerRegistry.sol\":305:331  bytes(profile).length > 10 */\n      gt\n        /* \"contracts/FreelancerRegistry.sol\":297:353  require(bytes(profile).length > 10, \"Profile too short\") */\n      tag_22\n      jumpi\n      mload(0x40)\n      0x08c379a000000000000000000000000000000000000000000000000000000000\n      dup2\n      mstore\n      0x04\n      add\n      tag_23\n      swap1\n      tag_24\n      jump\t// in\n    tag_23:\n      mload(0x40)\n      dup1\n      swap2\n      sub\n      swap1\n      revert\n    tag_22:\n        /* \"contracts/FreelancerRegistry.sol\":396:403  profile */\n      dup1\n        /* \"contracts/FreelancerRegistry.sol\":363:381  freelancerProfiles */\n      0x00\n        /* \"contracts/FreelancerRegistry.sol\":363:393  freelancerProfiles[msg.sender] */\n      dup1\n        /* \"contracts/FreelancerRegistry.sol\":382:392  msg.sender */\n      caller\n        /* \"contracts/FreelancerRegistry.sol\":363:393  freelancerProfiles[msg.sender] */\n      0xffffffffffffffffffffffffffffffffffffffff\n      and\n      0xffffffffffffffffffffffffffffffffffffffff\n      and\n      dup2\n      mstore\n      0x20\n      add\n      swap1\n      dup2\n      mstore\n      0x20\n      add\n      0x00\n      keccak256\n        /* \"contracts/FreelancerRegistry.sol\":363:403  freelancerProfiles[msg.sender] = profile */\n      swap1\n      dup2\n      tag_25\n      swap2\n      swap1\n      tag_26\n      jump\t// in\n    tag_25:\n      pop\n        /* \"contracts/FreelancerRegistry.sol\":439:449  msg.sender */\n      caller\n        /* \"contracts/FreelancerRegistry.sol\":418:459  FreelancerRegistered(msg.sender, profile) */\n      0xffffffffffffffffffffffffffffffffffffffff\n      and\n      0x1700582be850ff71f6341c0e9768c45b03576a787f186451b51af237c29eab50\n        /* \"contracts/FreelancerRegistry.sol\":451:458  profile */\n      dup3\n        /* \"contracts/FreelancerRegistry.sol\":418:459  FreelancerRegistered(msg.sender, profile) */\n      mload(0x40)\n      tag_27\n      swap2\n      swap1\n      tag_10\n      jump\t// in\n    tag_27:\n      mload(0x40)\n      dup1\n      swap2\n      sub\n      swap1\n      log2\n        /* \"contracts/FreelancerRegistry.sol\":227:466  function registerFreelancer(string memory profile) external {... */\n      pop\n      jump\t// out\n        /* \"#utility.yul\":7:82   */\n    tag_28:\n        /* \"#utility.yul\":40:46   */\n      0x00\n        /* \"#utility.yul\":73:75   */\n      0x40\n        /* \"#utility.yul\":67:76   */\n      mload\n        /* \"#utility.yul\":57:76   */\n      swap1\n      pop\n        /* \"#utility.yul\":7:82   */\n      swap1\n      jump\t// out\n        /* \"#utility.yul\":88:205   */\n    tag_29:\n        /* \"#utility.yul\":197:198   */\n      0x00\n        /* \"#utility.yul\":194:195   */\n      dup1\n        /* \"#utility.yul\":187:199   */\n      revert\n        /* \"#utility.yul\":211:328   */\n    tag_30:\n        /* \"#utility.yul\":320:321   */\n      0x00\n        /* \"#utility.yul\":317:318   */\n      dup1\n        /* \"#utility.yul\":310:322   */\n      revert\n        /* \"#utility.yul\":334:460   */\n    tag_31:\n        /* \"#utility.yul\":371:378   */\n      0x00\n        /* \"#utility.yul\":411:453   */\n      0xffffffffffffffffffffffffffffffffffffffff\n        /* \"#utility.yul\":404:409   */\n      dup3\n        /* \"#utility.yul\":400:454   */\n      and\n        /* \"#utility.yul\":389:454   */\n      swap1\n      pop\n        /* \"#utility.yul\":334:460   */\n      swap2\n      swap1\n      pop\n      jump\t// out\n        /* \"#utility.yul\":466:562   */\n    tag_32:\n        /* \"#utility.yul\":503:510   */\n      0x00\n        /* \"#utility.yul\":532:556   */\n      tag_74\n        /* \"#utility.yul\":550:555   */\n      dup3\n        /* \"#utility.yul\":532:556   */\n      tag_31\n      jump\t// in\n    tag_74:\n        /* \"#utility.yul\":521:556   */\n      swap1\n      pop\n        /* \"#utility.yul\":466:562   */\n      swap2\n      swap1\n      pop\n      jump\t// out\n        /* \"#utility.yul\":568:690   */\n    tag_33:\n        /* \"#utility.yul\":641:665   */\n      tag_76\n        /* \"#utility.yul\":659:664   */\n      dup2\n        /* \"#utility.yul\":641:665   */\n      tag_32\n      jump\t// in\n    tag_76:\n        /* \"#utility.yul\":634:639   */\n      dup2\n        /* \"#utility.yul\":631:666   */\n      eq\n        /* \"#utility.yul\":621:684   */\n      tag_77\n      jumpi\n        /* \"#utility.yul\":680:681   */\n      0x00\n        /* \"#utility.yul\":677:678   */\n      dup1\n        /* \"#utility.yul\":670:682   */\n      revert\n        /* \"#utility.yul\":621:684   */\n    tag_77:\n        /* \"#utility.yul\":568:690   */\n      pop\n      jump\t// out\n        /* \"#utility.yul\":696:835   */\n    tag_34:\n        /* \"#utility.yul\":742:747   */\n      0x00\n        /* \"#utility.yul\":780:786   */\n      dup2\n        /* \"#utility.yul\":767:787   */\n      calldataload\n        /* \"#utility.yul\":758:787   */\n      swap1\n      pop\n        /* \"#utility.yul\":796:829   */\n      tag_79\n        /* \"#utility.yul\":823:828   */\n      dup2\n        /* \"#utility.yul\":796:829   */\n      tag_33\n      jump\t// in\n    tag_79:\n        /* \"#utility.yul\":696:835   */\n      swap3\n      swap2\n      pop\n      pop\n      jump\t// out\n        /* \"#utility.yul\":841:1170   */\n    tag_7:\n        /* \"#utility.yul\":900:906   */\n      0x00\n        /* \"#utility.yul\":949:951   */\n      0x20\n        /* \"#utility.yul\":937:946   */\n      dup3\n        /* \"#utility.yul\":928:935   */\n      dup5\n        /* \"#utility.yul\":924:947   */\n      sub\n        /* \"#utility.yul\":920:952   */\n      slt\n        /* \"#utility.yul\":917:1036   */\n      iszero\n      tag_81\n      jumpi\n        /* \"#utility.yul\":955:1034   */\n      tag_82\n      tag_29\n      jump\t// in\n    tag_82:\n        /* \"#utility.yul\":917:1036   */\n    tag_81:\n        /* \"#utility.yul\":1075:1076   */\n      0x00\n        /* \"#utility.yul\":1100:1153   */\n      tag_83\n        /* \"#utility.yul\":1145:1152   */\n      dup5\n        /* \"#utility.yul\":1136:1142   */\n      dup3\n        /* \"#utility.yul\":1125:1134   */\n      dup6\n        /* \"#utility.yul\":1121:1143   */\n      add\n        /* \"#utility.yul\":1100:1153   */\n      tag_34\n      jump\t// in\n    tag_83:\n        /* \"#utility.yul\":1090:1153   */\n      swap2\n      pop\n        /* \"#utility.yul\":1046:1163   */\n      pop\n        /* \"#utility.yul\":841:1170   */\n      swap3\n      swap2\n      pop\n      pop\n      jump\t// out\n        /* \"#utility.yul\":1176:1275   */\n    tag_35:\n        /* \"#utility.yul\":1228:1234   */\n      0x00\n        /* \"#utility.yul\":1262:1267   */\n      dup2\n        /* \"#utility.yul\":1256:1268   */\n      mload\n        /* \"#utility.yul\":1246:1268   */\n      swap1\n      pop\n        /* \"#utility.yul\":1176:1275   */\n      swap2\n      swap1\n      pop\n      jump\t// out\n        /* \"#utility.yul\":1281:1450   */\n    tag_36:\n        /* \"#utility.yul\":1365:1376   */\n      0x00\n        /* \"#utility.yul\":1399:1405   */\n      dup3\n        /* \"#utility.yul\":1394:1397   */\n      dup3\n        /* \"#utility.yul\":1387:1406   */\n      mstore\n        /* \"#utility.yul\":1439:1443   */\n      0x20\n        /* \"#utility.yul\":1434:1437   */\n      dup3\n        /* \"#utility.yul\":1430:1444   */\n      add\n        /* \"#utility.yul\":1415:1444   */\n      swap1\n      pop\n        /* \"#utility.yul\":1281:1450   */\n      swap3\n      swap2\n      pop\n      pop\n      jump\t// out\n        /* \"#utility.yul\":1456:1595   */\n    tag_37:\n        /* \"#utility.yul\":1545:1551   */\n      dup3\n        /* \"#utility.yul\":1540:1543   */\n      dup2\n        /* \"#utility.yul\":1535:1538   */\n      dup4\n        /* \"#utility.yul\":1529:1552   */\n      mcopy\n        /* \"#utility.yul\":1586:1587   */\n      0x00\n        /* \"#utility.yul\":1577:1583   */\n      dup4\n        /* \"#utility.yul\":1572:1575   */\n      dup4\n        /* \"#utility.yul\":1568:1584   */\n      add\n        /* \"#utility.yul\":1561:1588   */\n      mstore\n        /* \"#utility.yul\":1456:1595   */\n      pop\n      pop\n      pop\n      jump\t// out\n        /* \"#utility.yul\":1601:1703   */\n    tag_38:\n        /* \"#utility.yul\":1642:1648   */\n      0x00\n        /* \"#utility.yul\":1693:1695   */\n      0x1f\n        /* \"#utility.yul\":1689:1696   */\n      not\n        /* \"#utility.yul\":1684:1686   */\n      0x1f\n        /* \"#utility.yul\":1677:1682   */\n      dup4\n        /* \"#utility.yul\":1673:1687   */\n      add\n        /* \"#utility.yul\":1669:1697   */\n      and\n        /* \"#utility.yul\":1659:1697   */\n      swap1\n      pop\n        /* \"#utility.yul\":1601:1703   */\n      swap2\n      swap1\n      pop\n      jump\t// out\n        /* \"#utility.yul\":1709:2086   */\n    tag_39:\n        /* \"#utility.yul\":1797:1800   */\n      0x00\n        /* \"#utility.yul\":1825:1864   */\n      tag_89\n        /* \"#utility.yul\":1858:1863   */\n      dup3\n        /* \"#utility.yul\":1825:1864   */\n      tag_35\n      jump\t// in\n    tag_89:\n        /* \"#utility.yul\":1880:1951   */\n      tag_90\n        /* \"#utility.yul\":1944:1950   */\n      dup2\n        /* \"#utility.yul\":1939:1942   */\n      dup6\n        /* \"#utility.yul\":1880:1951   */\n      tag_36\n      jump\t// in\n    tag_90:\n        /* \"#utility.yul\":1873:1951   */\n      swap4\n      pop\n        /* \"#utility.yul\":1960:2025   */\n      tag_91\n        /* \"#utility.yul\":2018:2024   */\n      dup2\n        /* \"#utility.yul\":2013:2016   */\n      dup6\n        /* \"#utility.yul\":2006:2010   */\n      0x20\n        /* \"#utility.yul\":1999:2004   */\n      dup7\n        /* \"#utility.yul\":1995:2011   */\n      add\n        /* \"#utility.yul\":1960:2025   */\n      tag_37\n      jump\t// in\n    tag_91:\n        /* \"#utility.yul\":2050:2079   */\n      tag_92\n        /* \"#utility.yul\":2072:2078   */\n      dup2\n        /* \"#utility.yul\":2050:2079   */\n      tag_38\n      jump\t// in\n    tag_92:\n        /* \"#utility.yul\":2045:2048   */\n      dup5\n        /* \"#utility.yul\":2041:2080   */\n      add\n        /* \"#utility.yul\":2034:2080   */\n      swap2\n      pop\n        /* \"#utility.yul\":1801:2086   */\n      pop\n        /* \"#utility.yul\":1709:2086   */\n      swap3\n      swap2\n      pop\n      pop\n      jump\t// out\n        /* \"#utility.yul\":2092:2405   */\n    tag_10:\n        /* \"#utility.yul\":2205:2209   */\n      0x00\n        /* \"#utility.yul\":2243:2245   */\n      0x20\n        /* \"#utility.yul\":2232:2241   */\n      dup3\n        /* \"#utility.yul\":2228:2246   */\n      add\n        /* \"#utility.yul\":2220:2246   */\n      swap1\n      pop\n        /* \"#utility.yul\":2292:2301   */\n      dup2\n        /* \"#utility.yul\":2286:2290   */\n      dup2\n        /* \"#utility.yul\":2282:2302   */\n      sub\n        /* \"#utility.yul\":2278:2279   */\n      0x00\n        /* \"#utility.yul\":2267:2276   */\n      dup4\n        /* \"#utility.yul\":2263:2280   */\n      add\n        /* \"#utility.yul\":2256:2303   */\n      mstore\n        /* \"#utility.yul\":2320:2398   */\n      tag_94\n        /* \"#utility.yul\":2393:2397   */\n      dup2\n        /* \"#utility.yul\":2384:2390   */\n      dup5\n        /* \"#utility.yul\":2320:2398   */\n      tag_39\n      jump\t// in\n    tag_94:\n        /* \"#utility.yul\":2312:2398   */\n      swap1\n      pop\n        /* \"#utility.yul\":2092:2405   */\n      swap3\n      swap2\n      pop\n      pop\n      jump\t// out\n        /* \"#utility.yul\":2411:2528   */\n    tag_40:\n        /* \"#utility.yul\":2520:2521   */\n      0x00\n        /* \"#utility.yul\":2517:2518   */\n      dup1\n        /* \"#utility.yul\":2510:2522   */\n      revert\n        /* \"#utility.yul\":2534:2651   */\n    tag_41:\n        /* \"#utility.yul\":2643:2644   */\n      0x00\n        /* \"#utility.yul\":2640:2641   */\n      dup1\n        /* \"#utility.yul\":2633:2645   */\n      revert\n        /* \"#utility.yul\":2657:2837   */\n    tag_42:\n        /* \"#utility.yul\":2705:2782   */\n      0x4e487b7100000000000000000000000000000000000000000000000000000000\n        /* \"#utility.yul\":2702:2703   */\n      0x00\n        /* \"#utility.yul\":2695:2783   */\n      mstore\n        /* \"#utility.yul\":2802:2806   */\n      0x41\n        /* \"#utility.yul\":2799:2800   */\n      0x04\n        /* \"#utility.yul\":2792:2807   */\n      mstore\n        /* \"#utility.yul\":2826:2830   */\n      0x24\n        /* \"#utility.yul\":2823:2824   */\n      0x00\n        /* \"#utility.yul\":2816:2831   */\n      revert\n        /* \"#utility.yul\":2843:3124   */\n    tag_43:\n        /* \"#utility.yul\":2926:2953   */\n      tag_99\n        /* \"#utility.yul\":2948:2952   */\n      dup3\n        /* \"#utility.yul\":2926:2953   */\n      tag_38\n      jump\t// in\n    tag_99:\n        /* \"#utility.yul\":2918:2924   */\n      dup2\n        /* \"#utility.yul\":2914:2954   */\n      add\n        /* \"#utility.yul\":3056:3062   */\n      dup2\n        /* \"#utility.yul\":3044:3054   */\n      dup2\n        /* \"#utility.yul\":3041:3063   */\n      lt\n        /* \"#utility.yul\":3020:3038   */\n      0xffffffffffffffff\n        /* \"#utility.yul\":3008:3018   */\n      dup3\n        /* \"#utility.yul\":3005:3039   */\n      gt\n        /* \"#utility.yul\":3002:3064   */\n      or\n        /* \"#utility.yul\":2999:3087   */\n      iszero\n      tag_100\n      jumpi\n        /* \"#utility.yul\":3067:3085   */\n      tag_101\n      tag_42\n      jump\t// in\n    tag_101:\n        /* \"#utility.yul\":2999:3087   */\n    tag_100:\n        /* \"#utility.yul\":3107:3117   */\n      dup1\n        /* \"#utility.yul\":3103:3105   */\n      0x40\n        /* \"#utility.yul\":3096:3118   */\n      mstore\n        /* \"#utility.yul\":2886:3124   */\n      pop\n        /* \"#utility.yul\":2843:3124   */\n      pop\n      pop\n      jump\t// out\n        /* \"#utility.yul\":3130:3259   */\n    tag_44:\n        /* \"#utility.yul\":3164:3170   */\n      0x00\n        /* \"#utility.yul\":3191:3211   */\n      tag_103\n      tag_28\n      jump\t// in\n    tag_103:\n        /* \"#utility.yul\":3181:3211   */\n      swap1\n      pop\n        /* \"#utility.yul\":3220:3253   */\n      tag_104\n        /* \"#utility.yul\":3248:3252   */\n      dup3\n        /* \"#utility.yul\":3240:3246   */\n      dup3\n        /* \"#utility.yul\":3220:3253   */\n      tag_43\n      jump\t// in\n    tag_104:\n        /* \"#utility.yul\":3130:3259   */\n      swap2\n      swap1\n      pop\n      jump\t// out\n        /* \"#utility.yul\":3265:3573   */\n    tag_45:\n        /* \"#utility.yul\":3327:3331   */\n      0x00\n        /* \"#utility.yul\":3417:3435   */\n      0xffffffffffffffff\n        /* \"#utility.yul\":3409:3415   */\n      dup3\n        /* \"#utility.yul\":3406:3436   */\n      gt\n        /* \"#utility.yul\":3403:3459   */\n      iszero\n      tag_106\n      jumpi\n        /* \"#utility.yul\":3439:3457   */\n      tag_107\n      tag_42\n      jump\t// in\n    tag_107:\n        /* \"#utility.yul\":3403:3459   */\n    tag_106:\n        /* \"#utility.yul\":3477:3506   */\n      tag_108\n        /* \"#utility.yul\":3499:3505   */\n      dup3\n        /* \"#utility.yul\":3477:3506   */\n      tag_38\n      jump\t// in\n    tag_108:\n        /* \"#utility.yul\":3469:3506   */\n      swap1\n      pop\n        /* \"#utility.yul\":3561:3565   */\n      0x20\n        /* \"#utility.yul\":3555:3559   */\n      dup2\n        /* \"#utility.yul\":3551:3566   */\n      add\n        /* \"#utility.yul\":3543:3566   */\n      swap1\n      pop\n        /* \"#utility.yul\":3265:3573   */\n      swap2\n      swap1\n      pop\n      jump\t// out\n        /* \"#utility.yul\":3579:3727   */\n    tag_46:\n        /* \"#utility.yul\":3677:3683   */\n      dup3\n        /* \"#utility.yul\":3672:3675   */\n      dup2\n        /* \"#utility.yul\":3667:3670   */\n      dup4\n        /* \"#utility.yul\":3654:3684   */\n      calldatacopy\n        /* \"#utility.yul\":3718:3719   */\n      0x00\n        /* \"#utility.yul\":3709:3715   */\n      dup4\n        /* \"#utility.yul\":3704:3707   */\n      dup4\n        /* \"#utility.yul\":3700:3716   */\n      add\n        /* \"#utility.yul\":3693:3720   */\n      mstore\n        /* \"#utility.yul\":3579:3727   */\n      pop\n      pop\n      pop\n      jump\t// out\n        /* \"#utility.yul\":3733:4158   */\n    tag_47:\n        /* \"#utility.yul\":3811:3816   */\n      0x00\n        /* \"#utility.yul\":3836:3902   */\n      tag_111\n        /* \"#utility.yul\":3852:3901   */\n      tag_112\n        /* \"#utility.yul\":3894:3900   */\n      dup5\n        /* \"#utility.yul\":3852:3901   */\n      tag_45\n      jump\t// in\n    tag_112:\n        /* \"#utility.yul\":3836:3902   */\n      tag_44\n      jump\t// in\n    tag_111:\n        /* \"#utility.yul\":3827:3902   */\n      swap1\n      pop\n        /* \"#utility.yul\":3925:3931   */\n      dup3\n        /* \"#utility.yul\":3918:3923   */\n      dup2\n        /* \"#utility.yul\":3911:3932   */\n      mstore\n        /* \"#utility.yul\":3963:3967   */\n      0x20\n        /* \"#utility.yul\":3956:3961   */\n      dup2\n        /* \"#utility.yul\":3952:3968   */\n      add\n        /* \"#utility.yul\":4001:4004   */\n      dup5\n        /* \"#utility.yul\":3992:3998   */\n      dup5\n        /* \"#utility.yul\":3987:3990   */\n      dup5\n        /* \"#utility.yul\":3983:3999   */\n      add\n        /* \"#utility.yul\":3980:4005   */\n      gt\n        /* \"#utility.yul\":3977:4089   */\n      iszero\n      tag_113\n      jumpi\n        /* \"#utility.yul\":4008:4087   */\n      tag_114\n      tag_41\n      jump\t// in\n    tag_114:\n        /* \"#utility.yul\":3977:4089   */\n    tag_113:\n        /* \"#utility.yul\":4098:4152   */\n      tag_115\n        /* \"#utility.yul\":4145:4151   */\n      dup5\n        /* \"#utility.yul\":4140:4143   */\n      dup3\n        /* \"#utility.yul\":4135:4138   */\n      dup6\n        /* \"#utility.yul\":4098:4152   */\n      tag_46\n      jump\t// in\n    tag_115:\n        /* \"#utility.yul\":3817:4158   */\n      pop\n        /* \"#utility.yul\":3733:4158   */\n      swap4\n      swap3\n      pop\n      pop\n      pop\n      jump\t// out\n        /* \"#utility.yul\":4178:4518   */\n    tag_48:\n        /* \"#utility.yul\":4234:4239   */\n      0x00\n        /* \"#utility.yul\":4283:4286   */\n      dup3\n        /* \"#utility.yul\":4276:4280   */\n      0x1f\n        /* \"#utility.yul\":4268:4274   */\n      dup4\n        /* \"#utility.yul\":4264:4281   */\n      add\n        /* \"#utility.yul\":4260:4287   */\n      slt\n        /* \"#utility.yul\":4250:4372   */\n      tag_117\n      jumpi\n        /* \"#utility.yul\":4291:4370   */\n      tag_118\n      tag_40\n      jump\t// in\n    tag_118:\n        /* \"#utility.yul\":4250:4372   */\n    tag_117:\n        /* \"#utility.yul\":4408:4414   */\n      dup2\n        /* \"#utility.yul\":4395:4415   */\n      calldataload\n        /* \"#utility.yul\":4433:4512   */\n      tag_119\n        /* \"#utility.yul\":4508:4511   */\n      dup5\n        /* \"#utility.yul\":4500:4506   */\n      dup3\n        /* \"#utility.yul\":4493:4497   */\n      0x20\n        /* \"#utility.yul\":4485:4491   */\n      dup7\n        /* \"#utility.yul\":4481:4498   */\n      add\n        /* \"#utility.yul\":4433:4512   */\n      tag_47\n      jump\t// in\n    tag_119:\n        /* \"#utility.yul\":4424:4512   */\n      swap2\n      pop\n        /* \"#utility.yul\":4240:4518   */\n      pop\n        /* \"#utility.yul\":4178:4518   */\n      swap3\n      swap2\n      pop\n      pop\n      jump\t// out\n        /* \"#utility.yul\":4524:5033   */\n    tag_13:\n        /* \"#utility.yul\":4593:4599   */\n      0x00\n        /* \"#utility.yul\":4642:4644   */\n      0x20\n        /* \"#utility.yul\":4630:4639   */\n      dup3\n        /* \"#utility.yul\":4621:4628   */\n      dup5\n        /* \"#utility.yul\":4617:4640   */\n      sub\n        /* \"#utility.yul\":4613:4645   */\n      slt\n        /* \"#utility.yul\":4610:4729   */\n      iszero\n      tag_121\n      jumpi\n        /* \"#utility.yul\":4648:4727   */\n      tag_122\n      tag_29\n      jump\t// in\n    tag_122:\n        /* \"#utility.yul\":4610:4729   */\n    tag_121:\n        /* \"#utility.yul\":4796:4797   */\n      0x00\n        /* \"#utility.yul\":4785:4794   */\n      dup3\n        /* \"#utility.yul\":4781:4798   */\n      add\n        /* \"#utility.yul\":4768:4799   */\n      calldataload\n        /* \"#utility.yul\":4826:4844   */\n      0xffffffffffffffff\n        /* \"#utility.yul\":4818:4824   */\n      dup2\n        /* \"#utility.yul\":4815:4845   */\n      gt\n        /* \"#utility.yul\":4812:4929   */\n      iszero\n      tag_123\n      jumpi\n        /* \"#utility.yul\":4848:4927   */\n      tag_124\n      tag_30\n      jump\t// in\n    tag_124:\n        /* \"#utility.yul\":4812:4929   */\n    tag_123:\n        /* \"#utility.yul\":4953:5016   */\n      tag_125\n        /* \"#utility.yul\":5008:5015   */\n      dup5\n        /* \"#utility.yul\":4999:5005   */\n      dup3\n        /* \"#utility.yul\":4988:4997   */\n      dup6\n        /* \"#utility.yul\":4984:5006   */\n      add\n        /* \"#utility.yul\":4953:5016   */\n      tag_48\n      jump\t// in\n    tag_125:\n        /* \"#utility.yul\":4943:5016   */\n      swap2\n      pop\n        /* \"#utility.yul\":4739:5026   */\n      pop\n        /* \"#utility.yul\":4524:5033   */\n      swap3\n      swap2\n      pop\n      pop\n      jump\t// out\n        /* \"#utility.yul\":5039:5219   */\n    tag_49:\n        /* \"#utility.yul\":5087:5164   */\n      0x4e487b7100000000000000000000000000000000000000000000000000000000\n        /* \"#utility.yul\":5084:5085   */\n      0x00\n        /* \"#utility.yul\":5077:5165   */\n      mstore\n        /* \"#utility.yul\":5184:5188   */\n      0x22\n        /* \"#utility.yul\":5181:5182   */\n      0x04\n        /* \"#utility.yul\":5174:5189   */\n      mstore\n        /* \"#utility.yul\":5208:5212   */\n      0x24\n        /* \"#utility.yul\":5205:5206   */\n      0x00\n        /* \"#utility.yul\":5198:5213   */\n      revert\n        /* \"#utility.yul\":5225:5545   */\n    tag_16:\n        /* \"#utility.yul\":5269:5275   */\n      0x00\n        /* \"#utility.yul\":5306:5307   */\n      0x02\n        /* \"#utility.yul\":5300:5304   */\n      dup3\n        /* \"#utility.yul\":5296:5308   */\n      div\n        /* \"#utility.yul\":5286:5308   */\n      swap1\n      pop\n        /* \"#utility.yul\":5353:5354   */\n      0x01\n        /* \"#utility.yul\":5347:5351   */\n      dup3\n        /* \"#utility.yul\":5343:5355   */\n      and\n        /* \"#utility.yul\":5374:5392   */\n      dup1\n        /* \"#utility.yul\":5364:5445   */\n      tag_128\n      jumpi\n        /* \"#utility.yul\":5430:5434   */\n      0x7f\n        /* \"#utility.yul\":5422:5428   */\n      dup3\n        /* \"#utility.yul\":5418:5435   */\n      and\n        /* \"#utility.yul\":5408:5435   */\n      swap2\n      pop\n        /* \"#utility.yul\":5364:5445   */\n    tag_128:\n        /* \"#utility.yul\":5492:5494   */\n      0x20\n        /* \"#utility.yul\":5484:5490   */\n      dup3\n        /* \"#utility.yul\":5481:5495   */\n      lt\n        /* \"#utility.yul\":5461:5479   */\n      dup2\n        /* \"#utility.yul\":5458:5496   */\n      sub\n        /* \"#utility.yul\":5455:5539   */\n      tag_129\n      jumpi\n        /* \"#utility.yul\":5511:5529   */\n      tag_130\n      tag_49\n      jump\t// in\n    tag_130:\n        /* \"#utility.yul\":5455:5539   */\n    tag_129:\n        /* \"#utility.yul\":5276:5545   */\n      pop\n        /* \"#utility.yul\":5225:5545   */\n      swap2\n      swap1\n      pop\n      jump\t// out\n        /* \"#utility.yul\":5551:5718   */\n    tag_50:\n        /* \"#utility.yul\":5691:5710   */\n      0x50726f66696c6520746f6f2073686f7274000000000000000000000000000000\n        /* \"#utility.yul\":5687:5688   */\n      0x00\n        /* \"#utility.yul\":5679:5685   */\n      dup3\n        /* \"#utility.yul\":5675:5689   */\n      add\n        /* \"#utility.yul\":5668:5711   */\n      mstore\n        /* \"#utility.yul\":5551:5718   */\n      pop\n      jump\t// out\n        /* \"#utility.yul\":5724:6090   */\n    tag_51:\n        /* \"#utility.yul\":5866:5869   */\n      0x00\n        /* \"#utility.yul\":5887:5954   */\n      tag_133\n        /* \"#utility.yul\":5951:5953   */\n      0x11\n        /* \"#utility.yul\":5946:5949   */\n      dup4\n        /* \"#utility.yul\":5887:5954   */\n      tag_36\n      jump\t// in\n    tag_133:\n        /* \"#utility.yul\":5880:5954   */\n      swap2\n      pop\n        /* \"#utility.yul\":5963:6056   */\n      tag_134\n        /* \"#utility.yul\":6052:6055   */\n      dup3\n        /* \"#utility.yul\":5963:6056   */\n      tag_50\n      jump\t// in\n    tag_134:\n        /* \"#utility.yul\":6081:6083   */\n      0x20\n        /* \"#utility.yul\":6076:6079   */\n      dup3\n        /* \"#utility.yul\":6072:6084   */\n      add\n        /* \"#utility.yul\":6065:6084   */\n      swap1\n      pop\n        /* \"#utility.yul\":5724:6090   */\n      swap2\n      swap1\n      pop\n      jump\t// out\n        /* \"#utility.yul\":6096:6515   */\n    tag_24:\n        /* \"#utility.yul\":6262:6266   */\n      0x00\n        /* \"#utility.yul\":6300:6302   */\n      0x20\n        /* \"#utility.yul\":6289:6298   */\n      dup3\n        /* \"#utility.yul\":6285:6303   */\n      add\n        /* \"#utility.yul\":6277:6303   */\n      swap1\n      pop\n        /* \"#utility.yul\":6349:6358   */\n      dup2\n        /* \"#utility.yul\":6343:6347   */\n      dup2\n        /* \"#utility.yul\":6339:6359   */\n      sub\n        /* \"#utility.yul\":6335:6336   */\n      0x00\n        /* \"#utility.yul\":6324:6333   */\n      dup4\n        /* \"#utility.yul\":6320:6337   */\n      add\n        /* \"#utility.yul\":6313:6360   */\n      mstore\n        /* \"#utility.yul\":6377:6508   */\n      tag_136\n        /* \"#utility.yul\":6503:6507   */\n      dup2\n        /* \"#utility.yul\":6377:6508   */\n      tag_51\n      jump\t// in\n    tag_136:\n        /* \"#utility.yul\":6369:6508   */\n      swap1\n      pop\n        /* \"#utility.yul\":6096:6515   */\n      swap2\n      swap1\n      pop\n      jump\t// out\n        /* \"#utility.yul\":6521:6662   */\n    tag_52:\n        /* \"#utility.yul\":6570:6574   */\n      0x00\n        /* \"#utility.yul\":6593:6596   */\n      dup2\n        /* \"#utility.yul\":6585:6596   */\n      swap1\n      pop\n        /* \"#utility.yul\":6616:6619   */\n      dup2\n        /* \"#utility.yul\":6613:6614   */\n      0x00\n        /* \"#utility.yul\":6606:6620   */\n      mstore\n        /* \"#utility.yul\":6650:6654   */\n      0x20\n        /* \"#utility.yul\":6647:6648   */\n      0x00\n        /* \"#utility.yul\":6637:6655   */\n      keccak256\n        /* \"#utility.yul\":6629:6655   */\n      swap1\n      pop\n        /* \"#utility.yul\":6521:6662   */\n      swap2\n      swap1\n      pop\n      jump\t// out\n        /* \"#utility.yul\":6668:6761   */\n    tag_53:\n        /* \"#utility.yul\":6705:6711   */\n      0x00\n        /* \"#utility.yul\":6752:6754   */\n      0x20\n        /* \"#utility.yul\":6747:6749   */\n      0x1f\n        /* \"#utility.yul\":6740:6745   */\n      dup4\n        /* \"#utility.yul\":6736:6750   */\n      add\n        /* \"#utility.yul\":6732:6755   */\n      div\n        /* \"#utility.yul\":6722:6755   */\n      swap1\n      pop\n        /* \"#utility.yul\":6668:6761   */\n      swap2\n      swap1\n      pop\n      jump\t// out\n        /* \"#utility.yul\":6767:6874   */\n    tag_54:\n        /* \"#utility.yul\":6811:6819   */\n      0x00\n        /* \"#utility.yul\":6861:6866   */\n      dup3\n        /* \"#utility.yul\":6855:6859   */\n      dup3\n        /* \"#utility.yul\":6851:6867   */\n      shl\n        /* \"#utility.yul\":6830:6867   */\n      swap1\n      pop\n        /* \"#utility.yul\":6767:6874   */\n      swap3\n      swap2\n      pop\n      pop\n      jump\t// out\n        /* \"#utility.yul\":6880:7273   */\n    tag_55:\n        /* \"#utility.yul\":6949:6955   */\n      0x00\n        /* \"#utility.yul\":6999:7000   */\n      0x08\n        /* \"#utility.yul\":6987:6997   */\n      dup4\n        /* \"#utility.yul\":6983:7001   */\n      mul\n        /* \"#utility.yul\":7022:7119   */\n      tag_141\n        /* \"#utility.yul\":7052:7118   */\n      0xffffffffffffffffffffffffffffffffffffffffffffffffffffffffffffffff\n        /* \"#utility.yul\":7041:7050   */\n      dup3\n        /* \"#utility.yul\":7022:7119   */\n      tag_54\n      jump\t// in\n    tag_141:\n        /* \"#utility.yul\":7140:7179   */\n      tag_142\n        /* \"#utility.yul\":7170:7178   */\n      dup7\n        /* \"#utility.yul\":7159:7168   */\n      dup4\n        /* \"#utility.yul\":7140:7179   */\n      tag_54\n      jump\t// in\n    tag_142:\n        /* \"#utility.yul\":7128:7179   */\n      swap6\n      pop\n        /* \"#utility.yul\":7212:7216   */\n      dup1\n        /* \"#utility.yul\":7208:7217   */\n      not\n        /* \"#utility.yul\":7201:7206   */\n      dup5\n        /* \"#utility.yul\":7197:7218   */\n      and\n        /* \"#utility.yul\":7188:7218   */\n      swap4\n      pop\n        /* \"#utility.yul\":7261:7265   */\n      dup1\n        /* \"#utility.yul\":7251:7259   */\n      dup7\n        /* \"#utility.yul\":7247:7266   */\n      and\n        /* \"#utility.yul\":7240:7245   */\n      dup5\n        /* \"#utility.yul\":7237:7267   */\n      or\n        /* \"#utility.yul\":7227:7267   */\n      swap3\n      pop\n        /* \"#utility.yul\":6956:7273   */\n      pop\n      pop\n        /* \"#utility.yul\":6880:7273   */\n      swap4\n      swap3\n      pop\n      pop\n      pop\n      jump\t// out\n        /* \"#utility.yul\":7279:7356   */\n    tag_56:\n        /* \"#utility.yul\":7316:7323   */\n      0x00\n        /* \"#utility.yul\":7345:7350   */\n      dup2\n        /* \"#utility.yul\":7334:7350   */\n      swap1\n      pop\n        /* \"#utility.yul\":7279:7356   */\n      swap2\n      swap1\n      pop\n      jump\t// out\n        /* \"#utility.yul\":7362:7422   */\n    tag_57:\n        /* \"#utility.yul\":7390:7393   */\n      0x00\n        /* \"#utility.yul\":7411:7416   */\n      dup2\n        /* \"#utility.yul\":7404:7416   */\n      swap1\n      pop\n        /* \"#utility.yul\":7362:7422   */\n      swap2\n      swap1\n      pop\n      jump\t// out\n        /* \"#utility.yul\":7428:7570   */\n    tag_58:\n        /* \"#utility.yul\":7478:7487   */\n      0x00\n        /* \"#utility.yul\":7511:7564   */\n      tag_146\n        /* \"#utility.yul\":7529:7563   */\n      tag_147\n        /* \"#utility.yul\":7538:7562   */\n      tag_148\n        /* \"#utility.yul\":7556:7561   */\n      dup5\n        /* \"#utility.yul\":7538:7562   */\n      tag_56\n      jump\t// in\n    tag_148:\n        /* \"#utility.yul\":7529:7563   */\n      tag_57\n      jump\t// in\n    tag_147:\n        /* \"#utility.yul\":7511:7564   */\n      tag_56\n      jump\t// in\n    tag_146:\n        /* \"#utility.yul\":7498:7564   */\n      swap1\n      pop\n        /* \"#utility.yul\":7428:7570   */\n      swap2\n      swap1\n      pop\n      jump\t// out\n        /* \"#utility.yul\":7576:7651   */\n    tag_59:\n        /* \"#utility.yul\":7619:7622   */\n      0x00\n        /* \"#utility.yul\":7640:7645   */\n      dup2\n        /* \"#utility.yul\":7633:7645   */\n      swap1\n      pop\n        /* \"#utility.yul\":7576:7651   */\n      swap2\n      swap1\n      pop\n      jump\t// out\n        /* \"#utility.yul\":7657:7926   */\n    tag_60:\n        /* \"#utility.yul\":7767:7806   */\n      tag_151\n        /* \"#utility.yul\":7798:7805   */\n      dup4\n        /* \"#utility.yul\":7767:7806   */\n      tag_58\n      jump\t// in\n    tag_151:\n        /* \"#utility.yul\":7828:7919   */\n      tag_152\n        /* \"#utility.yul\":7877:7918   */\n      tag_153\n        /* \"#utility.yul\":7901:7917   */\n      dup3\n        /* \"#utility.yul\":7877:7918   */\n      tag_59\n      jump\t// in\n    tag_153:\n        /* \"#utility.yul\":7869:7875   */\n      dup5\n        /* \"#utility.yul\":7862:7866   */\n      dup5\n        /* \"#utility.yul\":7856:7867   */\n      sload\n        /* \"#utility.yul\":7828:7919   */\n      tag_55\n      jump\t// in\n    tag_152:\n        /* \"#utility.yul\":7822:7826   */\n      dup3\n        /* \"#utility.yul\":7815:7920   */\n      sstore\n        /* \"#utility.yul\":7733:7926   */\n      pop\n        /* \"#utility.yul\":7657:7926   */\n      pop\n      pop\n      pop\n      jump\t// out\n        /* \"#utility.yul\":7932:8005   */\n    tag_61:\n        /* \"#utility.yul\":7977:7980   */\n      0x00\n        /* \"#utility.yul\":7932:8005   */\n      swap1\n      jump\t// out\n        /* \"#utility.yul\":8011:8200   */\n    tag_62:\n        /* \"#utility.yul\":8088:8120   */\n      tag_156\n      tag_61\n      jump\t// in\n    tag_156:\n        /* \"#utility.yul\":8129:8194   */\n      tag_157\n        /* \"#utility.yul\":8187:8193   */\n      dup2\n        /* \"#utility.yul\":8179:8185   */\n      dup5\n        /* \"#utility.yul\":8173:8177   */\n      dup5\n        /* \"#utility.yul\":8129:8194   */\n      tag_60\n      jump\t// in\n    tag_157:\n        /* \"#utility.yul\":8064:8200   */\n      pop\n        /* \"#utility.yul\":8011:8200   */\n      pop\n      pop\n      jump\t// out\n        /* \"#utility.yul\":8206:8392   */\n    tag_63:\n        /* \"#utility.yul\":8266:8386   */\n    tag_159:\n        /* \"#utility.yul\":8283:8286   */\n      dup2\n        /* \"#utility.yul\":8276:8281   */\n      dup2\n        /* \"#utility.yul\":8273:8287   */\n      lt\n        /* \"#utility.yul\":8266:8386   */\n      iszero\n      tag_161\n      jumpi\n        /* \"#utility.yul\":8337:8376   */\n      tag_162\n        /* \"#utility.yul\":8374:8375   */\n      0x00\n        /* \"#utility.yul\":8367:8372   */\n      dup3\n        /* \"#utility.yul\":8337:8376   */\n      tag_62\n      jump\t// in\n    tag_162:\n        /* \"#utility.yul\":8310:8311   */\n      0x01\n        /* \"#utility.yul\":8303:8308   */\n      dup2\n        /* \"#utility.yul\":8299:8312   */\n      add\n        /* \"#utility.yul\":8290:8312   */\n      swap1\n      pop\n        /* \"#utility.yul\":8266:8386   */\n      jump(tag_159)\n    tag_161:\n        /* \"#utility.yul\":8206:8392   */\n      pop\n      pop\n      jump\t// out\n        /* \"#utility.yul\":8398:8941   */\n    tag_64:\n        /* \"#utility.yul\":8499:8501   */\n      0x1f\n        /* \"#utility.yul\":8494:8497   */\n      dup3\n        /* \"#utility.yul\":8491:8502   */\n      gt\n        /* \"#utility.yul\":8488:8934   */\n      iszero\n      tag_164\n      jumpi\n        /* \"#utility.yul\":8533:8571   */\n      tag_165\n        /* \"#utility.yul\":8565:8570   */\n      dup2\n        /* \"#utility.yul\":8533:8571   */\n      tag_52\n      jump\t// in\n    tag_165:\n        /* \"#utility.yul\":8617:8646   */\n      tag_166\n        /* \"#utility.yul\":8635:8645   */\n      dup5\n        /* \"#utility.yul\":8617:8646   */\n      tag_53\n      jump\t// in\n    tag_166:\n        /* \"#utility.yul\":8607:8615   */\n      dup2\n        /* \"#utility.yul\":8603:8647   */\n      add\n        /* \"#utility.yul\":8800:8802   */\n      0x20\n        /* \"#utility.yul\":8788:8798   */\n      dup6\n        /* \"#utility.yul\":8785:8803   */\n      lt\n        /* \"#utility.yul\":8782:8831   */\n      iszero\n      tag_167\n      jumpi\n        /* \"#utility.yul\":8821:8829   */\n      dup2\n        /* \"#utility.yul\":8806:8829   */\n      swap1\n      pop\n        /* \"#utility.yul\":8782:8831   */\n    tag_167:\n        /* \"#utility.yul\":8844:8924   */\n      tag_168\n        /* \"#utility.yul\":8900:8922   */\n      tag_169\n        /* \"#utility.yul\":8918:8921   */\n      dup6\n        /* \"#utility.yul\":8900:8922   */\n      tag_53\n      jump\t// in\n    tag_169:\n        /* \"#utility.yul\":8890:8898   */\n      dup4\n        /* \"#utility.yul\":8886:8923   */\n      add\n        /* \"#utility.yul\":8873:8884   */\n      dup3\n        /* \"#utility.yul\":8844:8924   */\n      tag_63\n      jump\t// in\n    tag_168:\n        /* \"#utility.yul\":8503:8934   */\n      pop\n      pop\n        /* \"#utility.yul\":8488:8934   */\n    tag_164:\n        /* \"#utility.yul\":8398:8941   */\n      pop\n      pop\n      pop\n      jump\t// out\n        /* \"#utility.yul\":8947:9064   */\n    tag_65:\n        /* \"#utility.yul\":9001:9009   */\n      0x00\n        /* \"#utility.yul\":9051:9056   */\n      dup3\n        /* \"#utility.yul\":9045:9049   */\n      dup3\n        /* \"#utility.yul\":9041:9057   */\n      shr\n        /* \"#utility.yul\":9020:9057   */\n      swap1\n      pop\n        /* \"#utility.yul\":8947:9064   */\n      swap3\n      swap2\n      pop\n      pop\n      jump\t// out\n        /* \"#utility.yul\":9070:9239   */\n    tag_66:\n        /* \"#utility.yul\":9114:9120   */\n      0x00\n        /* \"#utility.yul\":9147:9198   */\n      tag_172\n        /* \"#utility.yul\":9195:9196   */\n      0x00\n        /* \"#utility.yul\":9191:9197   */\n      not\n        /* \"#utility.yul\":9183:9188   */\n      dup5\n        /* \"#utility.yul\":9180:9181   */\n      0x08\n        /* \"#utility.yul\":9176:9189   */\n      mul\n        /* \"#utility.yul\":9147:9198   */\n      tag_65\n      jump\t// in\n    tag_172:\n        /* \"#utility.yul\":9143:9199   */\n      not\n        /* \"#utility.yul\":9228:9232   */\n      dup1\n        /* \"#utility.yul\":9222:9226   */\n      dup4\n        /* \"#utility.yul\":9218:9233   */\n      and\n        /* \"#utility.yul\":9208:9233   */\n      swap2\n      pop\n        /* \"#utility.yul\":9121:9239   */\n      pop\n        /* \"#utility.yul\":9070:9239   */\n      swap3\n      swap2\n      pop\n      pop\n      jump\t// out\n        /* \"#utility.yul\":9244:9539   */\n    tag_67:\n        /* \"#utility.yul\":9320:9324   */\n      0x00\n        /* \"#utility.yul\":9466:9495   */\n      tag_174\n        /* \"#utility.yul\":9491:9494   */\n      dup4\n        /* \"#utility.yul\":9485:9489   */\n      dup4\n        /* \"#utility.yul\":9466:9495   */\n      tag_66\n      jump\t// in\n    tag_174:\n        /* \"#utility.yul\":9458:9495   */\n      swap2\n      pop\n        /* \"#utility.yul\":9528:9531   */\n      dup3\n        /* \"#utility.yul\":9525:9526   */\n      0x02\n        /* \"#utility.yul\":9521:9532   */\n      mul\n        /* \"#utility.yul\":9515:9519   */\n      dup3\n        /* \"#utility.yul\":9512:9533   */\n      or\n        /* \"#utility.yul\":9504:9533   */\n      swap1\n      pop\n        /* \"#utility.yul\":9244:9539   */\n      swap3\n      swap2\n      pop\n      pop\n      jump\t// out\n        /* \"#utility.yul\":9544:10939   */\n    tag_26:\n        /* \"#utility.yul\":9661:9698   */\n      tag_176\n        /* \"#utility.yul\":9694:9697   */\n      dup3\n        /* \"#utility.yul\":9661:9698   */\n      tag_35\n      jump\t// in\n    tag_176:\n        /* \"#utility.yul\":9763:9781   */\n      0xffffffffffffffff\n        /* \"#utility.yul\":9755:9761   */\n      dup2\n        /* \"#utility.yul\":9752:9782   */\n      gt\n        /* \"#utility.yul\":9749:9805   */\n      iszero\n      tag_177\n      jumpi\n        /* \"#utility.yul\":9785:9803   */\n      tag_178\n      tag_42\n      jump\t// in\n    tag_178:\n        /* \"#utility.yul\":9749:9805   */\n    tag_177:\n        /* \"#utility.yul\":9829:9867   */\n      tag_179\n        /* \"#utility.yul\":9861:9865   */\n      dup3\n        /* \"#utility.yul\":9855:9866   */\n      sload\n        /* \"#utility.yul\":9829:9867   */\n      tag_16\n      jump\t// in\n    tag_179:\n        /* \"#utility.yul\":9914:9981   */\n      tag_180\n        /* \"#utility.yul\":9974:9980   */\n      dup3\n        /* \"#utility.yul\":9966:9972   */\n      dup3\n        /* \"#utility.yul\":9960:9964   */\n      dup6\n        /* \"#utility.yul\":9914:9981   */\n      tag_64\n      jump\t// in\n    tag_180:\n        /* \"#utility.yul\":10008:10009   */\n      0x00\n        /* \"#utility.yul\":10032:10036   */\n      0x20\n        /* \"#utility.yul\":10019:10036   */\n      swap1\n      pop\n        /* \"#utility.yul\":10064:10066   */\n      0x1f\n        /* \"#utility.yul\":10056:10062   */\n      dup4\n        /* \"#utility.yul\":10053:10067   */\n      gt\n        /* \"#utility.yul\":10081:10082   */\n      0x01\n        /* \"#utility.yul\":10076:10694   */\n      dup2\n      eq\n      tag_182\n      jumpi\n        /* \"#utility.yul\":10738:10739   */\n      0x00\n        /* \"#utility.yul\":10755:10761   */\n      dup5\n        /* \"#utility.yul\":10752:10829   */\n      iszero\n      tag_183\n      jumpi\n        /* \"#utility.yul\":10804:10813   */\n      dup3\n        /* \"#utility.yul\":10799:10802   */\n      dup8\n        /* \"#utility.yul\":10795:10814   */\n      add\n        /* \"#utility.yul\":10789:10815   */\n      mload\n        /* \"#utility.yul\":10780:10815   */\n      swap1\n      pop\n        /* \"#utility.yul\":10752:10829   */\n    tag_183:\n        /* \"#utility.yul\":10855:10922   */\n      tag_184\n        /* \"#utility.yul\":10915:10921   */\n      dup6\n        /* \"#utility.yul\":10908:10913   */\n      dup3\n        /* \"#utility.yul\":10855:10922   */\n      tag_67\n      jump\t// in\n    tag_184:\n        /* \"#utility.yul\":10849:10853   */\n      dup7\n        /* \"#utility.yul\":10842:10923   */\n      sstore\n        /* \"#utility.yul\":10711:10933   */\n      pop\n        /* \"#utility.yul\":10046:10933   */\n      jump(tag_181)\n        /* \"#utility.yul\":10076:10694   */\n    tag_182:\n        /* \"#utility.yul\":10128:10132   */\n      0x1f\n        /* \"#utility.yul\":10124:10133   */\n      not\n        /* \"#utility.yul\":10116:10122   */\n      dup5\n        /* \"#utility.yul\":10112:10134   */\n      and\n        /* \"#utility.yul\":10162:10199   */\n      tag_185\n        /* \"#utility.yul\":10194:10198   */\n      dup7\n        /* \"#utility.yul\":10162:10199   */\n      tag_52\n      jump\t// in\n    tag_185:\n        /* \"#utility.yul\":10221:10222   */\n      0x00\n        /* \"#utility.yul\":10235:10443   */\n    tag_186:\n        /* \"#utility.yul\":10249:10256   */\n      dup3\n        /* \"#utility.yul\":10246:10247   */\n      dup2\n        /* \"#utility.yul\":10243:10257   */\n      lt\n        /* \"#utility.yul\":10235:10443   */\n      iszero\n      tag_188\n      jumpi\n        /* \"#utility.yul\":10328:10337   */\n      dup5\n        /* \"#utility.yul\":10323:10326   */\n      dup10\n        /* \"#utility.yul\":10319:10338   */\n      add\n        /* \"#utility.yul\":10313:10339   */\n      mload\n        /* \"#utility.yul\":10305:10311   */\n      dup3\n        /* \"#utility.yul\":10298:10340   */\n      sstore\n        /* \"#utility.yul\":10379:10380   */\n      0x01\n        /* \"#utility.yul\":10371:10377   */\n      dup3\n        /* \"#utility.yul\":10367:10381   */\n      add\n        /* \"#utility.yul\":10357:10381   */\n      swap2\n      pop\n        /* \"#utility.yul\":10426:10428   */\n      0x20\n        /* \"#utility.yul\":10415:10424   */\n      dup6\n        /* \"#utility.yul\":10411:10429   */\n      add\n        /* \"#utility.yul\":10398:10429   */\n      swap5\n      pop\n        /* \"#utility.yul\":10272:10276   */\n      0x20\n        /* \"#utility.yul\":10269:10270   */\n      dup2\n        /* \"#utility.yul\":10265:10277   */\n      add\n        /* \"#utility.yul\":10260:10277   */\n      swap1\n      pop\n        /* \"#utility.yul\":10235:10443   */\n      jump(tag_186)\n    tag_188:\n        /* \"#utility.yul\":10471:10477   */\n      dup7\n        /* \"#utility.yul\":10462:10469   */\n      dup4\n        /* \"#utility.yul\":10459:10478   */\n      lt\n        /* \"#utility.yul\":10456:10635   */\n      iszero\n      tag_189\n      jumpi\n        /* \"#utility.yul\":10529:10538   */\n      dup5\n        /* \"#utility.yul\":10524:10527   */\n      dup10\n        /* \"#utility.yul\":10520:10539   */\n      add\n        /* \"#utility.yul\":10514:10540   */\n      mload\n        /* \"#utility.yul\":10572:10620   */\n      tag_190\n        /* \"#utility.yul\":10614:10618   */\n      0x1f\n        /* \"#utility.yul\":10606:10612   */\n      dup10\n        /* \"#utility.yul\":10602:10619   */\n      and\n        /* \"#utility.yul\":10591:10600   */\n      dup3\n        /* \"#utility.yul\":10572:10620   */\n      tag_66\n      jump\t// in\n    tag_190:\n        /* \"#utility.yul\":10564:10570   */\n      dup4\n        /* \"#utility.yul\":10557:10621   */\n      sstore\n        /* \"#utility.yul\":10479:10635   */\n      pop\n        /* \"#utility.yul\":10456:10635   */\n    tag_189:\n        /* \"#utility.yul\":10681:10682   */\n      0x01\n        /* \"#utility.yul\":10677:10678   */\n      0x02\n        /* \"#utility.yul\":10669:10675   */\n      dup9\n        /* \"#utility.yul\":10665:10679   */\n      mul\n        /* \"#utility.yul\":10661:10683   */\n      add\n        /* \"#utility.yul\":10655:10659   */\n      dup9\n        /* \"#utility.yul\":10648:10684   */\n      sstore\n        /* \"#utility.yul\":10083:10694   */\n      pop\n      pop\n      pop\n        /* \"#utility.yul\":10046:10933   */\n    tag_181:\n      pop\n        /* \"#utility.yul\":9636:10939   */\n      pop\n      pop\n      pop\n        /* \"#utility.yul\":9544:10939   */\n      pop\n      pop\n      jump\t// out\n\n    auxdata: 0xa2646970667358221220426169637a0cdc4b99494f649b8949db022dce3f0b5460ca9286c434e1a36f1464736f6c634300081a0033\n}\n",
				"bytecode": {
					"linkReferences": {},
					"object": "6080604052348015600e575f80fd5b506108068061001c5f395ff3fe608060405234801561000f575f80fd5b5060043610610034575f3560e01c80637ae339fd14610038578063bb58be7814610068575b5f80fd5b610052600480360381019061004d9190610268565b610084565b60405161005f9190610303565b60405180910390f35b610082600480360381019061007d919061044f565b61011e565b005b5f602052805f5260405f205f91509050805461009f906104c3565b80601f01602080910402602001604051908101604052809291908181526020018280546100cb906104c3565b80156101165780601f106100ed57610100808354040283529160200191610116565b820191905f5260205f20905b8154815290600101906020018083116100f957829003601f168201915b505050505081565b600a815111610162576040517f08c379a00000000000000000000000000000000000000000000000000000000081526004016101599061053d565b60405180910390fd5b805f803373ffffffffffffffffffffffffffffffffffffffff1673ffffffffffffffffffffffffffffffffffffffff1681526020019081526020015f2090816101ab9190610701565b503373ffffffffffffffffffffffffffffffffffffffff167f1700582be850ff71f6341c0e9768c45b03576a787f186451b51af237c29eab50826040516101f29190610303565b60405180910390a250565b5f604051905090565b5f80fd5b5f80fd5b5f73ffffffffffffffffffffffffffffffffffffffff82169050919050565b5f6102378261020e565b9050919050565b6102478161022d565b8114610251575f80fd5b50565b5f813590506102628161023e565b92915050565b5f6020828403121561027d5761027c610206565b5b5f61028a84828501610254565b91505092915050565b5f81519050919050565b5f82825260208201905092915050565b8281835e5f83830152505050565b5f601f19601f8301169050919050565b5f6102d582610293565b6102df818561029d565b93506102ef8185602086016102ad565b6102f8816102bb565b840191505092915050565b5f6020820190508181035f83015261031b81846102cb565b905092915050565b5f80fd5b5f80fd5b7f4e487b71000000000000000000000000000000000000000000000000000000005f52604160045260245ffd5b610361826102bb565b810181811067ffffffffffffffff821117156103805761037f61032b565b5b80604052505050565b5f6103926101fd565b905061039e8282610358565b919050565b5f67ffffffffffffffff8211156103bd576103bc61032b565b5b6103c6826102bb565b9050602081019050919050565b828183375f83830152505050565b5f6103f36103ee846103a3565b610389565b90508281526020810184848401111561040f5761040e610327565b5b61041a8482856103d3565b509392505050565b5f82601f83011261043657610435610323565b5b81356104468482602086016103e1565b91505092915050565b5f6020828403121561046457610463610206565b5b5f82013567ffffffffffffffff8111156104815761048061020a565b5b61048d84828501610422565b91505092915050565b7f4e487b71000000000000000000000000000000000000000000000000000000005f52602260045260245ffd5b5f60028204905060018216806104da57607f821691505b6020821081036104ed576104ec610496565b5b50919050565b7f50726f66696c6520746f6f2073686f72740000000000000000000000000000005f82015250565b5f61052760118361029d565b9150610532826104f3565b602082019050919050565b5f6020820190508181035f8301526105548161051b565b9050919050565b5f819050815f5260205f209050919050565b5f6020601f8301049050919050565b5f82821b905092915050565b5f600883026105b77fffffffffffffffffffffffffffffffffffffffffffffffffffffffffffffffff8261057c565b6105c1868361057c565b95508019841693508086168417925050509392505050565b5f819050919050565b5f819050919050565b5f6106056106006105fb846105d9565b6105e2565b6105d9565b9050919050565b5f819050919050565b61061e836105eb565b61063261062a8261060c565b848454610588565b825550505050565b5f90565b61064661063a565b610651818484610615565b505050565b5b81811015610674576106695f8261063e565b600181019050610657565b5050565b601f8211156106b95761068a8161055b565b6106938461056d565b810160208510156106a2578190505b6106b66106ae8561056d565b830182610656565b50505b505050565b5f82821c905092915050565b5f6106d95f19846008026106be565b1980831691505092915050565b5f6106f183836106ca565b9150826002028217905092915050565b61070a82610293565b67ffffffffffffffff8111156107235761072261032b565b5b61072d82546104c3565b610738828285610678565b5f60209050601f831160018114610769575f8415610757578287015190505b61076185826106e6565b8655506107c8565b601f1984166107778661055b565b5f5b8281101561079e57848901518255600182019150602085019450602081019050610779565b868310156107bb57848901516107b7601f8916826106ca565b8355505b6001600288020188555050505b50505050505056fea2646970667358221220426169637a0cdc4b99494f649b8949db022dce3f0b5460ca9286c434e1a36f1464736f6c634300081a0033",
					"opcodes": "PUSH1 0x80 PUSH1 0x40 MSTORE CALLVALUE DUP1 ISZERO PUSH1 0xE JUMPI PUSH0 DUP1 REVERT JUMPDEST POP PUSH2 0x806 DUP1 PUSH2 0x1C PUSH0 CODECOPY PUSH0 RETURN INVALID PUSH1 0x80 PUSH1 0x40 MSTORE CALLVALUE DUP1 ISZERO PUSH2 0xF JUMPI PUSH0 DUP1 REVERT JUMPDEST POP PUSH1 0x4 CALLDATASIZE LT PUSH2 0x34 JUMPI PUSH0 CALLDATALOAD PUSH1 0xE0 SHR DUP1 PUSH4 0x7AE339FD EQ PUSH2 0x38 JUMPI DUP1 PUSH4 0xBB58BE78 EQ PUSH2 0x68 JUMPI JUMPDEST PUSH0 DUP1 REVERT JUMPDEST PUSH2 0x52 PUSH1 0x4 DUP1 CALLDATASIZE SUB DUP2 ADD SWAP1 PUSH2 0x4D SWAP2 SWAP1 PUSH2 0x268 JUMP JUMPDEST PUSH2 0x84 JUMP JUMPDEST PUSH1 0x40 MLOAD PUSH2 0x5F SWAP2 SWAP1 PUSH2 0x303 JUMP JUMPDEST PUSH1 0x40 MLOAD DUP1 SWAP2 SUB SWAP1 RETURN JUMPDEST PUSH2 0x82 PUSH1 0x4 DUP1 CALLDATASIZE SUB DUP2 ADD SWAP1 PUSH2 0x7D SWAP2 SWAP1 PUSH2 0x44F JUMP JUMPDEST PUSH2 0x11E JUMP JUMPDEST STOP JUMPDEST PUSH0 PUSH1 0x20 MSTORE DUP1 PUSH0 MSTORE PUSH1 0x40 PUSH0 KECCAK256 PUSH0 SWAP2 POP SWAP1 POP DUP1 SLOAD PUSH2 0x9F SWAP1 PUSH2 0x4C3 JUMP JUMPDEST DUP1 PUSH1 0x1F ADD PUSH1 0x20 DUP1 SWAP2 DIV MUL PUSH1 0x20 ADD PUSH1 0x40 MLOAD SWAP1 DUP2 ADD PUSH1 0x40 MSTORE DUP1 SWAP3 SWAP2 SWAP1 DUP2 DUP2 MSTORE PUSH1 0x20 ADD DUP3 DUP1 SLOAD PUSH2 0xCB SWAP1 PUSH2 0x4C3 JUMP JUMPDEST DUP1 ISZERO PUSH2 0x116 JUMPI DUP1 PUSH1 0x1F LT PUSH2 0xED JUMPI PUSH2 0x100 DUP1 DUP4 SLOAD DIV MUL DUP4 MSTORE SWAP2 PUSH1 0x20 ADD SWAP2 PUSH2 0x116 JUMP JUMPDEST DUP3 ADD SWAP2 SWAP1 PUSH0 MSTORE PUSH1 0x20 PUSH0 KECCAK256 SWAP1 JUMPDEST DUP2 SLOAD DUP2 MSTORE SWAP1 PUSH1 0x1 ADD SWAP1 PUSH1 0x20 ADD DUP1 DUP4 GT PUSH2 0xF9 JUMPI DUP3 SWAP1 SUB PUSH1 0x1F AND DUP3 ADD SWAP2 JUMPDEST POP POP POP POP POP DUP2 JUMP JUMPDEST PUSH1 0xA DUP2 MLOAD GT PUSH2 0x162 JUMPI PUSH1 0x40 MLOAD PUSH32 0x8C379A000000000000000000000000000000000000000000000000000000000 DUP2 MSTORE PUSH1 0x4 ADD PUSH2 0x159 SWAP1 PUSH2 0x53D JUMP JUMPDEST PUSH1 0x40 MLOAD DUP1 SWAP2 SUB SWAP1 REVERT JUMPDEST DUP1 PUSH0 DUP1 CALLER PUSH20 0xFFFFFFFFFFFFFFFFFFFFFFFFFFFFFFFFFFFFFFFF AND PUSH20 0xFFFFFFFFFFFFFFFFFFFFFFFFFFFFFFFFFFFFFFFF AND DUP2 MSTORE PUSH1 0x20 ADD SWAP1 DUP2 MSTORE PUSH1 0x20 ADD PUSH0 KECCAK256 SWAP1 DUP2 PUSH2 0x1AB SWAP2 SWAP1 PUSH2 0x701 JUMP JUMPDEST POP CALLER PUSH20 0xFFFFFFFFFFFFFFFFFFFFFFFFFFFFFFFFFFFFFFFF AND PUSH32 0x1700582BE850FF71F6341C0E9768C45B03576A787F186451B51AF237C29EAB50 DUP3 PUSH1 0x40 MLOAD PUSH2 0x1F2 SWAP2 SWAP1 PUSH2 0x303 JUMP JUMPDEST PUSH1 0x40 MLOAD DUP1 SWAP2 SUB SWAP1 LOG2 POP JUMP JUMPDEST PUSH0 PUSH1 0x40 MLOAD SWAP1 POP SWAP1 JUMP JUMPDEST PUSH0 DUP1 REVERT JUMPDEST PUSH0 DUP1 REVERT JUMPDEST PUSH0 PUSH20 0xFFFFFFFFFFFFFFFFFFFFFFFFFFFFFFFFFFFFFFFF DUP3 AND SWAP1 POP SWAP2 SWAP1 POP JUMP JUMPDEST PUSH0 PUSH2 0x237 DUP3 PUSH2 0x20E JUMP JUMPDEST SWAP1 POP SWAP2 SWAP1 POP JUMP JUMPDEST PUSH2 0x247 DUP2 PUSH2 0x22D JUMP JUMPDEST DUP2 EQ PUSH2 0x251 JUMPI PUSH0 DUP1 REVERT JUMPDEST POP JUMP JUMPDEST PUSH0 DUP2 CALLDATALOAD SWAP1 POP PUSH2 0x262 DUP2 PUSH2 0x23E JUMP JUMPDEST SWAP3 SWAP2 POP POP JUMP JUMPDEST PUSH0 PUSH1 0x20 DUP3 DUP5 SUB SLT ISZERO PUSH2 0x27D JUMPI PUSH2 0x27C PUSH2 0x206 JUMP JUMPDEST JUMPDEST PUSH0 PUSH2 0x28A DUP5 DUP3 DUP6 ADD PUSH2 0x254 JUMP JUMPDEST SWAP2 POP POP SWAP3 SWAP2 POP POP JUMP JUMPDEST PUSH0 DUP2 MLOAD SWAP1 POP SWAP2 SWAP1 POP JUMP JUMPDEST PUSH0 DUP3 DUP3 MSTORE PUSH1 0x20 DUP3 ADD SWAP1 POP SWAP3 SWAP2 POP POP JUMP JUMPDEST DUP3 DUP2 DUP4 MCOPY PUSH0 DUP4 DUP4 ADD MSTORE POP POP POP JUMP JUMPDEST PUSH0 PUSH1 0x1F NOT PUSH1 0x1F DUP4 ADD AND SWAP1 POP SWAP2 SWAP1 POP JUMP JUMPDEST PUSH0 PUSH2 0x2D5 DUP3 PUSH2 0x293 JUMP JUMPDEST PUSH2 0x2DF DUP2 DUP6 PUSH2 0x29D JUMP JUMPDEST SWAP4 POP PUSH2 0x2EF DUP2 DUP6 PUSH1 0x20 DUP7 ADD PUSH2 0x2AD JUMP JUMPDEST PUSH2 0x2F8 DUP2 PUSH2 0x2BB JUMP JUMPDEST DUP5 ADD SWAP2 POP POP SWAP3 SWAP2 POP POP JUMP JUMPDEST PUSH0 PUSH1 0x20 DUP3 ADD SWAP1 POP DUP2 DUP2 SUB PUSH0 DUP4 ADD MSTORE PUSH2 0x31B DUP2 DUP5 PUSH2 0x2CB JUMP JUMPDEST SWAP1 POP SWAP3 SWAP2 POP POP JUMP JUMPDEST PUSH0 DUP1 REVERT JUMPDEST PUSH0 DUP1 REVERT JUMPDEST PUSH32 0x4E487B7100000000000000000000000000000000000000000000000000000000 PUSH0 MSTORE PUSH1 0x41 PUSH1 0x4 MSTORE PUSH1 0x24 PUSH0 REVERT JUMPDEST PUSH2 0x361 DUP3 PUSH2 0x2BB JUMP JUMPDEST DUP2 ADD DUP2 DUP2 LT PUSH8 0xFFFFFFFFFFFFFFFF DUP3 GT OR ISZERO PUSH2 0x380 JUMPI PUSH2 0x37F PUSH2 0x32B JUMP JUMPDEST JUMPDEST DUP1 PUSH1 0x40 MSTORE POP POP POP JUMP JUMPDEST PUSH0 PUSH2 0x392 PUSH2 0x1FD JUMP JUMPDEST SWAP1 POP PUSH2 0x39E DUP3 DUP3 PUSH2 0x358 JUMP JUMPDEST SWAP2 SWAP1 POP JUMP JUMPDEST PUSH0 PUSH8 0xFFFFFFFFFFFFFFFF DUP3 GT ISZERO PUSH2 0x3BD JUMPI PUSH2 0x3BC PUSH2 0x32B JUMP JUMPDEST JUMPDEST PUSH2 0x3C6 DUP3 PUSH2 0x2BB JUMP JUMPDEST SWAP1 POP PUSH1 0x20 DUP2 ADD SWAP1 POP SWAP2 SWAP1 POP JUMP JUMPDEST DUP3 DUP2 DUP4 CALLDATACOPY PUSH0 DUP4 DUP4 ADD MSTORE POP POP POP JUMP JUMPDEST PUSH0 PUSH2 0x3F3 PUSH2 0x3EE DUP5 PUSH2 0x3A3 JUMP JUMPDEST PUSH2 0x389 JUMP JUMPDEST SWAP1 POP DUP3 DUP2 MSTORE PUSH1 0x20 DUP2 ADD DUP5 DUP5 DUP5 ADD GT ISZERO PUSH2 0x40F JUMPI PUSH2 0x40E PUSH2 0x327 JUMP JUMPDEST JUMPDEST PUSH2 0x41A DUP5 DUP3 DUP6 PUSH2 0x3D3 JUMP JUMPDEST POP SWAP4 SWAP3 POP POP POP JUMP JUMPDEST PUSH0 DUP3 PUSH1 0x1F DUP4 ADD SLT PUSH2 0x436 JUMPI PUSH2 0x435 PUSH2 0x323 JUMP JUMPDEST JUMPDEST DUP2 CALLDATALOAD PUSH2 0x446 DUP5 DUP3 PUSH1 0x20 DUP7 ADD PUSH2 0x3E1 JUMP JUMPDEST SWAP2 POP POP SWAP3 SWAP2 POP POP JUMP JUMPDEST PUSH0 PUSH1 0x20 DUP3 DUP5 SUB SLT ISZERO PUSH2 0x464 JUMPI PUSH2 0x463 PUSH2 0x206 JUMP JUMPDEST JUMPDEST PUSH0 DUP3 ADD CALLDATALOAD PUSH8 0xFFFFFFFFFFFFFFFF DUP2 GT ISZERO PUSH2 0x481 JUMPI PUSH2 0x480 PUSH2 0x20A JUMP JUMPDEST JUMPDEST PUSH2 0x48D DUP5 DUP3 DUP6 ADD PUSH2 0x422 JUMP JUMPDEST SWAP2 POP POP SWAP3 SWAP2 POP POP JUMP JUMPDEST PUSH32 0x4E487B7100000000000000000000000000000000000000000000000000000000 PUSH0 MSTORE PUSH1 0x22 PUSH1 0x4 MSTORE PUSH1 0x24 PUSH0 REVERT JUMPDEST PUSH0 PUSH1 0x2 DUP3 DIV SWAP1 POP PUSH1 0x1 DUP3 AND DUP1 PUSH2 0x4DA JUMPI PUSH1 0x7F DUP3 AND SWAP2 POP JUMPDEST PUSH1 0x20 DUP3 LT DUP2 SUB PUSH2 0x4ED JUMPI PUSH2 0x4EC PUSH2 0x496 JUMP JUMPDEST JUMPDEST POP SWAP2 SWAP1 POP JUMP JUMPDEST PUSH32 0x50726F66696C6520746F6F2073686F7274000000000000000000000000000000 PUSH0 DUP3 ADD MSTORE POP JUMP JUMPDEST PUSH0 PUSH2 0x527 PUSH1 0x11 DUP4 PUSH2 0x29D JUMP JUMPDEST SWAP2 POP PUSH2 0x532 DUP3 PUSH2 0x4F3 JUMP JUMPDEST PUSH1 0x20 DUP3 ADD SWAP1 POP SWAP2 SWAP1 POP JUMP JUMPDEST PUSH0 PUSH1 0x20 DUP3 ADD SWAP1 POP DUP2 DUP2 SUB PUSH0 DUP4 ADD MSTORE PUSH2 0x554 DUP2 PUSH2 0x51B JUMP JUMPDEST SWAP1 POP SWAP2 SWAP1 POP JUMP JUMPDEST PUSH0 DUP2 SWAP1 POP DUP2 PUSH0 MSTORE PUSH1 0x20 PUSH0 KECCAK256 SWAP1 POP SWAP2 SWAP1 POP JUMP JUMPDEST PUSH0 PUSH1 0x20 PUSH1 0x1F DUP4 ADD DIV SWAP1 POP SWAP2 SWAP1 POP JUMP JUMPDEST PUSH0 DUP3 DUP3 SHL SWAP1 POP SWAP3 SWAP2 POP POP JUMP JUMPDEST PUSH0 PUSH1 0x8 DUP4 MUL PUSH2 0x5B7 PUSH32 0xFFFFFFFFFFFFFFFFFFFFFFFFFFFFFFFFFFFFFFFFFFFFFFFFFFFFFFFFFFFFFFFF DUP3 PUSH2 0x57C JUMP JUMPDEST PUSH2 0x5C1 DUP7 DUP4 PUSH2 0x57C JUMP JUMPDEST SWAP6 POP DUP1 NOT DUP5 AND SWAP4 POP DUP1 DUP7 AND DUP5 OR SWAP3 POP POP POP SWAP4 SWAP3 POP POP POP JUMP JUMPDEST PUSH0 DUP2 SWAP1 POP SWAP2 SWAP1 POP JUMP JUMPDEST PUSH0 DUP2 SWAP1 POP SWAP2 SWAP1 POP JUMP JUMPDEST PUSH0 PUSH2 0x605 PUSH2 0x600 PUSH2 0x5FB DUP5 PUSH2 0x5D9 JUMP JUMPDEST PUSH2 0x5E2 JUMP JUMPDEST PUSH2 0x5D9 JUMP JUMPDEST SWAP1 POP SWAP2 SWAP1 POP JUMP JUMPDEST PUSH0 DUP2 SWAP1 POP SWAP2 SWAP1 POP JUMP JUMPDEST PUSH2 0x61E DUP4 PUSH2 0x5EB JUMP JUMPDEST PUSH2 0x632 PUSH2 0x62A DUP3 PUSH2 0x60C JUMP JUMPDEST DUP5 DUP5 SLOAD PUSH2 0x588 JUMP JUMPDEST DUP3 SSTORE POP POP POP POP JUMP JUMPDEST PUSH0 SWAP1 JUMP JUMPDEST PUSH2 0x646 PUSH2 0x63A JUMP JUMPDEST PUSH2 0x651 DUP2 DUP5 DUP5 PUSH2 0x615 JUMP JUMPDEST POP POP POP JUMP JUMPDEST JUMPDEST DUP2 DUP2 LT ISZERO PUSH2 0x674 JUMPI PUSH2 0x669 PUSH0 DUP3 PUSH2 0x63E JUMP JUMPDEST PUSH1 0x1 DUP2 ADD SWAP1 POP PUSH2 0x657 JUMP JUMPDEST POP POP JUMP JUMPDEST PUSH1 0x1F DUP3 GT ISZERO PUSH2 0x6B9 JUMPI PUSH2 0x68A DUP2 PUSH2 0x55B JUMP JUMPDEST PUSH2 0x693 DUP5 PUSH2 0x56D JUMP JUMPDEST DUP2 ADD PUSH1 0x20 DUP6 LT ISZERO PUSH2 0x6A2 JUMPI DUP2 SWAP1 POP JUMPDEST PUSH2 0x6B6 PUSH2 0x6AE DUP6 PUSH2 0x56D JUMP JUMPDEST DUP4 ADD DUP3 PUSH2 0x656 JUMP JUMPDEST POP POP JUMPDEST POP POP POP JUMP JUMPDEST PUSH0 DUP3 DUP3 SHR SWAP1 POP SWAP3 SWAP2 POP POP JUMP JUMPDEST PUSH0 PUSH2 0x6D9 PUSH0 NOT DUP5 PUSH1 0x8 MUL PUSH2 0x6BE JUMP JUMPDEST NOT DUP1 DUP4 AND SWAP2 POP POP SWAP3 SWAP2 POP POP JUMP JUMPDEST PUSH0 PUSH2 0x6F1 DUP4 DUP4 PUSH2 0x6CA JUMP JUMPDEST SWAP2 POP DUP3 PUSH1 0x2 MUL DUP3 OR SWAP1 POP SWAP3 SWAP2 POP POP JUMP JUMPDEST PUSH2 0x70A DUP3 PUSH2 0x293 JUMP JUMPDEST PUSH8 0xFFFFFFFFFFFFFFFF DUP2 GT ISZERO PUSH2 0x723 JUMPI PUSH2 0x722 PUSH2 0x32B JUMP JUMPDEST JUMPDEST PUSH2 0x72D DUP3 SLOAD PUSH2 0x4C3 JUMP JUMPDEST PUSH2 0x738 DUP3 DUP3 DUP6 PUSH2 0x678 JUMP JUMPDEST PUSH0 PUSH1 0x20 SWAP1 POP PUSH1 0x1F DUP4 GT PUSH1 0x1 DUP2 EQ PUSH2 0x769 JUMPI PUSH0 DUP5 ISZERO PUSH2 0x757 JUMPI DUP3 DUP8 ADD MLOAD SWAP1 POP JUMPDEST PUSH2 0x761 DUP6 DUP3 PUSH2 0x6E6 JUMP JUMPDEST DUP7 SSTORE POP PUSH2 0x7C8 JUMP JUMPDEST PUSH1 0x1F NOT DUP5 AND PUSH2 0x777 DUP7 PUSH2 0x55B JUMP JUMPDEST PUSH0 JUMPDEST DUP3 DUP2 LT ISZERO PUSH2 0x79E JUMPI DUP5 DUP10 ADD MLOAD DUP3 SSTORE PUSH1 0x1 DUP3 ADD SWAP2 POP PUSH1 0x20 DUP6 ADD SWAP5 POP PUSH1 0x20 DUP2 ADD SWAP1 POP PUSH2 0x779 JUMP JUMPDEST DUP7 DUP4 LT ISZERO PUSH2 0x7BB JUMPI DUP5 DUP10 ADD MLOAD PUSH2 0x7B7 PUSH1 0x1F DUP10 AND DUP3 PUSH2 0x6CA JUMP JUMPDEST DUP4 SSTORE POP JUMPDEST PUSH1 0x1 PUSH1 0x2 DUP9 MUL ADD DUP9 SSTORE POP POP POP JUMPDEST POP POP POP POP POP POP JUMP INVALID LOG2 PUSH5 0x6970667358 0x22 SLT KECCAK256 TIMESTAMP PUSH2 0x6963 PUSH27 0xCDC4B99494F649B8949DB022DCE3F0B5460CA9286C434E1A36F14 PUSH5 0x736F6C6343 STOP ADDMOD BYTE STOP CALLER "
				},
				"gasEstimates": {
					"creation": {
						"codeDepositCost": "410800",
						"executionCost": "447",
						"totalCost": "411247"
					},
					"external": {
						"freelancerProfiles(address)": "infinite",
						"registerFreelancer(string)": "infinite"
					}
				},
				"methodIdentifiers": {
					"freelancerProfiles(address)": "7ae339fd",
					"registerFreelancer(string)": "bb58be78"
				}
			},
			"storageLayout": {
				"storage": [
					{
						"astId": 5,
						"contract": "contracts/FreelancerRegistry.sol:FreelancerRegistry",
						"label": "freelancerProfiles",
						"offset": 0,
						"slot": "0",
						"type": "t_mapping(t_address,t_string_storage)"
					}
				],
				"types": {
					"t_address": {
						"encoding": "inplace",
						"label": "address",
						"numberOfBytes": "20"
					},
					"t_mapping(t_address,t_string_storage)": {
						"encoding": "mapping",
						"key": "t_address",
						"label": "mapping(address => string)",
						"numberOfBytes": "32",
						"value": "t_string_storage"
					},
					"t_string_storage": {
						"encoding": "bytes",
						"label": "string",
						"numberOfBytes": "32"
					}
				}
			},
			"userdoc": {
				"kind": "user",
				"methods": {},
				"version": 1
			}
		}
	}
}